:100000000C9458000C9475000C9475000C947500B9
:100010000C9475000C9475000C9475000C94C1053B
:100020000C9475000C9475000C9475000C9475007C
:100030000C9475000C9475000C9475000C9475006C
:100040000C9475000C9475000C9475000C9475005C
:100050000C9475000C9475000C9475008E068E0639
:1000600099069906A506AA06AA06AC06AC06AC0631
:10007000B8067E067E068A06DA06DA06EA06EA068A
:10008000FA060E070E07FE06FE06FE061007CA0653
:10009000CA06C6064D074D075D075D076D07810758
:1000A000810771077107710783073D073D0739070E
:1000B00011241FBECFEFD0E1DEBFCDBF11E0A0E025
:1000C000B1E0E8EDFAE102C005900D92A632B10769
:1000D000D9F721E0A6E2B1E001C01D92AD33B2072D
:1000E000E1F70E94D8070C946A0D0C940000CF929F
:1000F000DF92EF92FF92CF93DF93EC0180912A0180
:1001000090912B01BE01681B790B072E000C880B08
:10011000990B0E9411092DEC3CEC4CE45EE30E942B
:10012000C6096B017C01BE010D2E000C880B990BDA
:100130000E94110923E333E343E35FE30E94C6090E
:100140009B01AC01C701B6010E94680820E030E0C5
:100150004EEF52E40E9468086B017C0120E030E021
:100160004DE153E40E94C10918166CF48DE990E04A
:10017000D0932B01C0932A01DF91CF91FF90EF9094
:10018000DF90CF90089520E030E042EC52E4C701C8
:10019000B6010E94D40887FF03C081E690E0E8CF53
:1001A000C701B6010E94330A0E94D908CB01E0CFF3
:1001B000CF93DF9387E090E00E947700D82F89EFFC
:1001C0009FEF0E947700C82F6D2F82E00E942506C6
:1001D0006C2F83E0DF91CF910C942506CF93DF93B2
:1001E0008CEE9FEF0E947700D82F8CE99FEF0E9442
:1001F0007700C82F6D2F82E00E9425066C2F83E0C8
:10020000DF91CF910C942506CF93DF9384E690E0A5
:100210000E947700D82F84E190E00E947700C82FD9
:100220006D2F82E00E9425066C2F83E0DF91CF9135
:100230000C9425066FE782E00E9425066FE783E0B5
:100240000C9425069C01261B370B843691051CF463
:1002500064367105D4F0A90137FD20C0413A51053B
:1002600044F48A3B91051CF06A3B71052CF50C9413
:10027000D80012161306BCF40E94EE0081E090E054
:1002800090932701809326010895809126019091F3
:10029000270197FF0C94EE000C9404014427552786
:1002A000421B530BDBCF0E9404018FEF9FEF909313
:1002B00027018093260108950E94D80010922701FB
:1002C000109226010895EAE7F0E080818768808334
:1002D000ECE7F0E0808180668083089590917C0057
:1002E000987F90937C0090917C00892B80937C0078
:1002F00080917A00806480937A0080917A0086FDF4
:10030000FCCF8091790008958DB18F7C8DB985E007
:100310008A95F1F700006D9A759885E08A95F1F756
:1003200000006C9A749885E08A95F1F700000895B2
:100330006C9885E08A95F1F700006D9885E08A95C4
:10034000F1F7000008956D9885E08A95F1F70000B7
:1003500065990DC06C9885E08A95F1F700006C9A5C
:10036000749885E08A95F1F70000659BF3CF6C984F
:1003700008956C9885E08A95F1F700006C9A74985E
:1003800085E08A95F1F7000008951F93CF93DF93DE
:10039000D82FC62F142F0E94A3010E94840187E04A
:1003A00013C06D9895E09A95F1F700006C9895E070
:1003B0009A95F1F700006C9A749895E09A95F1F788
:1003C0000000DD0F815029F0D6FDEBCF6D9A7598B6
:1003D000E9CF6D9A759885E08A95F1F700006C98E1
:1003E00095E09A95F1F700006C9A749885E08A95EB
:1003F000F1F700006D9895E09A95F1F700006C9880
:10040000659B05C08CE091E00E94A604FFCF85E0CB
:100410008A95F1F700006C9A749895E09A95F1F737
:10042000000088E014C06D9A759895E09A95F1F7F0
:1004300000006C9895E09A95F1F700006C9A74981A
:1004400095E09A95F1F70000CC0F815021F0C7FF9D
:10045000EACF6D98EACF6D9885E08A95F1F70000B4
:100460006C98659B05C088E191E00E94A604FFCFCF
:1004700095E09A95F1F700006C9A749885E08A955A
:10048000F1F70000112351F06C9895E09A95F1F77F
:1004900000006D9885E08A95F1F70000DF91CF911B
:1004A0001F910895FC016623D1F14FEF460F50E0F4
:1004B0004F5F5F4F480F591F908128E016C06D9A1B
:1004C000759885E08A95F1F700006C9885E08A952B
:1004D000F1F700006C9A749885E08A95F1F70000B6
:1004E0009081990F9083215021F097FFE8CF6D986C
:1004F000E8CF31966D9885E08A95F1F700006C9809
:10050000659918C085E08A95F1F700006C9A749897
:1005100085E08A95F1F70000E417F50769F66C9815
:1005200085E08A95F1F700006D9885E08A95F1F7EE
:100530000000089585E191E00E94A604FFCF0F938B
:100540001F93CF93DF93082FEB01142F0E94840198
:1005500087E013C06D9895E09A95F1F700006C98CC
:1005600095E09A95F1F700006C9A749895E09A9549
:10057000F1F70000000F815029F006FDEBCF6D9AD6
:100580007598E9CF6D9885E08A95F1F700006C9831
:1005900095E09A95F1F700006C9A749885E08A9539
:1005A000F1F700006D9895E09A95F1F700006C98CE
:1005B000659B05C08DE191E00E94A604FFCF85E018
:1005C0008A95F1F700006C9A749895E09A95F1F786
:1005D00000006D9885E08A95F1F700001123B1F1D4
:1005E0002FEF210F30E02F5F3F4F2C0F3D1F98E082
:1005F0008881880F88836C9885E08A95F1F70000E0
:10060000659B03C088818160888385E08A95F1F7C6
:1006100000006C9A749885E08A95F1F7000091507B
:1006200039F76D9A759895E09A95F1F700006C98F6
:1006300085E08A95F1F700006C9A749895E09A9598
:10064000F1F7000021962C173D0789F695E09A9561
:10065000F1F700006C9885E08A95F1F700006D983D
:1006600095E09A95F1F70000DF91CF911F910F91DE
:100670000895CF93DF931F92CDB7DEB7498340E053
:100680000E94C50161E0CE0101960E9452020F90C6
:10069000DF91CF9108951F93CF93DF931F92CDB732
:1006A000DEB7182F41E00E94C50141E0BE016F5F37
:1006B0007F4F812F0E949F0289810F90DF91CF9100
:1006C0001F91089561E08CE10C944B0363E08CE191
:1006D0000C944B0365E08CE10C944B038AE08A9503
:1006E000F1F700C0449A8AE08A95F1F700C0449877
:1006F0008AE08A95F1F700C00895F89482B98AE0FB
:100700008A95F1F700C0449A8AE08A95F1F700C013
:1007100044988AE08A95F1F700C0789408958F98FC
:10072000F89482B98AE08A95F1F700C0449A8AE089
:100730008A95F1F700C044988AE08A95F1F700C0E5
:10074000789408958F9AF89482B98AE08A95F1F79F
:1007500000C0449A8AE08A95F1F700C044988AE084
:100760008A95F1F700C078940895803110F46230D2
:1007700008F0089590E4699F800D112480588F98A7
:10078000F89482B98AE08A95F1F700C0449A9AE019
:100790009A95F1F700C044988AE08A95F1F700C075
:1007A000789495EC9A95F1F7000008953C9A879A11
:1007B0008FEF81B98FE19EE40197F1F700C000004F
:1007C0008F98F89488E382B99AE09A95F1F700C07F
:1007D000449AEAE0EA95F1F700C04498FAE0FA9505
:1007E000F1F700C07894EFE7F2E03197F1F700C03D
:1007F00000008F98F89482B9FAE0FA95F1F700C0FA
:10080000449A9AE09A95F1F700C04498EAE0EA9594
:10081000F1F700C07894EFE7F2E03197F1F700C00C
:1008200000008F98F89482B9FAE0FA95F1F700C0C9
:10083000449A9AE09A95F1F700C04498EAE0EA9564
:10084000F1F700C07894EFE7F2E03197F1F700C0DC
:1008500000008F98F89498E092B9FAE0FA95F1F7D1
:1008600000C0449A9AE09A95F1F700C04498EAE0F3
:10087000EA95F1F700C07894EFE7F2E03197F1F7ED
:1008800000C000008F98F89491E092B9FAE0FA95D0
:10089000F1F700C0449A9AE09A95F1F700C04498A5
:1008A000EAE0EA95F1F700C07894EFE7FEE33197CC
:1008B000F1F700C000008F98F89496E092B9FAE042
:1008C000FA95F1F700C0449A9AE09A95F1F700C0C2
:1008D0004498EAE0EA95F1F700C07894EFE7F2E097
:1008E0003197F1F700C000008F98F89482B9FAE0D0
:1008F000FA95F1F700C0449A8AE08A95F1F700C0B2
:1009000044989AE09A95F1F700C07894EFE8F1E006
:100910003197F1F700C000008F98F8948CE082B90D
:10092000FAE0FA95F1F700C0449A8AE08A95F1F767
:1009300000C044989AE09A95F1F700C07894EFE8E7
:10094000F1E03197F1F700C000000895DC019C91BF
:10095000992301F120E08F9AF89492B98AE08A9560
:10096000F1F700C0449A9AE09A95F1F700C04498D4
:100970008AE08A95F1F700C078948FE792E00197BA
:10098000F1F700C000002F5FFD01E20FF11D908123
:100990009111E1CF08951F93CF93DF93FC01892B31
:1009A00009F466C045E011E02FE037E2E901219645
:1009B000CF01BE010E942A0861111DC02E173F07FA
:1009C00008F052C01123A9F111E0CF01BE010E942D
:1009D0002A08FC01ADECBCEC0E9458089C0136953D
:1009E000279536952795369527954150F9F6DF914D
:1009F000CF911F9108952E173F07D8F0605D8F9A11
:100A0000F89462B99AE09A95F1F700C0449A8AE0A6
:100A10008A95F1F700C044989AE09A95F1F700C0E2
:100A200078948FE792E00197F1F700C0000010E0A2
:100A3000D1CF605D8F9AF89462B99AE09A95F1F7F8
:100A400000C0449A8AE08A95F1F700C044989AE081
:100A50009A95F1F700C078948FE792E00197F1F74B
:100A600000C0000010E0B1CF112341F211E0B2CF7D
:100A70008F9AF89480E382B98AE08A95F1F700C0F2
:100A8000449A9AE09A95F1F700C044988AE08A95D2
:100A9000F1F700C078948FE792E00197F1F700C07A
:100AA0000000DF91CF911F9108958F98F89481E015
:100AB00082B98AE08A95F1F700C0449A9AE09A9543
:100AC000F1F700C044988AE08A95F1F700C0789465
:100AD0008FE79EE30197F1F700C0000008955D9A4B
:100AE0005C980895262F3FEF81110EC06303C0016B
:100AF000112464E670E00E943E086093B300121671
:100B00009CF45C9A5D9808956303C001112464E627
:100B100070E00E943E0867BD12161CF45E9A5F9852
:100B200008955F9A5E9808950C946F05CF93DF93B4
:100B3000C3EBD0E018820E946F0517BC5F9A5E98E5
:100B400084B1806984B98AB1806F8AB9E0EBF0E042
:100B500080818866808380818260808384B5886696
:100B600084BD84B5826084BD8AE087BD8883DF91BF
:100B7000CF9108955C9A5D982C9A5F9A5E982F9A0F
:100B800008951F920F920FB60F9211242F933F9347
:100B90004F935F936F937F938F939F93EF93FF9305
:100BA00080912C01409188005091890080FD30C0D7
:100BB0008695E82FF0E0EE0FFF1FEB5CFE4F2081E3
:100BC0003181240F351F309389002093880048B16C
:100BD00021E030E0B90102C0660F771F8A95E2F785
:100BE000CB01842B88B980912C018F5F8770809313
:100BF0002C01FF91EF919F918F917F916F915F9168
:100C00004F913F912F910F900FBE0F901F9018950D
:100C10008695E82FF0E0EE0FFF1FE35DFE4F208189
:100C20003181240F351F309389002093880048B10B
:100C300021E030E0B90102C0660F771F8A95E2F724
:100C4000CB018095842388B9CECF90E02AE0629FC3
:100C5000B00111246C53764F880F991FFC01EB5C97
:100C6000FE4F71836083FC01E35DFE4F24ED30E3B2
:100C7000261B370B318320830895A5E3B1E024ECD4
:100C800039E011963C932E93EDE2F1E080E197E29A
:100C90009183808313963C932E9312979383828340
:100CA00015963C932E9314979583848317963C93C3
:100CB0002E9316979783868387B18F6087B9E1E873
:100CC000F0E01082808182608083EFE6F0E0808136
:100CD00082608083789408958CB18095881F8827DE
:100CE000881F0895482F50E04E30510510F080E0E5
:100CF0000895FA01E25DFF4F0C94520823B130E0F1
:100D00008950A90102C0559547958A95E2F7CA0115
:100D10008170089583B18695817008952CB130E07B
:100D2000A90102C0559547958A95E2F7CA018170DD
:100D3000089522B330E08F5FA90102C05595479511
:100D40008A95E2F7CA01817008958CB186FB8827E5
:100D500080F9089523B1E3CF26B130E08250A90194
:100D600002C0559547958A95E2F7CA0181700895AA
:100D700083B181700895962F482F50E04E30510571
:100D800040F4FA01E45CFF4F0C945208611164C016
:100D90002198089544B1895021E030E0B90102C0A2
:100DA000660F771F8A95E2F79923F1F1CB01842B27
:100DB00084B908954DB121E030E0B90102C0660F59
:100DC000771F8A95E2F7992309F43FC0CB01842B62
:100DD0008DB9089543B38F5F21E030E0B90102C0BF
:100DE000660F771F8A95E2F7992329F1CB01842BAF
:100DF00083BB08956623E9F06E9A089547B1825047
:100E000021E030E0B90102C0660F771F8A95E2F752
:100E10009923B1F0CB01842B87B9089544B1BCCF9D
:100E20006623C1F0209A0895CB018095842384B96C
:100E300008956E980895CB018095842383BB08950F
:100E4000CB018095842387B90895CB0180958423B5
:100E50008DB9089520980895219A0895962F482FC6
:100E600050E04E30510540F4FA01E65BFF4F0C9420
:100E70005208611164C02998089545B1895021E054
:100E800030E0B90102C0660F771F8A95E2F7992317
:100E9000F1F1CB01842B85B908954EB121E030E00A
:100EA000B90102C0660F771F8A95E2F7992309F40A
:100EB0003FC0CB01842B8EB9089544B38F5F21E0EE
:100EC00030E0B90102C0660F771F8A95E2F79923D7
:100ED00029F1CB01842B84BB08956623E9F0769A2F
:100EE000089548B1825021E030E0B90102C0660F98
:100EF000771F8A95E2F79923B1F0CB01842B88B94B
:100F0000089545B1BCCF6623C1F0289A0895CB015E
:100F10008095842385B9089576980895CB018095AE
:100F2000842384BB0895CB018095842388B90895D8
:100F3000CB01809584238EB9089528980895299A25
:100F40000895811104C0613031F0A0980895613096
:100F500021F0A1980895A09A0895A19A0895882350
:100F600011F0A19A0895A09A0895882311F0A198EC
:100F70000895A0980895529A83B3836083BB779AAB
:100F80000E9463010E94D6030E943D060E949605BE
:100F900041E06AE28CE10E9439032FEF81EE94E098
:100FA000215080409040E1F700C000000C94A30164
:100FB000CF93DF93CDB7DEB7A2970FB6F894DEBF1D
:100FC0000FBECDBF0E94BB070E94D6030E943D0604
:100FD0008E010E5E1F4FCE0101966C0180E0E82E5F
:100FE00081E0F82E96E0692E91E0792E83E00E9450
:100FF0006E01982E84E00E946E01582E60E080E021
:101000000E94B503A92CB12C1F929F92FF92EF92E0
:101010001F930F930E94800AC8010E94A60461E0FA
:1010200080E00E94B503852C912C1F925F927F92E5
:101030006F92DF92CF920E94800AC6010E94A6049E
:10104000B401C5010E9422010FB6F894DEBF0FBEA5
:10105000CDBFCCCFAA1BBB1B51E107C0AA1FBB1F32
:10106000A617B70710F0A61BB70B881F991F5A9534
:10107000A9F780959095BC01CD01089597FB072EA7
:1010800016F4009407D077FD09D00E942A0807FCC7
:1010900005D03EF4909581959F4F08957095619588
:1010A0007F4F0895EE0FFF1F0590F491E02D0994F6
:1010B000A29FB001B39FC001A39F700D811D112499
:1010C000911DB29F700D811D1124911D08955058DE
:1010D000BB27AA270E947F080C9487090E947909E0
:1010E00038F00E94800920F039F49F3F19F426F46B
:1010F0000C9476090EF4E095E7FB0C947009E92F47
:101100000E94980958F3BA17620773078407950776
:1011100020F079F4A6F50C94BA090EF4E0950B2EA4
:10112000BA2FA02D0B01B90190010C01CA01A00139
:101130001124FF27591B99F0593F50F4503E68F194
:101140001A16F040A22F232F342F4427585FF3CFD5
:10115000469537952795A795F0405395C9F77EF4A6
:101160001F16BA0B620B730B840BBAF09150A1F0EF
:10117000FF0FBB1F661F771F881FC2F70EC0BA0F75
:10118000621F731F841F48F4879577956795B795FD
:10119000F7959E3F08F0B0CF9395880F08F09927F8
:1011A000EE0F9795879508950E944C0908F481E009
:1011B00008950E94E0086894B1110C94BB09089549
:1011C0000E94A00988F09F5798F0B92F9927B7512E
:1011D000B0F0E1F0660F771F881F991F1AF0BA95DB
:1011E000C9F714C0B13091F00E94BA09B1E0089576
:1011F0000C94BA09672F782F8827B85F39F0B93F68
:10120000CCF3869577956795B395D9F73EF490958D
:101210008095709561957F4F8F4F9F4F0895E8940B
:1012200009C097FB3EF490958095709561957F4F2E
:101230008F4F9F4F9923A9F0F92F96E9BB279395DC
:10124000F695879577956795B795F111F8CFFAF4EC
:10125000BB0F11F460FF1BC06F5F7F4F8F4F9F4F1D
:1012600016C0882311F096E911C0772321F09EE87B
:10127000872F762F05C0662371F096E8862F70E0E1
:1012800060E02AF09A95660F771F881FDAF7880FBB
:101290009695879597F90895990F0008550FAA0B11
:1012A000E0E8FEEF16161706E807F907C0F0121679
:1012B0001306E407F50798F0621B730B840B950B7C
:1012C00039F40A2661F0232B242B252B21F40895D1
:1012D0000A2609F4A140A6958FEF811D811D08956E
:1012E00097F99F6780E870E060E008959FEF80ECD9
:1012F000089500240A94161617061806090608957C
:1013000000240A9412161306140605060895092EE1
:101310000394000C11F4882352F0BB0F40F4BF2B50
:1013200011F460FF04C06F5F7F4F8F4F9F4F089590
:1013300057FD9058440F551F59F05F3F71F0479586
:10134000880F97FB991F61F09F3F79F0879508956B
:10135000121613061406551FF2CF4695F1DF08C08A
:10136000161617061806991FF1CF869571056105A7
:1013700008940895E894BB2766277727CB0197F94F
:1013800008950E944C0908F48FEF08950E94D9092E
:101390000C9487090E94790938F00E94800920F096
:1013A000952311F00C9470090C94760911240C9477
:1013B000BB090E94980970F3959FC1F3950F50E007
:1013C000551F629FF001729FBB27F00DB11D639FF7
:1013D000AA27F00DB11DAA1F649F6627B00DA11D9D
:1013E000661F829F2227B00DA11D621F739FB00D43
:1013F000A11D621F839FA00D611D221F749F3327B3
:10140000A00D611D231F849F600D211D822F762F4B
:101410006A2F11249F5750409AF0F1F088234AF028
:10142000EE0FFF1FBB1F661F771F881F9150504094
:10143000A9F79E3F510580F00C9470090C94BB09EC
:101440005F3FE4F3983ED4F3869577956795B7951B
:10145000F795E7959F5FC1F7FE2B880F911D969535
:10146000879597F908950E94A009E8F09E37E8F063
:101470009639B8F49E3848F4672F782F8827985FFC
:10148000F9CF86957795679593959539D0F3B62FD3
:10149000B1706B0F711D811D20F48795779567954D
:1014A00093950C94570A0C94720A0C94BB098823E8
:1014B00071F4772321F09850872B762F07C066238D
:1014C00011F499270DC09051862B70E060E02AF04E
:1014D0009A95660F771F881FDAF7880F969587957C
:1014E00097F908959F3F31F0915020F487957795B3
:1014F0006795B795880F911D9695879597F90895EB
:10150000AEE0B0E0E6E8FAE00C94410D0D891E89EA
:1015100086E08C831A8309838FEF9FE79E838D83F8
:10152000AE01475E5F4F6F89788DCE0101960E94B4
:10153000A20AEF81F885E00FF11F10822E96E4E0F9
:101540000C945D0DABE0B0E0E8EAFAE00C94330DEA
:101550006C017B018A01FC0117821682838181FF65
:10156000CCC1CE0101963C01F6019381F70193FDB8
:10157000859193FF81917F01882309F4BAC1853257
:1015800039F493FD859193FF81917F01853229F490
:10159000B60190E00E94990CE7CF912C212C312CC0
:1015A000FFE1F315D8F08B3279F038F4803279F01E
:1015B0008332A1F4232D20611DC08D3261F0803370
:1015C00069F4232D216016C0832D8260382EE32D0F
:1015D000E4603E2E2AC0F32DF8601DC037FC2DC0FC
:1015E00020ED280F2A3040F08E32B9F436FC81C14C
:1015F000232D2064322E19C036FE06C08AE0989E44
:10160000200D1124922E11C0EAE02E9E200D1124EF
:10161000222EF32DF0623F2E08C08C3621F4832D4C
:101620008068382E02C0883641F4F70193FD859119
:1016300093FF81917F018111B3CF982F9F7D9554A6
:10164000933028F40C5F1F4F9FE399830DC08336BE
:1016500031F0833771F0833509F059C021C0F801AA
:10166000808189830E5F1F4F88248394912C5301BE
:1016700013C02801F2E04F0E511CF801A080B18088
:1016800036FE03C0692D70E002C06FEF7FEFC50129
:101690000E948E0C4C018201F32DFF773F2E16C065
:1016A000280122E0420E511CF801A080B18036FED4
:1016B00003C0692D70E002C06FEF7FEFC5010E948B
:1016C000830C4C01F32DF0683F2E820133FC1BC0CC
:1016D000822D90E088169906B0F4B60180E290E081
:1016E0000E94990C2A94F4CFF50137FC859137FEBE
:1016F00081915F01B60190E00E94990C21102A941B
:1017000021E0821A91088114910471F7E8C08436AF
:1017100011F0893641F5F80137FE07C0608171810B
:10172000828193810C5F1F4F08C060817181072EF9
:10173000000C880B990B0E5F1F4FF32DFF763F2E89
:1017400097FF09C090958095709561957F4F8F4F59
:101750009F4FF0683F2E2AE030E0A3010E94D50C95
:10176000882E861845C0853731F4232D2F7EB22E62
:101770002AE030E025C0932D997FB92E8F36C1F035
:1017800018F4883579F0B5C0803719F0883721F022
:10179000B0C0E92FE061BE2EB4FE0DC0FB2DF46099
:1017A000BF2E09C034FE0AC0292F2660B22E06C003
:1017B00028E030E005C020E130E002C020E132E066
:1017C000F801B7FE07C060817181828193810C5F4F
:1017D0001F4F06C06081718180E090E00E5F1F4F57
:1017E000A3010E94D50C882E8618FB2DFF773F2E73
:1017F00036FE0DC0232D2E7FA22E891458F434FE00
:101800000BC032FC09C0832D8E7EA82E05C0B82CDB
:10181000A32C03C0B82C01C0B92CA4FE0FC0FE013C
:10182000E80DF11D8081803321F49A2D997EA92E37
:1018300009C0A2FE06C0B394B39404C08A2D867872
:1018400009F0B394A3FC11C0A0FE06C0B21488F442
:10185000280C922C9B180EC0B21460F4B60180E2E2
:1018600090E00E94990CB394F7CFB21418F42B189F
:1018700002C0982C212CA4FE10C0B60180E390E099
:101880000E94990CA2FE17C0A1FC03C088E790E05B
:1018900002C088E590E0B6010CC08A2D867859F028
:1018A000A1FE02C08BE201C080E2A7FC8DE2B6017E
:1018B00090E00E94990C891438F4B60180E390E01E
:1018C0000E94990C9A94F7CF8A94F301E80DF11DC8
:1018D0008081B60190E00E94990C8110F5CF222002
:1018E00009F442CEB60180E290E00E94990C2A945D
:1018F000F6CFF6018681978102C08FEF9FEF2B967E
:10190000E2E10C944F0DFC01059061507040011014
:10191000D8F7809590958E0F9F1F0895FC01615018
:10192000704001900110D8F7809590958E0F9F1F01
:1019300008950F931F93CF93DF93FB01238121FD24
:1019400003C08FEF9FEF2CC022FF16C04681578146
:10195000248135814217530744F4A081B1819D0150
:101960002F5F3F4F318320838C93268137812F5FF8
:101970003F4F3783268314C08B01EC01FB010084A9
:10198000F185E02D0995892BE1F6D80116968D9108
:101990009C911797019617969C938E931697CE015C
:1019A000DF91CF911F910F910895FA01AA27283056
:1019B00051F1203181F1E8946F936E7F6E5F7F4F1C
:1019C0008F4F9F4FAF4FB1E03ED0B4E03CD0670F98
:1019D000781F891F9A1FA11D680F791F8A1F911DEB
:1019E000A11D6A0F711D811D911DA11D20D009F43B
:1019F00068943F912AE0269F11243019305D31937D
:101A0000DEF6CF010895462F4770405D4193B3E065
:101A10000FD0C9F7F6CF462F4F70405D4A3318F00C
:101A2000495D31FD4052419302D0A9F7EACFB4E0BD
:101A3000A6959795879577956795BA95C9F7009775
:101A40006105710508959B01AC010A2E0694579516
:101A5000479537952795BA95C9F7620F731F841F6D
:101A6000951FA01D08952F923F924F925F926F9203
:101A70007F928F929F92AF92BF92CF92DF92EF921E
:101A8000FF920F931F93CF93DF93CDB7DEB7CA1B9F
:101A9000DB0B0FB6F894DEBF0FBECDBF09942A88CA
:101AA000398848885F846E847D848C849B84AA8472
:101AB000B984C884DF80EE80FD800C811B81AA81FF
:101AC000B981CE0FD11D0FB6F894DEBF0FBECDBFCA
:081AD000ED010895F894FFCF29
:101AD8004C3A25336400523A2533640061646472D9
:101AE8004E41434B0077725F4E41434B0072656134
:061AF800644E41434B0067
:00000001FF
