:100000000C9458000C9475000C9475000C947500B9
:100010000C9475000C9475000C9475000C940B06F0
:100020000C9475000C9475000C9475000C9475007C
:100030000C9475000C9475000C9475000C9475006C
:100040000C9475000C9475000C9475000C9475005C
:100050000C9475000C9475000C947500D806D806A5
:10006000E306E306EF06F406F406F606F606F606E1
:100070000207C806C806D406240724073407340735
:100080004407580758074807480748075A071407FE
:100090001407100797079707A707A707B707CB0706
:1000A000CB07BB07BB07BB07CD07870787078307BE
:1000B00011241FBECFEFD0E1DEBFCDBF11E0A0E025
:1000C000B1E0E2E5FBE102C005900D92A232B1077A
:1000D000D9F721E0A2E2B1E001C01D92AB33B20733
:1000E000E1F70E9422080C94A70D0C9400004F9297
:1000F0005F926F927F928F929F92AF92BF92CF92B8
:10010000DF92EF92FF92CF93DF93EC01BC01990F46
:10011000880B990B0E944E096B017C0120912601EE
:100120003091270140912801509129010E94A50892
:100130004B015C0120E030E048EC52E40E94FE09F3
:1001400018160CF05FC080E090E0A8ECB2E4809359
:10015000260190932701A0932801B0932901812CB7
:10016000912C90EAA92E90E4B92E809124019091CF
:100170002501BE01681B790B072E000C880B990B1B
:100180000E944E092DEC3CEC4CEC5DE30E94030A0E
:100190002B013C012DEC3CEC4CE45FE3C701B601C4
:1001A0000E94030AA50194010E94A5089B01AC01CD
:1001B000C301B2010E94A50820E030E04EEF52E4F6
:1001C0000E94A5086B017C0120E030E04DE153E482
:1001D0000E94FE0918160CF045C08DE990E0D093FE
:1001E0002501C0932401DF91CF91FF90EF90DF9024
:1001F000CF90BF90AF909F908F907F906F905F90C7
:100200004F90089520E030E048EC52ECC501B40175
:100210000E94110987FF13C080E090E0A8ECB2ECC7
:100220008093260190932701A0932801B093290180
:10023000812C912C80EAA82E80ECB82E96CF80924B
:10024000260190922701A0922801B09229012DEC5D
:100250003CEC4CE45DE3C501B4010E94030A4B0190
:100260005C0183CF20E030E042EC52E4C701B601EC
:100270000E94110987FF03C081E690E0B0CFC7015B
:10028000B6010E94700A0E941609CB01A8CFCF9335
:10029000DF938CE99FEF0E947700D82F84E690E0EF
:1002A0000E947700C82F6D2F82E00E946F066C2F8E
:1002B00083E0DF91CF910C946F06CF93DF938BEFA8
:1002C0009FEF0E947700D82F87EE9FEF0E94770064
:1002D000C82F6D2F82E00E946F066C2F83E0DF91A4
:1002E000CF910C946F06CF93DF9382E390E00E944E
:1002F0007700D82F8AE090E00E947700C82F6D2FFA
:1003000082E00E946F066C2F83E0DF91CF910C9406
:100310006F066FE782E00E946F066FE783E00C9440
:100320006F060E945D012FEF89E698E12150804021
:100330009040E1F700C0000008958E9764F40E9499
:100340005D012FEF89E698E1215080409040E1F770
:1003500000C0000008950C944701EAE7F0E08081B6
:1003600087688083ECE7F0E0808180668083089571
:1003700090917C00987F90937C0090917C00892BD9
:1003800080937C0080917A00806480937A008091D1
:100390007A0086FDFCCF8091790008958DB18F7C25
:1003A0008DB985E08A95F1F700006D9A759885E022
:1003B0008A95F1F700006C9A749885E08A95F1F7B8
:1003C000000008956C9885E08A95F1F700006D981B
:1003D00085E08A95F1F7000008956D9885E08A958B
:1003E000F1F7000065990DC06C9885E08A95F1F7EA
:1003F00000006C9A749885E08A95F1F70000659B7F
:10040000F3CF6C9808956C9885E08A95F1F7000019
:100410006C9A749885E08A95F1F7000008951F930F
:10042000CF93DF93D82FC62F142F0E94ED010E9487
:10043000CE0187E013C06D9895E09A95F1F7000022
:100440006C9895E09A95F1F700006C9A749895E095
:100450009A95F1F70000DD0F815029F0D6FDEBCF22
:100460006D9A7598E9CF6D9A759885E08A95F1F740
:1004700000006C9895E09A95F1F700006C9A7498DA
:1004800085E08A95F1F700006D9895E09A95F1F76F
:1004900000006C98659B05C087E091E00E94F00425
:1004A000FFCF85E08A95F1F700006C9A749895E08B
:1004B0009A95F1F7000088E014C06D9A759895E060
:1004C0009A95F1F700006C9895E09A95F1F7000085
:1004D0006C9A749895E09A95F1F70000CC0F8150D2
:1004E00021F0C7FFEACF6D98EACF6D9885E08A9535
:1004F000F1F700006C98659B05C083E191E00E94D4
:10050000F004FFCF95E09A95F1F700006C9A74988B
:1005100085E08A95F1F70000112351F06C9895E081
:100520009A95F1F700006D9885E08A95F1F7000043
:10053000DF91CF911F910895FC016623D1F14FEF18
:10054000460F50E04F5F5F4F480F591F908128E0E2
:1005500016C06D9A759885E08A95F1F700006C9841
:1005600085E08A95F1F700006C9A749885E08A9589
:10057000F1F700009081990F9083215021F097FFAF
:10058000E8CF6D98E8CF31966D9885E08A95F1F7C0
:1005900000006C98659918C085E08A95F1F7000015
:1005A0006C9A749885E08A95F1F70000E417F507D6
:1005B00069F66C9885E08A95F1F700006D9885E002
:1005C0008A95F1F70000089580E191E00E94F0041F
:1005D000FFCF0F931F93CF93DF93082FEB01142FBF
:1005E0000E94CE0187E013C06D9895E09A95F1F7CF
:1005F00000006C9895E09A95F1F700006C9A749859
:1006000095E09A95F1F70000000F815029F006FD62
:10061000EBCF6D9A7598E9CF6D9885E08A95F1F7E3
:1006200000006C9895E09A95F1F700006C9A749828
:1006300085E08A95F1F700006D9895E09A95F1F7BD
:1006400000006C98659B05C088E191E00E94F00471
:10065000FFCF85E08A95F1F700006C9A749895E0D9
:100660009A95F1F700006D9885E08A95F1F7000002
:100670001123B1F12FEF210F30E02F5F3F4F2C0FEF
:100680003D1F98E08881880F88836C9885E08A9563
:10069000F1F70000659B03C088818160888385E055
:1006A0008A95F1F700006C9A749885E08A95F1F7C5
:1006B0000000915039F76D9A759895E09A95F1F789
:1006C00000006C9885E08A95F1F700006C9A7498A8
:1006D00095E09A95F1F7000021962C173D0789F6D1
:1006E00095E09A95F1F700006C9885E08A95F1F70E
:1006F00000006D9895E09A95F1F70000DF91CF9199
:100700001F910F910895CF93DF931F92CDB7DEB75E
:10071000498340E00E940F0261E0CE0101960E94F1
:100720009C020F90DF91CF9108951F93CF93DF9399
:100730001F92CDB7DEB7182F41E00E940F0241E0B3
:10074000BE016F5F7F4F812F0E94E90289810F9068
:10075000DF91CF911F91089561E08CE10C94950396
:1007600063E08CE10C94950365E08CE10C949503B7
:100770008AE08A95F1F700C0449A8AE08A95F1F7F9
:1007800000C044988AE08A95F1F700C00895F89473
:1007900082B98AE08A95F1F700C0449A8AE08A9586
:1007A000F1F700C044988AE08A95F1F700C0789488
:1007B00008958F98F89482B98AE08A95F1F700C07D
:1007C000449A8AE08A95F1F700C044988AE08A95B5
:1007D000F1F700C0789408958F9AF89482B98AE06E
:1007E0008A95F1F700C0449A8AE08A95F1F700C033
:1007F00044988AE08A95F1F700C078940895803192
:1008000010F4623008F0089590E4699F800D11247F
:1008100080588F98F89482B98AE08A95F1F700C0E1
:10082000449A9AE09A95F1F700C044988AE08A9534
:10083000F1F700C0789495EC9A95F1F700000895CF
:100840003C9A879A8FEF81B98FE19EE40197F1F787
:1008500000C000008F98F89488E382B99AE09A95D6
:10086000F1F700C0449AEAE0EA95F1F700C0449835
:10087000FAE0FA95F1F700C07894EFE7F2E03197EB
:10088000F1F700C000008F98F89482B9FAE0FA9569
:10089000F1F700C0449A9AE09A95F1F700C04498A5
:1008A000EAE0EA95F1F700C07894EFE7F2E03197DB
:1008B000F1F700C000008F98F89482B9FAE0FA9539
:1008C000F1F700C0449A9AE09A95F1F700C0449875
:1008D000EAE0EA95F1F700C07894EFE7F2E03197AB
:1008E000F1F700C000008F98F89498E092B9FAE010
:1008F000FA95F1F700C0449A9AE09A95F1F700C092
:100900004498EAE0EA95F1F700C07894EFE7F2E066
:100910003197F1F700C000008F98F89491E092B9F8
:10092000FAE0FA95F1F700C0449A9AE09A95F1F747
:1009300000C04498EAE0EA95F1F700C07894EFE748
:10094000FEE33197F1F700C000008F98F89496E02D
:1009500092B9FAE0FA95F1F700C0449A9AE09A95B4
:10096000F1F700C04498EAE0EA95F1F700C0789406
:10097000EFE7F2E03197F1F700C000008F98F894AC
:1009800082B9FAE0FA95F1F700C0449A8AE08A95B4
:10099000F1F700C044989AE09A95F1F700C0789476
:1009A000EFE8F1E03197F1F700C000008F98F8947C
:1009B0008CE082B9FAE0FA95F1F700C0449A8AE037
:1009C0008A95F1F700C044989AE09A95F1F700C033
:1009D0007894EFE8F1E03197F1F700C00000089556
:1009E000DC019C91992301F120E08F9AF89492B94F
:1009F0008AE08A95F1F700C0449A9AE09A95F1F757
:100A000000C044988AE08A95F1F700C078948FE797
:100A100092E00197F1F700C000002F5FFD01E20FA7
:100A2000F11D90819111E1CF08951F93CF93DF9332
:100A3000FC01892B09F466C045E011E02FE037E2A4
:100A4000E9012196CF01BE010E94670861111DC016
:100A50002E173F0708F052C01123A9F111E0CF0172
:100A6000BE010E946708FC01ADECBCEC0E94950839
:100A70009C013695279536952795369527954150B3
:100A8000F9F6DF91CF911F9108952E173F07D8F007
:100A9000605D8F9AF89462B99AE09A95F1F700C078
:100AA000449A8AE08A95F1F700C044989AE09A95B2
:100AB000F1F700C078948FE792E00197F1F700C05A
:100AC000000010E0D1CF605D8F9AF89462B99AE08F
:100AD0009A95F1F700C0449A8AE08A95F1F700C030
:100AE00044989AE09A95F1F700C078948FE792E0E5
:100AF0000197F1F700C0000010E0B1CF112341F2DF
:100B000011E0B2CF8F9AF89480E382B98AE08A9597
:100B1000F1F700C0449A9AE09A95F1F700C0449822
:100B20008AE08A95F1F700C078948FE792E0019708
:100B3000F1F700C00000DF91CF911F9108958F98C9
:100B4000F89481E082B98AE08A95F1F700C0449A6E
:100B50009AE09A95F1F700C044988AE08A95F1F7F7
:100B600000C078948FE79EE30197F1F700C0000082
:100B700008955D9A5C980895262F3FEF81110EC06D
:100B80006303C001112464E670E00E947B08609357
:100B9000B30012169CF45C9A5D9808956303C0013B
:100BA000112464E670E00E947B0867BD12161CF4F5
:100BB0005E9A5F9808955F9A5E9808950C94B905BF
:100BC000CF93DF93C3EBD0E018820E94B90517BC26
:100BD0005F9A5E9884B1806984B98AB1806F8AB95E
:100BE000E0EBF0E080818866808380818260808392
:100BF00084B5886684BD84B5826084BD8AE087BD83
:100C00008883DF91CF9108955C9A5D982C9A5F9AC2
:100C10005E982F9A08951F920F920FB60F9211248B
:100C20002F933F934F935F936F937F938F939F93F4
:100C3000EF93FF9380912A014091880050918900A1
:100C400080FD30C08695E82FF0E0EE0FFF1FED5CD1
:100C5000FE4F20813181240F351F3093890020936E
:100C6000880048B121E030E0B90102C0660F771F6B
:100C70008A95E2F7CB01842B88B980912A018F5F96
:100C8000877080932A01FF91EF919F918F917F91BF
:100C90006F915F914F913F912F910F900FBE0F90E9
:100CA0001F9018958695E82FF0E0EE0FFF1FE55D89
:100CB000FE4F20813181240F351F3093890020930E
:100CC000880048B121E030E0B90102C0660F771F0B
:100CD0008A95E2F7CB018095842388B9CECF90E046
:100CE0002AE0629FB00111246C53764F880F991F40
:100CF000FC01ED5CFE4F71836083FC01E55DFE4FFE
:100D000024ED30E3261B370B318320830895A3E3C2
:100D1000B1E024EC39E011963C932E93EBE2F1E044
:100D200080E197E29183808313963C932E931297F0
:100D30009383828315963C932E9314979583848393
:100D400017963C932E9316979783868387B18F606F
:100D500087B9E1E8F0E01082808182608083EFE66D
:100D6000F0E0808182608083789408958CB18095D2
:100D7000881F8827881F0895482F50E04E3051055E
:100D800010F080E00895FA01E25DFF4F0C948F08A7
:100D900023B130E08950A90102C0559547958A9545
:100DA000E2F7CA018170089583B186958170089534
:100DB0002CB130E0A90102C0559547958A95E2F71C
:100DC000CA018170089522B330E08F5FA90102C08B
:100DD000559547958A95E2F7CA01817008958CB1BF
:100DE00086FB882780F9089523B1E3CF26B130E050
:100DF0008250A90102C0559547958A95E2F7CA012C
:100E00008170089583B181700895962F482F50E026
:100E10004E30510540F4FA01E45CFF4F0C948F080A
:100E2000611164C02198089544B1895021E030E0F7
:100E3000B90102C0660F771F8A95E2F79923F1F195
:100E4000CB01842B84B908954DB121E030E0B90184
:100E500002C0660F771F8A95E2F7992309F43FC015
:100E6000CB01842B8DB9089543B38F5F21E030E02F
:100E7000B90102C0660F771F8A95E2F7992329F11D
:100E8000CB01842B83BB08956623E9F06E9A089505
:100E900047B1825021E030E0B90102C0660F771FF0
:100EA0008A95E2F79923B1F0CB01842B87B9089595
:100EB00044B1BCCF6623C1F0209A0895CB01809540
:100EC000842384B908956E980895CB018095842376
:100ED00083BB0895CB018095842387B90895CB0106
:100EE000809584238DB9089520980895219A0895B6
:100EF000962F482F50E04E30510540F4FA01E65B42
:100F0000FF4F0C948F08611164C02998089545B172
:100F1000895021E030E0B90102C0660F771F8A9541
:100F2000E2F79923F1F1CB01842B85B908954EB1F5
:100F300021E030E0B90102C0660F771F8A95E2F721
:100F4000992309F43FC0CB01842B8EB9089544B393
:100F50008F5F21E030E0B90102C0660F771F8A95EC
:100F6000E2F7992329F1CB01842B84BB08956623F2
:100F7000E9F0769A089548B1825021E030E0B90155
:100F800002C0660F771F8A95E2F79923B1F0CB0173
:100F9000842B88B9089545B1BCCF6623C1F0289A47
:100FA0000895CB018095842385B908957698089596
:100FB000CB018095842384BB0895CB018095842345
:100FC00088B90895CB01809584238EB90895289817
:100FD0000895299A0895811104C0613031F0A098D4
:100FE0000895613021F0A1980895A09A0895A19ADA
:100FF0000895882311F0A19A0895A09A089588234E
:1010000011F0A1980895A0980895529A83B383602F
:1010100083BB779A0E94AD010E9420040E9487063C
:101020000E94E00541E06AE28CE10E9483032FEF19
:1010300081EE94E0215080409040E1F700C0000034
:101040000C94ED01CF93DF93CDB7DEB761970FB668
:10105000F894DEBF0FBECDBF0E9405080E94200499
:101060000E948706CE0101966C0180E0E82E81E0A7
:10107000F82E80E00E94B801182F60E080E00E9406
:10108000FF03A12EB12C1F921F93FF92EF92DF92CC
:10109000CF920E94BD0AC6010E94F0040F900F90EB
:1010A0000F900F900F900F909EE2A916B1041CF0C4
:1010B0000E944701DECF0E945D012FEF89E698E193
:1010C000215080409040E1F700C00000D2CFAA1B21
:1010D000BB1B51E107C0AA1FBB1FA617B70710F023
:1010E000A61BB70B881F991F5A95A9F78095909555
:1010F000BC01CD01089597FB072E16F4009407D08C
:1011000077FD09D00E94670807FC05D03EF4909552
:1011100081959F4F0895709561957F4F0895EE0FCB
:10112000FF1F0590F491E02D0994A29FB001B39F99
:10113000C001A39F700D811D1124911DB29F700DE0
:10114000811D1124911D08955058BB27AA270E9484
:10115000BC080C94C4090E94B60938F00E94BD096D
:1011600020F039F49F3F19F426F40C94B3090EF4DF
:10117000E095E7FB0C94AD09E92F0E94D50958F3DF
:10118000BA17620773078407950720F079F4A6F56C
:101190000C94F7090EF4E0950B2EBA2FA02D0B013D
:1011A000B90190010C01CA01A0011124FF27591BAC
:1011B00099F0593F50F4503E68F11A16F040A22FB2
:1011C000232F342F4427585FF3CF46953795279523
:1011D000A795F0405395C9F77EF41F16BA0B620B22
:1011E000730B840BBAF09150A1F0FF0FBB1F661F69
:1011F000771F881FC2F70EC0BA0F621F731F841FAC
:1012000048F4879577956795B795F7959E3F08F0D1
:10121000B0CF9395880F08F09927EE0F9795879593
:1012200008950E94890908F481E008950E941D092B
:101230006894B1110C94F80908950E94DD0988F0B2
:101240009F5798F0B92F9927B751B0F0E1F0660F8A
:10125000771F881F991F1AF0BA95C9F714C0B130CB
:1012600091F00E94F709B1E008950C94F709672FF7
:10127000782F8827B85F39F0B93FCCF386957795FA
:101280006795B395D9F73EF49095809570956195E3
:101290007F4F8F4F9F4F0895E89409C097FB3EF40E
:1012A00090958095709561957F4F8F4F9F4F9923B3
:1012B000A9F0F92F96E9BB279395F6958795779531
:1012C0006795B795F111F8CFFAF4BB0F11F460FFF1
:1012D0001BC06F5F7F4F8F4F9F4F16C0882311F049
:1012E00096E911C0772321F09EE8872F762F05C05D
:1012F000662371F096E8862F70E060E02AF09A95F8
:10130000660F771F881FDAF7880F9695879597F9EC
:101310000895990F0008550FAA0BE0E8FEEF161686
:101320001706E807F907C0F012161306E407F507D9
:1013300098F0621B730B840B950B39F40A2661F04D
:10134000232B242B252B21F408950A2609F4A140F0
:10135000A6958FEF811D811D089597F99F6780E8FD
:1013600070E060E008959FEF80EC089500240A94F7
:101370001616170618060906089500240A94121670
:101380001306140605060895092E0394000C11F4A3
:10139000882352F0BB0F40F4BF2B11F460FF04C050
:1013A0006F5F7F4F8F4F9F4F089557FD9058440FA9
:1013B000551F59F05F3F71F04795880F97FB991FB4
:1013C00061F09F3F79F08795089512161306140671
:1013D000551FF2CF4695F1DF08C0161617061806FE
:1013E000991FF1CF86957105610508940895E894D9
:1013F000BB2766277727CB0197F908950E948909B3
:1014000008F48FEF08950E94160A0C94C4090E94F4
:10141000B60938F00E94BD0920F0952311F00C9414
:10142000AD090C94B30911240C94F8090E94D50954
:1014300070F3959FC1F3950F50E0551F629FF00127
:10144000729FBB27F00DB11D639FAA27F00DB11D40
:10145000AA1F649F6627B00DA11D661F829F2227C9
:10146000B00DA11D621F739FB00DA11D621F839F50
:10147000A00D611D221F749F3327A00D611D231F26
:10148000849F600D211D822F762F6A2F11249F5774
:1014900050409AF0F1F088234AF0EE0FFF1FBB1F77
:1014A000661F771F881F91505040A9F79E3F510536
:1014B00080F00C94AD090C94F8095F3FE4F3983E7A
:1014C000D4F3869577956795B795F795E7959F5FE0
:1014D000C1F7FE2B880F911D9695879597F9089572
:1014E0000E94DD09E8F09E37E8F09639B8F49E389E
:1014F00048F4672F782F8827985FF9CF86957795DE
:10150000679593959539D0F3B62FB1706B0F711D18
:10151000811D20F487957795679593950C94940A8F
:101520000C94AF0A0C94F809882371F4772321F006
:101530009850872B762F07C0662311F499270DC08A
:101540009051862B70E060E02AF09A95660F771F25
:10155000881FDAF7880F9695879597F908959F3F2A
:1015600031F0915020F4879577956795B795880F5E
:10157000911D9695879597F90895AEE0B0E0E3EC5C
:10158000FAE00C947E0D0D891E8986E08C831A8307
:1015900009838FEF9FE79E838D83AE01475E5F4F88
:1015A0006F89788DCE0101960E94DF0AEF81F88560
:1015B000E00FF11F10822E96E4E00C949A0DABE040
:1015C000B0E0E5EEFAE00C94700D6C017B018A014D
:1015D000FC0117821682838181FFCCC1CE01019666
:1015E0003C01F6019381F70193FD859193FF819171
:1015F0007F01882309F4BAC1853239F493FD8591BE
:1016000093FF81917F01853229F4B60190E00E9419
:10161000D60CE7CF912C212C312CFFE1F315D8F01B
:101620008B3279F038F4803279F08332A1F4232DB3
:1016300020611DC08D3261F0803369F4232D21605B
:1016400016C0832D8260382EE32DE4603E2E2AC022
:10165000F32DF8601DC037FC2DC020ED280F2A3077
:1016600040F08E32B9F436FC81C1232D2064322E35
:1016700019C036FE06C08AE0989E200D1124922ED5
:1016800011C0EAE02E9E200D1124222EF32DF062CF
:101690003F2E08C08C3621F4832D8068382E02C07E
:1016A000883641F4F70193FD859193FF81917F0185
:1016B0008111B3CF982F9F7D9554933028F40C5F00
:1016C0001F4F9FE399830DC0833631F0833771F04C
:1016D000833509F059C021C0F801808189830E5FEC
:1016E0001F4F88248394912C530113C02801F2E0EA
:1016F0004F0E511CF801A080B18036FE03C0692D49
:1017000070E002C06FEF7FEFC5010E94CB0C4C016F
:101710008201F32DFF773F2E16C0280122E0420EF2
:10172000511CF801A080B18036FE03C0692D70E025
:1017300002C06FEF7FEFC5010E94C00C4C01F32D7A
:10174000F0683F2E820133FC1BC0822D90E088168A
:101750009906B0F4B60180E290E00E94D60C2A947B
:10176000F4CFF50137FC859137FE81915F01B60119
:1017700090E00E94D60C21102A9421E0821A910850
:101780008114910471F7E8C0843611F0893641F56F
:10179000F80137FE07C060817181828193810C5FFF
:1017A0001F4F08C060817181072E000C880B990BB8
:1017B0000E5F1F4FF32DFF763F2E97FF09C09095C8
:1017C0008095709561957F4F8F4F9F4FF0683F2EAA
:1017D0002AE030E0A3010E94120D882E861845C031
:1017E000853731F4232D2F7EB22E2AE030E025C03C
:1017F000932D997FB92E8F36C1F018F4883579F082
:10180000B5C0803719F0883721F0B0C0E92FE0610A
:10181000BE2EB4FE0DC0FB2DF460BF2E09C034FEF9
:101820000AC0292F2660B22E06C028E030E005C08D
:1018300020E130E002C020E132E0F801B7FE07C04D
:1018400060817181828193810C5F1F4F06C060812E
:10185000718180E090E00E5F1F4FA3010E94120D86
:10186000882E8618FB2DFF773F2E36FE0DC0232DC8
:101870002E7FA22E891458F434FE0BC032FC09C00E
:10188000832D8E7EA82E05C0B82CA32C03C0B82CA7
:1018900001C0B92CA4FE0FC0FE01E80DF11D80812E
:1018A000803321F49A2D997EA92E09C0A2FE06C08C
:1018B000B394B39404C08A2D867809F0B394A3FC42
:1018C00011C0A0FE06C0B21488F4280C922C9B18FC
:1018D0000EC0B21460F4B60180E290E00E94D60C13
:1018E000B394F7CFB21418F42B1802C0982C212C03
:1018F000A4FE10C0B60180E390E00E94D60CA2FEC8
:1019000017C0A1FC03C088E790E002C088E590E022
:10191000B6010CC08A2D867859F0A1FE02C08BE278
:1019200001C080E2A7FC8DE2B60190E00E94D60CD7
:10193000891438F4B60180E390E00E94D60C9A94A2
:10194000F7CF8A94F301E80DF11D8081B60190E094
:101950000E94D60C8110F5CF222009F442CEB601A8
:1019600080E290E00E94D60C2A94F6CFF6018681A0
:10197000978102C08FEF9FEF2B96E2E10C948C0DC4
:10198000FC010590615070400110D8F7809590954A
:101990008E0F9F1F0895FC0161507040019001104F
:1019A000D8F7809590958E0F9F1F08950F931F93E2
:1019B000CF93DF93FB01238121FD03C08FEF9FEFC6
:1019C0002CC022FF16C046815781248135814217E1
:1019D000530744F4A081B1819D012F5F3F4F3183B4
:1019E00020838C93268137812F5F3F4F3783268357
:1019F00014C08B01EC01FB010084F185E02D0995F9
:101A0000892BE1F6D80116968D919C911797019636
:101A100017969C938E931697CE01DF91CF911F91CD
:101A20000F910895FA01AA27283051F1203181F150
:101A3000E8946F936E7F6E5F7F4F8F4F9F4FAF4FD6
:101A4000B1E03ED0B4E03CD0670F781F891F9A1FE9
:101A5000A11D680F791F8A1F911DA11D6A0F711D9D
:101A6000811D911DA11D20D009F468943F912AE0A9
:101A7000269F11243019305D3193DEF6CF01089591
:101A8000462F4770405D4193B3E00FD0C9F7F6CFC2
:101A9000462F4F70405D4A3318F0495D31FD40528A
:101AA000419302D0A9F7EACFB4E0A6959795879520
:101AB00077956795BA95C9F70097610571050895FF
:101AC0009B01AC010A2E06945795479537952795AB
:101AD000BA95C9F7620F731F841F951FA01D089543
:101AE0002F923F924F925F926F927F928F929F922E
:101AF000AF92BF92CF92DF92EF92FF920F931F931C
:101B0000CF93DF93CDB7DEB7CA1BDB0B0FB6F894CC
:101B1000DEBF0FBECDBF09942A88398848885F840C
:101B20006E847D848C849B84AA84B984C884DF807D
:101B3000EE80FD800C811B81AA81B981CE0FD11D61
:101B40000FB6F894DEBF0FBECDBFED010895F89437
:021B5000FFCFC5
:101B52004C523A25336400616464724E41434B0037
:101B620077725F4E41434B00726561644E41434B55
:021B7200000071
:00000001FF
