:100000000C9458000C9475000C9487000C949E007E
:100010000C9475000C9475000C9475000C943B07BF
:100020000C9475000C9475000C9475000C9475007C
:100030000C9475000C9475000C9475000C9475006C
:100040000C9475000C9475000C9475000C9475005C
:100050000C9475000C9475000C9475000808080841
:10006000130813081F082408240826082608260851
:100070003208F807F80704085408540864086408AC
:100080007408880888087808780878088A08440876
:1000900044084008C708C708D708D708E708FB087E
:1000A000FB08EB08EB08EB08FD08B708B708B30836
:1000B00011241FBECFEFD0E1DEBFCDBF11E0A0E025
:1000C000B1E0E0E6F4E102C005900D92AA36B10776
:1000D000D9F721E0AAE6B1E001C01D92A038B2072D
:1000E000E1F70E9452090C942E0A0C9400008DB383
:1000F00080638DBBECE6F0E0808180628083EBE67C
:10010000F0E0808180648083769A2D9A08951F9212
:100110000F920FB60F9211248F939F9380916D01D0
:1001200090916E01019690936E0180936D019F9165
:100130008F910F900FBE0F901F9018951F920F92E6
:100140000FB60F9211248F939F9380916B01909122
:100150006C01019690936C0180936B019F918F913C
:100160000F900FBE0F901F9018950E94CF0660E071
:1001700080E00E942F0580E091E00E94200680919F
:100180006D0190916E010E94450661E080E00E9441
:100190002F0583E091E00E94200680916B019091F1
:1001A0006C010C9445066FE782E00E949F076FE7A1
:1001B00083E00C949F07CF93DF93EC0110926E01C4
:1001C00010926D0110926C0110926B0161EB82E054
:1001D0000E949F076BE683E00E949F0780916D015C
:1001E00090916E018C179D0798F019C00E94B50080
:1001F0002FEF81EE94E0215080409040E1F700C065
:10020000000080916D0190916E018C179D0738F46C
:1002100080916B0190916C018C179D0738F3DF91F1
:10022000CF910C94D300CF93DF93EC0110926E0129
:1002300010926D0110926C0110926B016DE982E0D9
:100240000E949F0780916B0190916C018C179D0714
:1002500090F40E94B5002FEF81EE94E02150804091
:100260009040E1F700C0000080916B0190916C011B
:100270008C179D0770F3DF91CF910C94D300CF932F
:10028000DF93EC0110926E0110926D0110926C01DF
:1002900010926B0161E683E00E949F0780916D01DF
:1002A00090916E018C179D0790F40E94B5002FEF7E
:1002B00081EE94E0215080409040E1F700C00000C2
:1002C00080916D0190916E018C179D0770F3DF9105
:1002D000CF910C94D300CF93DF93EC0110926E0179
:1002E00010926D0110926C0110926B0161E682E038
:1002F0000E949F0780916B0190916C018C179D0764
:1003000090F40E94B5002FEF81EE94E021508040E0
:100310009040E1F700C0000080916B0190916C016A
:100320008C179D0770F3DF91CF910C94D300CF937E
:10033000DF93EC0110926E0110926D0110926C012E
:1003400010926B016DE983E00E949F0780916D011F
:1003500090916E018C179D0790F40E94B5002FEFCD
:1003600081EE94E0215080409040E1F700C0000011
:1003700080916D0190916E018C179D0770F3DF9154
:10038000CF910C94D3000E94CF0660E080E00E94E1
:100390002F0586E091E00E9420062FEF83ED90E389
:1003A000215080409040E1F700C000008FE590E0D0
:1003B0000E94DB000E94D3002FEF83ED90E32150D9
:1003C00080409040E1F700C0000082E390E00E948E
:1003D00013010E94D3002FEF83ED90E32150804062
:1003E0009040E1F700C0000085E590E00E94DB004E
:1003F0000E94D3002FEF83ED90E321508040904086
:10040000E1F700C000008AE290E00E9413010E9420
:10041000D3002FEF83ED90E3215080409040E1F72F
:1004200000C000008BE490E00E94DB000E94D3003B
:100430002FEF83ED90E3215080409040E1F700C022
:10044000000082E390E00E9413010C94D3000E940C
:10045000CF0660E080E00E942F0585E191E00E94D8
:1004600020062FEF83ED90E3215080409040E1F78C
:1004700000C000008FE590E00E94DB000E94D300E6
:100480002FEF83ED90E3215080409040E1F700C0D2
:1004900000008BE490E00E9413010E94D3002FEF34
:1004A00083ED90E3215080409040E1F700C00000D0
:1004B00089E690E00E94DB000E94D3002FEF83EDDD
:1004C00090E3215080409040E1F700C0000088E2B6
:1004D00090E00E943F010E94D3002FEF83ED90E354
:1004E000215080409040E1F700C0000088E290E099
:1004F0000E946B010E94D3002FEF83ED90E3215007
:1005000080409040E1F700C000008EE590E00E943E
:10051000DB000E94D3002FEF83ED90E32150804059
:100520009040E1F700C0000088E290E00E943F01A7
:100530000E94D3002FEF83ED90E321508040904044
:10054000E1F700C000008DE290E00E946B010E9484
:10055000D3002FEF83ED90E3215080409040E1F7EE
:1005600000C0000080EA90E00E94DB000E94D300FF
:100570002FEF83ED90E3215080409040E1F700C0E1
:1005800000000E94CF0660E080E00E942F058CE111
:1005900091E00E9420062FEF87EA91E621508040EB
:1005A0009040E1F700C0000008956FE782E00E94EC
:1005B0009F076FE783E00C949F07EAE7F0E08081F4
:1005C00087688083ECE7F0E080818066808308950F
:1005D00090917C00987F90937C0090917C00892B77
:1005E00080937C0080917A00806480937A0080916F
:1005F0007A0086FDFCCF8091790008958DB18F7CC3
:100600008DB985E08A95F1F700006D9A759885E0BF
:100610008A95F1F700006C9A749885E08A95F1F755
:10062000000008956C9885E08A95F1F700006D98B8
:1006300085E08A95F1F7000008956D9885E08A9528
:10064000F1F7000065990DC06C9885E08A95F1F787
:1006500000006C9A749885E08A95F1F70000659B1C
:10066000F3CF6C9808956C9885E08A95F1F70000B7
:100670006C9A749885E08A95F1F7000008951F93AD
:10068000CF93DF93D82FC62F142F0E941D030E94F3
:10069000FE0287E013C06D9895E09A95F1F700008F
:1006A0006C9895E09A95F1F700006C9A749895E033
:1006B0009A95F1F70000DD0F815029F0D6FDEBCFC0
:1006C0006D9A7598E9CF6D9A759885E08A95F1F7DE
:1006D00000006C9895E09A95F1F700006C9A749878
:1006E00085E08A95F1F700006D9895E09A95F1F70D
:1006F00000006C98659B05C08FE491E00E94200685
:10070000FFCF85E08A95F1F700006C9A749895E028
:100710009A95F1F7000088E014C06D9A759895E0FD
:100720009A95F1F700006C9895E09A95F1F7000022
:100730006C9A749895E09A95F1F70000CC0F81506F
:1007400021F0C7FFEACF6D98EACF6D9885E08A95D2
:10075000F1F700006C98659B05C08BE591E00E9465
:100760002006FFCF95E09A95F1F700006C9A7498F7
:1007700085E08A95F1F70000112351F06C9895E01F
:100780009A95F1F700006D9885E08A95F1F70000E1
:10079000DF91CF911F910895FC016623D1F14FEFB6
:1007A000460F50E04F5F5F4F480F591F908128E080
:1007B00016C06D9A759885E08A95F1F700006C98DF
:1007C00085E08A95F1F700006C9A749885E08A9527
:1007D000F1F700009081990F9083215021F097FF4D
:1007E000E8CF6D98E8CF31966D9885E08A95F1F75E
:1007F00000006C98659918C085E08A95F1F70000B3
:100800006C9A749885E08A95F1F70000E417F50773
:1008100069F66C9885E08A95F1F700006D9885E09F
:100820008A95F1F70000089588E591E00E9420067E
:10083000FFCF0F931F93CF93DF93082FEB01142F5C
:100840000E94FE0287E013C06D9895E09A95F1F73B
:1008500000006C9895E09A95F1F700006C9A7498F6
:1008600095E09A95F1F70000000F815029F006FD00
:10087000EBCF6D9A7598E9CF6D9885E08A95F1F781
:1008800000006C9895E09A95F1F700006C9A7498C6
:1008900085E08A95F1F700006D9895E09A95F1F75B
:1008A00000006C98659B05C080E691E00E942006E0
:1008B000FFCF85E08A95F1F700006C9A749895E077
:1008C0009A95F1F700006D9885E08A95F1F70000A0
:1008D0001123B1F12FEF210F30E02F5F3F4F2C0F8D
:1008E0003D1F98E08881880F88836C9885E08A9501
:1008F000F1F70000659B03C088818160888385E0F3
:100900008A95F1F700006C9A749885E08A95F1F762
:100910000000915039F76D9A759895E09A95F1F726
:1009200000006C9885E08A95F1F700006C9A749845
:1009300095E09A95F1F7000021962C173D0789F66E
:1009400095E09A95F1F700006C9885E08A95F1F7AB
:1009500000006D9895E09A95F1F70000DF91CF9136
:100960001F910F910895CF93DF931F92CDB7DEB7FC
:10097000498340E00E943F0361E0CE0101960E945E
:10098000CC030F90DF91CF9108951F93CF93DF9306
:100990001F92CDB7DEB7182F41E00E943F0341E020
:1009A000BE016F5F7F4F812F0E94190489810F90D4
:1009B000DF91CF911F91089561E08CE10C94C50403
:1009C00063E08CE10C94C50465E08CE10C94C504F3
:1009D0008AE08A95F1F700C0449A8AE08A95F1F797
:1009E00000C044988AE08A95F1F700C00895F89411
:1009F00082B98AE08A95F1F700C0449A8AE08A9524
:100A0000F1F700C044988AE08A95F1F700C0789425
:100A100008958F98F89482B98AE08A95F1F700C01A
:100A2000449A8AE08A95F1F700C044988AE08A9552
:100A3000F1F700C0789408958F9AF89482B98AE00B
:100A40008A95F1F700C0449A8AE08A95F1F700C0D0
:100A500044988AE08A95F1F700C07894089580312F
:100A600010F4623008F0089590E4699F800D11241D
:100A700080588F98F89482B98AE08A95F1F700C07F
:100A8000449A9AE09A95F1F700C044988AE08A95D2
:100A9000F1F700C0789495EC9A95F1F7000008956D
:100AA0003C9A879A8FEF81B98FE19EE40197F1F725
:100AB00000C000008F98F89488E382B99AE09A9574
:100AC000F1F700C0449AEAE0EA95F1F700C04498D3
:100AD000FAE0FA95F1F700C07894EFE7F2E0319789
:100AE000F1F700C000008F98F89482B9FAE0FA9507
:100AF000F1F700C0449A9AE09A95F1F700C0449843
:100B0000EAE0EA95F1F700C07894EFE7F2E0319778
:100B1000F1F700C000008F98F89482B9FAE0FA95D6
:100B2000F1F700C0449A9AE09A95F1F700C0449812
:100B3000EAE0EA95F1F700C07894EFE7F2E0319748
:100B4000F1F700C000008F98F89498E092B9FAE0AD
:100B5000FA95F1F700C0449A9AE09A95F1F700C02F
:100B60004498EAE0EA95F1F700C07894EFE7F2E004
:100B70003197F1F700C000008F98F89491E092B996
:100B8000FAE0FA95F1F700C0449A9AE09A95F1F7E5
:100B900000C04498EAE0EA95F1F700C07894EFE7E6
:100BA000FEE33197F1F700C000008F98F89496E0CB
:100BB00092B9FAE0FA95F1F700C0449A9AE09A9552
:100BC000F1F700C04498EAE0EA95F1F700C07894A4
:100BD000EFE7F2E03197F1F700C000008F98F8944A
:100BE00082B9FAE0FA95F1F700C0449A8AE08A9552
:100BF000F1F700C044989AE09A95F1F700C0789414
:100C0000EFE8F1E03197F1F700C000008F98F89419
:100C10008CE082B9FAE0FA95F1F700C0449A8AE0D4
:100C20008A95F1F700C044989AE09A95F1F700C0D0
:100C30007894EFE8F1E03197F1F700C000000895F3
:100C4000DC019C91992301F120E08F9AF89492B9EC
:100C50008AE08A95F1F700C0449A9AE09A95F1F7F4
:100C600000C044988AE08A95F1F700C078948FE735
:100C700092E00197F1F700C000002F5FFD01E20F45
:100C8000F11D90819111E1CF08951F93CF93DF93D0
:100C9000FC01892B09F466C045E011E02FE037E242
:100CA000E9012196CF01BE010E94F10961111DC029
:100CB0002E173F0708F052C01123A9F111E0CF0110
:100CC000BE010E94F109FC01ADECBCEC0E941F0AC0
:100CD0009C01369527953695279536952795415051
:100CE000F9F6DF91CF911F9108952E173F07D8F0A5
:100CF000605D8F9AF89462B99AE09A95F1F700C016
:100D0000449A8AE08A95F1F700C044989AE09A954F
:100D1000F1F700C078948FE792E00197F1F700C0F7
:100D2000000010E0D1CF605D8F9AF89462B99AE02C
:100D30009A95F1F700C0449A8AE08A95F1F700C0CD
:100D400044989AE09A95F1F700C078948FE792E082
:100D50000197F1F700C0000010E0B1CF112341F27C
:100D600011E0B2CF8F9AF89480E382B98AE08A9535
:100D7000F1F700C0449A9AE09A95F1F700C04498C0
:100D80008AE08A95F1F700C078948FE792E00197A6
:100D9000F1F700C00000DF91CF911F9108958F9867
:100DA000F89481E082B98AE08A95F1F700C0449A0C
:100DB0009AE09A95F1F700C044988AE08A95F1F795
:100DC00000C078948FE79EE30197F1F700C0000020
:100DD00008955D9A5C980895262F3FEF81110EC00B
:100DE0006303C001112464E670E00E94050A609369
:100DF000B30012169CF45C9A5D9808956303C001D9
:100E0000112464E670E00E94050A67BD12161CF406
:100E10005E9A5F9808955F9A5E9808950C94E9062B
:100E2000CF93DF93C3EBD0E018820E94E90617BC92
:100E30005F9A5E9884B1806984B98AB1806F8AB9FB
:100E4000E0EBF0E08081886680838081826080832F
:100E500084B5886684BD84B5826084BD8AE087BD20
:100E60008883DF91CF9108955C9A5D982C9A5F9A60
:100E70005E982F9A08951F920F920FB60F92112429
:100E80002F933F934F935F936F937F938F939F9392
:100E9000EF93FF9380916F014091880050918900FA
:100EA00080FD30C08695E82FF0E0EE0FFF1FE85878
:100EB000FE4F20813181240F351F3093890020930C
:100EC000880048B121E030E0B90102C0660F771F09
:100ED0008A95E2F7CB01842B88B980916F018F5FEF
:100EE000877080936F01FF91EF919F918F917F9118
:100EF0006F915F914F913F912F910F900FBE0F9087
:100F00001F9018958695E82FF0E0EE0FFF1FE0592F
:100F1000FE4F20813181240F351F309389002093AB
:100F2000880048B121E030E0B90102C0660F771FA8
:100F30008A95E2F7CB018095842388B9CECF90E0E3
:100F40002AE0629FB00111246C53764F880F991FDD
:100F5000FC01E858FE4F71836083FC01E059FE4FAD
:100F600024ED30E3261B370B318320830895A8E757
:100F7000B1E024EC39E011963C932E93E0E7F1E0E8
:100F800080E197E29183808313963C932E9312978E
:100F90009383828315963C932E9314979583848331
:100FA00017963C932E9316979783868387B18F600D
:100FB00087B9E1E8F0E01082808182608083EFE60B
:100FC000F0E0808182608083789408958CB1809570
:100FD000881F8827881F0895482F50E04E305105FC
:100FE00010F080E00895FA01E25DFF4F0C94190AB9
:100FF00023B130E08950A90102C0559547958A95E3
:10100000E2F7CA018170089583B1869581700895D1
:101010002CB130E0A90102C0559547958A95E2F7B9
:10102000CA018170089522B330E08F5FA90102C028
:10103000559547958A95E2F7CA01817008958CB15C
:1010400086FB882780F9089523B1E3CF26B130E0ED
:101050008250A90102C0559547958A95E2F7CA01C9
:101060008170089583B181700895962F482F50E0C4
:101070004E30510540F4FA01E45CFF4F0C94190A1C
:10108000611164C02198089544B1895021E030E095
:10109000B90102C0660F771F8A95E2F79923F1F133
:1010A000CB01842B84B908954DB121E030E0B90122
:1010B00002C0660F771F8A95E2F7992309F43FC0B3
:1010C000CB01842B8DB9089543B38F5F21E030E0CD
:1010D000B90102C0660F771F8A95E2F7992329F1BB
:1010E000CB01842B83BB08956623E9F06E9A0895A3
:1010F00047B1825021E030E0B90102C0660F771F8E
:101100008A95E2F79923B1F0CB01842B87B9089532
:1011100044B1BCCF6623C1F0209A0895CB018095DD
:10112000842384B908956E980895CB018095842313
:1011300083BB0895CB018095842387B90895CB01A3
:10114000809584238DB9089520980895219A089553
:10115000962F482F50E04E30510540F4FA01E65BDF
:10116000FF4F0C94190A611164C02998089545B184
:10117000895021E030E0B90102C0660F771F8A95DF
:10118000E2F79923F1F1CB01842B85B908954EB193
:1011900021E030E0B90102C0660F771F8A95E2F7BF
:1011A000992309F43FC0CB01842B8EB9089544B331
:1011B0008F5F21E030E0B90102C0660F771F8A958A
:1011C000E2F7992329F1CB01842B84BB0895662390
:1011D000E9F0769A089548B1825021E030E0B901F3
:1011E00002C0660F771F8A95E2F79923B1F0CB0111
:1011F000842B88B9089545B1BCCF6623C1F0289AE5
:101200000895CB018095842385B908957698089533
:10121000CB018095842384BB0895CB0180958423E2
:1012200088B90895CB01809584238EB908952898B4
:101230000895299A0895811104C0613031F0A09871
:101240000895613021F0A1980895A09A0895A19A77
:101250000895882311F0A19A0895A09A08958823EB
:1012600011F0A1980895A0980895529A83B38360CD
:1012700083BB779A0E94DD020E9450050E94B70747
:101280000E94100741E06AE28CE10E94B3042FEF54
:1012900081EE94E0215080409040E1F700C00000D2
:1012A0000C941D030E9435090E9450050E94B70747
:1012B0008DB380638DBB80916C00806280936C00E5
:1012C00080916B00806480936B00769A2D9A0E94C7
:1012D000D30085E00E94EC0760E085E00E943508BD
:1012E00084E00E94EC0760E084E00E9435080E94E0
:1012F000CF0660E080E00E942F058EE291E00E9420
:10130000200661E080E00E942F05D0E0C0E087E287
:1013100091E011E00E9420060E94E607882331F147
:10132000DD23D1F10E94E607D1E02FEF81EE94E0BA
:10133000215080409040E1F700C000000E94CF069D
:1013400060E080E00E942F058EE291E00E9420067E
:1013500061E080E00E942F05C1111BC087E291E08F
:101360000E9420060E94E6078111DACF0E94E6075C
:1013700081110DC0C1112FC00E94C3012FEF87EA58
:1013800091E6215080409040E1F700C00000D0E09D
:10139000CCCF85E191E0BECFC1270E94CF0660E0AF
:1013A00080E00E942F058EE391E00E94200661E01C
:1013B00080E00E942F05C11111C087E291E00E94D8
:1013C00020062FEF83ED90E3215080409040E1F71D
:1013D00000C00000A7CF0E942702D0CF85E191E096
:1013E000EECFAA1BBB1B51E107C0AA1FBB1FA6174C
:1013F000B70710F0A61BB70B881F991F5A95A9F7BE
:1014000080959095BC01CD01089597FB072E16F4A9
:10141000009407D077FD09D00E94F10907FC05D0A0
:101420003EF4909581959F4F0895709561957F4FFB
:101430000895EE0FFF1F0590F491E02D0994A29FEF
:10144000B001B39FC001A39F700D811D1124911D98
:10145000B29F700D811D1124911D0895F894FFCF46
:101460004C3A00523A0053717561726520506174B4
:101470007465726E00426F7774696500426F7774AD
:1014800069652046696E005371756172650050721E
:1014900065737320746F20746F67676C65004D6FA0
:1014A0006465206368616E67656420746F3A0061EB
:1014B0006464724E41434B0077725F4E41434B0070
:0A14C000726561644E41434B000069
:00000001FF
