:100000000C9458000C9475000C9475000C947500B9
:100010000C9475000C9475000C9475000C9460059C
:100020000C9475000C9475000C9475000C9475007C
:100030000C9475000C9475000C9475000C9475006C
:100040000C9475000C9475000C9475000C9475005C
:100050000C9475000C9475000C9475002D062D06FB
:10006000380638064406490649064B064B064B0639
:1000700057061D061D062906790679068906890692
:100080009906AD06AD069D069D069D06AF0669065E
:1000900069066506EC06EC06FC06FC060C07200764
:1000A00020071007100710072207DC06DC06D80619
:1000B00011241FBECFEFD0E1DEBFCDBF11E0A0E025
:1000C000B1E0E0E6F5E102C005900D92A632B1077D
:1000D000D9F721E0A6E2B1E001C01D92A733B20733
:1000E000E1F70E9477070C94AE0A0C9400000E947E
:1000F0005A070E94DC050E9475030E9402016FE707
:1001000082E00E94C4056FE783E00E94C4050E945C
:10011000F40460E080E00C945403DF92EF92FF92CD
:100120000F931F93CF93DF93CDB7DEB7A2970FB690
:10013000F894DEBF0FBECDBF80E00E940D01F82E07
:1001400081E00E940D01D82E0F2D10E0081B11092F
:1001500060E080E00E9454031F92FF9280E091E0F3
:100160009F938F937E0122E1E20EF11CFF92EF92AA
:100170000E94C407C7010E94450461E080E00E941C
:1001800054031F92DF9286E091E09F938F93CE01FC
:1001900001967C019F938F930E94C407C7010E9420
:1001A0004504C80117FD29C00FB6F894DEBF0FBE85
:1001B000CDBFC297CCF06DE910161106B4F483E000
:1001C0000E94C4056FE782E00E94C405A2960FB6A4
:1001D000F894DEBF0FBECDBFDF91CF911F910F917D
:1001E000FF90EF90DF9008956FE782E00E94C405D2
:1001F0006FE783E00E94C405E9CF88279927801B19
:10020000910BD2CFEAE7F0E0808187688083ECE74A
:10021000F0E0808180668083089590917C00987FD3
:1002200090937C0090917C00892B80937C0080913E
:100230007A00806480937A0080917A0086FDFCCFFA
:100240008091790008958DB18F7C8DB985E08A9574
:10025000F1F700006D9A759885E08A95F1F7000036
:100260006C9A749885E08A95F1F7000008956C986F
:1002700085E08A95F1F700006D9885E08A95F1F7A1
:10028000000008956D9885E08A95F1F70000659962
:100290000DC06C9885E08A95F1F700006C9A74980F
:1002A00085E08A95F1F70000659BF3CF6C9808957F
:1002B0006C9885E08A95F1F700006C9A749885E057
:1002C0008A95F1F7000008951F93CF93DF93D82FFD
:1002D000C62F142F0E9442010E94230187E013C001
:1002E0006D9895E09A95F1F700006C9895E09A95D5
:1002F000F1F700006C9A749895E09A95F1F7000078
:10030000DD0F815029F0D6FDEBCF6D9A7598E9CFBE
:100310006D9A759885E08A95F1F700006C9895E0E4
:100320009A95F1F700006C9A749885E08A95F1F738
:1003300000006D9895E09A95F1F700006C98659B28
:1003400005C08CE091E00E944504FFCF85E08A95CE
:10035000F1F700006C9A749895E09A95F1F7000017
:1003600088E014C06D9A759895E09A95F1F70000B1
:100370006C9895E09A95F1F700006C9A749895E066
:100380009A95F1F70000CC0F815021F0C7FFEACF1A
:100390006D98EACF6D9885E08A95F1F700006C982A
:1003A000659B05C088E191E00E944504FFCF95E080
:1003B0009A95F1F700006C9A749885E08A95F1F7A8
:1003C0000000112351F06C9895E09A95F1F7000028
:1003D0006D9885E08A95F1F70000DF91CF911F912C
:1003E0000895FC016623D1F14FEF460F50E04F5FB7
:1003F0005F4F480F591F908128E016C06D9A75987D
:1004000085E08A95F1F700006C9885E08A95F1F710
:1004100000006C9A749885E08A95F1F7000090814D
:10042000990F9083215021F097FFE8CF6D98E8CF86
:1004300031966D9885E08A95F1F700006C98659982
:1004400018C085E08A95F1F700006C9A749885E0F1
:100450008A95F1F70000E417F50769F66C9885E0D6
:100460008A95F1F700006D9885E08A95F1F7000014
:10047000089585E191E00E944504FFCF0F931F93FB
:10048000CF93DF93082FEB01142F0E94230187E005
:1004900013C06D9895E09A95F1F700006C9895E07F
:1004A0009A95F1F700006C9A749895E09A95F1F797
:1004B0000000000F815029F006FDEBCF6D9A759872
:1004C000E9CF6D9885E08A95F1F700006C9895E08A
:1004D0009A95F1F700006C9A749885E08A95F1F787
:1004E00000006D9895E09A95F1F700006C98659B77
:1004F00005C08DE191E00E944504FFCF85E08A951B
:10050000F1F700006C9A749895E09A95F1F7000065
:100510006D9885E08A95F1F700001123B1F12FEF76
:10052000210F30E02F5F3F4F2C0F3D1F98E0888157
:10053000880F88836C9885E08A95F1F70000659BA9
:1005400003C088818160888385E08A95F1F7000087
:100550006C9A749885E08A95F1F70000915039F70C
:100560006D9A759895E09A95F1F700006C9885E082
:100570008A95F1F700006C9A749895E09A95F1F7D6
:10058000000021962C173D0789F695E09A95F1F722
:1005900000006C9885E08A95F1F700006D9895E071
:1005A0009A95F1F70000DF91CF911F910F91089577
:1005B000CF93DF931F92CDB7DEB7498340E00E940F
:1005C000640161E0CE0101960E94F1010F90DF917C
:1005D000CF9108951F93CF93DF931F92CDB7DEB7CE
:1005E000182F41E00E94640141E0BE016F5F7F4F20
:1005F000812F0E943E0289810F90DF91CF911F9140
:10060000089561E08CE10C94EA0263E08CE10C94C3
:10061000EA0265E08CE10C94EA028AE08A95F1F73F
:1006200000C0449A8AE08A95F1F700C044988AE0B5
:100630008A95F1F700C00895F89482B98AE08A9506
:10064000F1F700C0449A8AE08A95F1F700C0449817
:100650008AE08A95F1F700C0789408958F98F8940D
:1006600082B98AE08A95F1F700C0449A8AE08A95B7
:10067000F1F700C044988AE08A95F1F700C07894B9
:1006800008958F9AF89482B98AE08A95F1F700C0AC
:10069000449A8AE08A95F1F700C044988AE08A95E6
:1006A000F1F700C078940895803110F4623008F0BA
:1006B000089590E4699F800D112480588F98F894D4
:1006C00082B98AE08A95F1F700C0449A9AE09A9537
:1006D000F1F700C044988AE08A95F1F700C0789459
:1006E00095EC9A95F1F7000008953C9A879A8FEF60
:1006F00081B98FE19EE40197F1F700C000008F9867
:10070000F89488E382B99AE09A95F1F700C0449A88
:10071000EAE0EA95F1F700C04498FAE0FA95F1F7BB
:1007200000C07894EFE7F2E03197F1F700C00000E5
:100730008F98F89482B9FAE0FA95F1F700C0449ADC
:100740009AE09A95F1F700C04498EAE0EA95F1F74B
:1007500000C07894EFE7F2E03197F1F700C00000B5
:100760008F98F89482B9FAE0FA95F1F700C0449AAC
:100770009AE09A95F1F700C04498EAE0EA95F1F71B
:1007800000C07894EFE7F2E03197F1F700C0000085
:100790008F98F89498E092B9FAE0FA95F1F700C0D2
:1007A000449A9AE09A95F1F700C04498EAE0EA95F5
:1007B000F1F700C07894EFE7F2E03197F1F700C06D
:1007C00000008F98F89491E092B9FAE0FA95F1F769
:1007D00000C0449A9AE09A95F1F700C04498EAE084
:1007E000EA95F1F700C07894EFE7FEE33197F1F76F
:1007F00000C000008F98F89496E092B9FAE0FA955C
:10080000F1F700C0449A9AE09A95F1F700C0449835
:10081000EAE0EA95F1F700C07894EFE7F2E031976B
:10082000F1F700C000008F98F89482B9FAE0FA95C9
:10083000F1F700C0449A8AE08A95F1F700C0449825
:100840009AE09A95F1F700C07894EFE8F1E03197DB
:10085000F1F700C000008F98F8948CE082B9FAE0BC
:10086000FA95F1F700C0449A8AE08A95F1F700C042
:1008700044989AE09A95F1F700C07894EFE8F1E097
:100880003197F1F700C000000895DC019C91992395
:1008900001F120E08F9AF89492B98AE08A95F1F7F5
:1008A00000C0449A9AE09A95F1F700C044988AE013
:1008B0008A95F1F700C078948FE792E00197F1F7FD
:1008C00000C000002F5FFD01E20FF11D908191112A
:1008D000E1CF08951F93CF93DF93FC01892B09F497
:1008E00066C045E011E02FE037E2E9012196CF0133
:1008F000BE010E94870761111DC02E173F0708F037
:1009000052C01123A9F111E0CF01BE010E94870757
:10091000FC01ADECBCEC0E94B5079C013695279517
:1009200036952795369527954150F9F6DF91CF9169
:100930001F9108952E173F07D8F0605D8F9AF894A5
:1009400062B99AE09A95F1F700C0449A8AE08A95D4
:10095000F1F700C044989AE09A95F1F700C07894B6
:100960008FE792E00197F1F700C0000010E0D1CFCF
:10097000605D8F9AF89462B99AE09A95F1F700C099
:10098000449A8AE08A95F1F700C044989AE09A95D3
:10099000F1F700C078948FE792E00197F1F700C07B
:1009A000000010E0B1CF112341F211E0B2CF8F9AD5
:1009B000F89480E382B98AE08A95F1F700C0449AFE
:1009C0009AE09A95F1F700C044988AE08A95F1F789
:1009D00000C078948FE792E00197F1F700C0000023
:1009E000DF91CF911F9108958F98F89481E082B99B
:1009F0008AE08A95F1F700C0449A9AE09A95F1F757
:100A000000C044988AE08A95F1F700C078948FE797
:100A10009EE30197F1F700C0000008955D9A5C988D
:100A20000895262F3FEF81110EC06303C0011124EA
:100A300064E670E00E949B076093B30012169CF47A
:100A40005C9A5D9808956303C001112464E670E028
:100A50000E949B0767BD12161CF45E9A5F9808956A
:100A60005F9A5E9808950C940E05CF93DF93C3EBC5
:100A7000D0E018820E940E0517BC5F9A5E9884B180
:100A8000806984B98AB1806F8AB9E0EBF0E0808137
:100A90008866808380818260808384B5886684BD17
:100AA00084B5826084BD8AE087BD8883DF91CF9161
:100AB00008955C9A5D982C9A5F9A5E982F9A089593
:100AC0001F920F920FB60F9211242F933F934F93C3
:100AD0005F936F937F938F939F93EF93FF93809197
:100AE0002601409188005091890080FD30C0869594
:100AF000E82FF0E0EE0FFF1FE15DFE4F2081318116
:100B0000240F351F309389002093880048B121E0DD
:100B100030E0B90102C0660F771F8A95E2F7CB017A
:100B2000842B88B9809126018F5F8770809326017E
:100B3000FF91EF919F918F917F916F915F914F9175
:100B40003F912F910F900FBE0F901F901895869593
:100B5000E82FF0E0EE0FFF1FE95DFE4F20813181AD
:100B6000240F351F309389002093880048B121E07D
:100B700030E0B90102C0660F771F8A95E2F7CB011A
:100B80008095842388B9CECF90E02AE0629FB0019F
:100B900011246C53764F880F991FFC01E15DFE4FC5
:100BA00071836083FC01E95DFE4F24ED30E3261B79
:100BB000370B318320830895AFE2B1E024EC39E0B4
:100BC00011963C932E93E7E2F1E080E197E2918366
:100BD000808313963C932E9312979383828315966A
:100BE0003C932E9314979583848317963C932E936E
:100BF00016979783868387B18F6087B9E1E8F0E025
:100C00001082808182608083EFE6F0E080818260E4
:100C10008083789408958CB18095881F8827881FD9
:100C20000895482F50E04E30510510F080E00895AF
:100C3000FA01E25DFF4F0C94AF0723B130E0895019
:100C4000A90102C0559547958A95E2F7CA018170BE
:100C5000089583B18695817008952CB130E0A90183
:100C600002C0559547958A95E2F7CA0181700895AB
:100C700022B330E08F5FA90102C0559547958A9550
:100C8000E2F7CA01817008958CB186FB882780F94C
:100C9000089523B1E3CF26B130E08250A90102C00C
:100CA000559547958A95E2F7CA018170089583B1F9
:100CB00081700895962F482F50E04E30510540F432
:100CC000FA01E45CFF4F0C94AF07611164C02198F6
:100CD000089544B1895021E030E0B90102C0660FA7
:100CE000771F8A95E2F79923F1F1CB01842B84B920
:100CF00008954DB121E030E0B90102C0660F771FC1
:100D00008A95E2F7992309F43FC0CB01842B8DB972
:100D1000089543B38F5F21E030E0B90102C0660F50
:100D2000771F8A95E2F7992329F1CB01842B83BBA6
:100D300008956623E9F06E9A089547B1825021E044
:100D400030E0B90102C0660F771F8A95E2F7992358
:100D5000B1F0CB01842B87B9089544B1BCCF662391
:100D6000C1F0209A0895CB018095842384B9089519
:100D70006E980895CB018095842383BB0895CB01A1
:100D80008095842387B90895CB01809584238DB9FC
:100D9000089520980895219A0895962F482F50E09D
:100DA0004E30510540F4FA01E65BFF4F0C94AF075B
:100DB000611164C02998089545B1895021E030E05F
:100DC000B90102C0660F771F8A95E2F79923F1F106
:100DD000CB01842B85B908954EB121E030E0B901F3
:100DE00002C0660F771F8A95E2F7992309F43FC086
:100DF000CB01842B8EB9089544B38F5F21E030E09E
:100E0000B90102C0660F771F8A95E2F7992329F18D
:100E1000CB01842B84BB08956623E9F0769A08956C
:100E200048B1825021E030E0B90102C0660F771F5F
:100E30008A95E2F79923B1F0CB01842B88B9089504
:100E400045B1BCCF6623C1F0289A0895CB018095A7
:100E5000842385B9089576980895CB0180958423DD
:100E600084BB0895CB018095842388B90895CB0174
:100E7000809584238EB9089528980895299A089515
:100E8000811104C0613031F0A0980895613021F0E3
:100E9000A1980895A09A0895A19A0895882311F021
:100EA000A19A0895A09A0895882311F0A198089511
:100EB000A0980895529A83B3836083BB779A0E9467
:100EC00002010E9475030E94DC050E94350541E085
:100ED0006AE28CE10E94D8022FEF81EE94E021506B
:100EE00080409040E1F700C000000C9442010E9455
:100EF00077000E948D002FEF81EE94E0215080401A
:100F00009040E1F700C000000E94F404F2CFAA1B59
:100F1000BB1B51E107C0AA1FBB1FA617B70710F0E4
:100F2000A61BB70B881F991F5A95A9F78095909516
:100F3000BC01CD01089597FB072E16F4009407D04D
:100F400077FD09D00E94870707FC05D03EF49095F5
:100F500081959F4F0895709561957F4F0895EE0F8D
:100F6000FF1F0590F491E02D0994A29FB001B39F5B
:100F7000C001A39F700D811D1124911DB29F700DA2
:100F8000811D1124911D0895AEE0B0E0EAECF7E078
:100F90000C94850A0D891E8986E08C831A83098347
:100FA0008FEF9FE79E838D83AE01475E5F4F6F8912
:100FB000788DCE0101960E94E607EF81F885E00F5B
:100FC000F11F10822E96E4E00C94A10AABE0B0E091
:100FD000ECEEF7E00C94770A6C017B018A01FC01CE
:100FE00017821682838181FFCCC1CE0101963C011C
:100FF000F6019381F70193FD859193FF81917F0124
:10100000882309F4BAC1853239F493FD859193FFA1
:1010100081917F01853229F4B60190E00E94DD09BB
:10102000E7CF912C212C312CFFE1F315D8F08B3236
:1010300079F038F4803279F08332A1F4232D2061E5
:101040001DC08D3261F0803369F4232D216016C0FC
:10105000832D8260382EE32DE4603E2E2AC0F32DCE
:10106000F8601DC037FC2DC020ED280F2A3040F05D
:101070008E32B9F436FC81C1232D2064322E19C082
:1010800036FE06C08AE0989E200D1124922E11C0D3
:10109000EAE02E9E200D1124222EF32DF0623F2E29
:1010A00008C08C3621F4832D8068382E02C0883623
:1010B00041F4F70193FD859193FF81917F018111A7
:1010C000B3CF982F9F7D9554933028F40C5F1F4F1A
:1010D0009FE399830DC0833631F0833771F08335F8
:1010E00009F059C021C0F801808189830E5F1F4F2C
:1010F00088248394912C530113C02801F2E04F0EF1
:10110000511CF801A080B18036FE03C0692D70E04B
:1011100002C06FEF7FEFC5010E94D2094C0182012E
:10112000F32DFF773F2E16C0280122E0420E511CFE
:10113000F801A080B18036FE03C0692D70E002C0C6
:101140006FEF7FEFC5010E94C7094C01F32DF068D6
:101150003F2E820133FC1BC0822D90E08816990639
:10116000B0F4B60180E290E00E94DD092A94F4CF49
:10117000F50137FC859137FE81915F01B60190E062
:101180000E94DD0921102A9421E0821A910881141D
:10119000910471F7E8C0843611F0893641F5F80101
:1011A00037FE07C060817181828193810C5F1F4F80
:1011B00008C060817181072E000C880B990B0E5FAF
:1011C0001F4FF32DFF763F2E97FF09C09095809516
:1011D000709561957F4F8F4F9F4FF0683F2E2AE0AB
:1011E00030E0A3010E94190A882E861845C0853771
:1011F00031F4232D2F7EB22E2AE030E025C0932D2E
:10120000997FB92E8F36C1F018F4883579F0B5C0C2
:10121000803719F0883721F0B0C0E92FE061BE2E89
:10122000B4FE0DC0FB2DF460BF2E09C034FE0AC011
:10123000292F2660B22E06C028E030E005C020E14C
:1012400030E002C020E132E0F801B7FE07C0608163
:101250007181828193810C5F1F4F06C06081718113
:1012600080E090E00E5F1F4FA3010E94190A882EB4
:101270008618FB2DFF773F2E36FE0DC0232D2E7FC7
:10128000A22E891458F434FE0BC032FC09C0832D01
:101290008E7EA82E05C0B82CA32C03C0B82C01C08C
:1012A000B92CA4FE0FC0FE01E80DF11D8081803332
:1012B00021F49A2D997EA92E09C0A2FE06C0B394EE
:1012C000B39404C08A2D867809F0B394A3FC11C0AE
:1012D000A0FE06C0B21488F4280C922C9B180EC0F5
:1012E000B21460F4B60180E290E00E94DD09B3948C
:1012F000F7CFB21418F42B1802C0982C212CA4FE9E
:1013000010C0B60180E390E00E94DD09A2FE17C084
:10131000A1FC03C088E790E002C088E590E0B60138
:101320000CC08A2D867859F0A1FE02C08BE201C064
:1013300080E2A7FC8DE2B60190E00E94DD098914ED
:1013400038F4B60180E390E00E94DD099A94F7CF6B
:101350008A94F301E80DF11D8081B60190E00E94AE
:10136000DD098110F5CF222009F442CEB60180E2DA
:1013700090E00E94DD092A94F6CFF60186819781DC
:1013800002C08FEF9FEF2B96E2E10C94930AFC01D1
:101390000590615070400110D8F7809590958E0FA0
:1013A0009F1F0895FC016150704001900110D8F713
:1013B000809590958E0F9F1F08950F931F93CF9345
:1013C000DF93FB01238121FD03C08FEF9FEF2CC032
:1013D00022FF16C046815781248135814217530769
:1013E00044F4A081B1819D012F5F3F4F3183208361
:1013F0008C93268137812F5F3F4F3783268314C01C
:101400008B01EC01FB010084F185E02D0995892B0E
:10141000E1F6D80116968D919C9117970196179633
:101420009C938E931697CE01DF91CF911F910F91D0
:101430000895FA01AA27283051F1203181F1E8946A
:101440006F936E7F6E5F7F4F8F4F9F4FAF4FB1E0B7
:101450003ED0B4E03CD0670F781F891F9A1FA11DB2
:10146000680F791F8A1F911DA11D6A0F711D811DB3
:10147000911DA11D20D009F468943F912AE0269F78
:1014800011243019305D3193DEF6CF010895462FD7
:101490004770405D4193B3E00FD0C9F7F6CF462FB8
:1014A0004F70405D4A3318F0495D31FD4052419321
:1014B00002D0A9F7EACFB4E0A695979587957795DE
:1014C0006795BA95C9F700976105710508959B0165
:1014D000AC010A2E06945795479537952795BA95EE
:1014E000C9F7620F731F841F951FA01D08952F92C7
:1014F0003F924F925F926F927F928F929F92AF92A4
:10150000BF92CF92DF92EF92FF920F931F93CF93F0
:10151000DF93CDB7DEB7CA1BDB0B0FB6F894DEBF87
:101520000FBECDBF09942A88398848885F846E84AD
:101530007D848C849B84AA84B984C884DF80EE80F7
:10154000FD800C811B81AA81B981CE0FD11D0FB600
:10155000F894DEBF0FBECDBFED010895F894FFCF24
:101560004C3A25336400523A253364006164647256
:101570004E41434B0077725F4E41434B00726561B1
:06158000644E41434B00E4
:00000001FF
