:100000000C9458000C9475000C9475000C947500B9
:100010000C9475000C9475000C9475000C94A60655
:100020000C9475000C9475000C9475000C9475007C
:100030000C9475000C9475000C9475000C9475006C
:100040000C9475000C9475000C9475000C9475005C
:100050000C9475000C9475000C947500730773076D
:100060007E077E078A078F078F0791079107910701
:100070009D07630763076F07BF07BF07CF07CF075A
:10008000DF07F307F307E307E307E307F507AF0726
:10009000AF07AB0732083208420842085208660828
:1000A00066085608560856086808220822081E08DE
:1000B00011241FBECFEFD0E1DEBFCDBF11E0A0E025
:1000C000B1E0EEECFCE102C005900D92AE36B10756
:1000D000D9F721E0AEE6B1E001C01D92AF37B2071B
:1000E000E1F70E94BD080C94650E0C940000682F87
:1000F000880F770B880B990B0E94590A2DEC3CEC6A
:100100004CE45EE30E940E0B20E030E04EEF52E440
:100110000E943E090E94210ACB010895EF92FF92AE
:100120000F931F93CF93DF93CDB7DEB760970FB6D2
:10013000F894DEBF0FBECDBF182F062F7F936F93AD
:100140001F928F9380E091E09F938F93CE01019651
:100150007C019F938F930E947B0B61E01230E1F052
:1001600080E00E949A04C7010E948B05602F812FB6
:100170000E940A070FB6F894DEBF0FBECDBF60968F
:100180000FB6F894DEBF0FBECDBFDF91CF911F91A8
:100190000F91FF90EF90089560E0E2CF2F923F9291
:1001A0004F925F926F927F928F929F92AF92BF9287
:1001B000CF92DF92EF92FF920F931F93CF93DF9333
:1001C00000D000D0CDB7DEB76C011B01803891059F
:1001D0004CF039E1C30ED11C8FEFC816D10411F0D9
:1001E0000CF0E3C096012F5731093C832B8381012A
:1001F0000F57110937FDE2C0C80117FDDAC03A8375
:1002000029832817390714F49A83898329813A812D
:10021000B901330F880B990B0E94590A2B013C013D
:100220002B813C81B901330F880B990B0E94590A2D
:10023000A30192010E94AF099B01AC010E943E09FB
:100240004B015C01B801110F880B990B0E94590AF0
:10025000A30192010E94AF099B01AC010E943E09DB
:100260002B013C010E943A0689819A8118161906D1
:100270000CF068C0E12CF12C0FE710E02FE730E024
:100280003C832B832B813C81B901330F880B990B65
:100290000E94590AA50194010E943E090E94210A68
:1002A0007C836B83B801110F880B990B0E94590A4C
:1002B000A30192010E943E090E94210A8B0120E0C5
:1002C00030E0A901C501B4010E94090B18160CF019
:1002D0005CC08B819C81C816D9060CF056C0DC82AC
:1002E000CB8220E030E0A901C301B2010E94090BDA
:1002F000181624F4201631060CF445C020E030E036
:10030000A901C301B2010E94AA0987FD39C06B810E
:100310007C8182E00E948E00B80183E00E948E0002
:100320003FE789EA93E0315080409040E1F700C018
:10033000000022E0E20EF11C89819A81E816F9069C
:100340000CF4A0CFB60182E00E948E00B10183E0E0
:100350000F900F900F900F90DF91CF911F910F9101
:10036000FF90EF90DF90CF90BF90AF909F908F90D5
:100370007F906F905F904F903F902F900C948E00E5
:100380000215130524F68101C2CF20E030E0A90157
:10039000C501B4010E94AA0987FFA3CF2B813C812C
:1003A0002C153D050CF09DCF9ACFCC24CA94D12CAE
:1003B00019CF88279927801B910B21CF3195219543
:1003C00031091ACF60E080E00E949A0488E091E051
:1003D0000E948B056BE670E083E990E00C94CE0000
:1003E00060E080E00E949A0487E191E00E948B0522
:1003F00063E970E08BE690E00C94CE0060E080E072
:100400000E949A0487E291E00E948B056FE770E0FA
:100410008FE790E00C94CE00EF92FF920F931F9322
:10042000CF93DF93CDB7DEB760970FB6F894DEBFFA
:100430000FBECDBF182F092FF62EE72E0E943A06C9
:10044000EF92FF920F931F9380E391E09F938F931E
:100450008E010F5F1F4F1F930F930E947B0B60E075
:1004600080E00E949A04C8010E948B050FB6F894A0
:10047000DEBF0FBECDBF60960FB6F894DEBF0FBED5
:10048000CDBFDF91CF911F910F91FF90EF90089515
:10049000EAE7F0E0808187688083ECE7F0E0808124
:1004A00080668083089590917C00987F90937C0073
:1004B00090917C00892B80937C0080917A008064ED
:1004C00080937A0080917A0086FDFCCF809179003C
:1004D00008958DB18F7C8DB985E08A95F1F7000084
:1004E0006D9A759885E08A95F1F700006C9A74987A
:1004F00085E08A95F1F7000008956C9885E08A956B
:10050000F1F700006D9885E08A95F1F700000895F5
:100510006D9885E08A95F1F7000065990DC06C989B
:1005200085E08A95F1F700006C9A749885E08A95C9
:10053000F1F70000659BF3CF6C9808956C9885E007
:100540008A95F1F700006C9A749885E08A95F1F726
:10055000000008951F93CF93DF93D82FC62F142F39
:100560000E9488020E94690287E013C06D9895E09E
:100570009A95F1F700006C9895E09A95F1F70000D4
:100580006C9A749895E09A95F1F70000DD0F815010
:1005900029F0D6FDEBCF6D9A7598E9CF6D9A7598D5
:1005A00085E08A95F1F700006C9895E09A95F1F74F
:1005B00000006C9A749885E08A95F1F700006D98B8
:1005C00095E09A95F1F700006C98659B05C083E56E
:1005D00091E00E948B05FFCF85E08A95F1F700003E
:1005E0006C9A749895E09A95F1F7000088E014C031
:1005F0006D9A759895E09A95F1F700006C9895E0E2
:100600009A95F1F700006C9A749895E09A95F1F735
:100610000000CC0F815021F0C7FFEACF6D98EACFE0
:100620006D9885E08A95F1F700006C98659B05C090
:100630008FE591E00E948B05FFCF95E09A95F1F749
:1006400000006C9A749885E08A95F1F700001123F8
:1006500051F06C9895E09A95F1F700006D9885E05F
:100660008A95F1F70000DF91CF911F910895FC0169
:100670006623D1F14FEF460F50E04F5F5F4F480FB9
:10068000591F908128E016C06D9A759885E08A956B
:10069000F1F700006C9885E08A95F1F700006C9AFC
:1006A000749885E08A95F1F700009081990F908306
:1006B000215021F097FFE8CF6D98E8CF31966D98E3
:1006C00085E08A95F1F700006C98659918C085E07F
:1006D0008A95F1F700006C9A749885E08A95F1F795
:1006E0000000E417F50769F66C9885E08A95F1F744
:1006F00000006D9885E08A95F1F7000008958CE57B
:1007000091E00E948B05FFCF0F931F93CF93DF9350
:10071000082FEB01142F0E94690287E013C06D9827
:1007200095E09A95F1F700006C9895E09A95F1F7AD
:1007300000006C9A749895E09A95F1F70000000F0C
:10074000815029F006FDEBCF6D9A7598E9CF6D9831
:1007500085E08A95F1F700006C9895E09A95F1F79D
:1007600000006C9A749885E08A95F1F700006D9806
:1007700095E09A95F1F700006C98659B05C084E6BA
:1007800091E00E948B05FFCF85E08A95F1F700008C
:100790006C9A749895E09A95F1F700006D9885E051
:1007A0008A95F1F700001123B1F12FEF210F30E00E
:1007B0002F5F3F4F2C0F3D1F98E08881880F888363
:1007C0006C9885E08A95F1F70000659B03C08881ED
:1007D0008160888385E08A95F1F700006C9A7498AF
:1007E00085E08A95F1F70000915039F76D9A759878
:1007F00095E09A95F1F700006C9885E08A95F1F7FD
:1008000000006C9A749895E09A95F1F70000219693
:100810002C173D0789F695E09A95F1F700006C9842
:1008200085E08A95F1F700006D9895E09A95F1F7CB
:100830000000DF91CF911F910F910895CF93DF9327
:100840001F92CDB7DEB7498340E00E94AA0261E063
:10085000CE0101960E9437030F90DF91CF9108954A
:100860001F93CF93DF931F92CDB7DEB7182F41E0D0
:100870000E94AA0241E0BE016F5F7F4F812F0E945C
:10088000840389810F90DF91CF911F91089561E0DA
:100890008CE10C94300463E08CE10C94300465E04E
:1008A0008CE10C9430048AE08A95F1F700C0449AF8
:1008B0008AE08A95F1F700C044988AE08A95F1F7BA
:1008C00000C00895F89482B98AE08A95F1F700C0D3
:1008D000449A8AE08A95F1F700C044988AE08A95A4
:1008E000F1F700C0789408958F98F89482B98AE05F
:1008F0008A95F1F700C0449A8AE08A95F1F700C022
:1009000044988AE08A95F1F700C0789408958F9A08
:10091000F89482B98AE08A95F1F700C0449A8AE097
:100920008A95F1F700C044988AE08A95F1F700C0F3
:1009300078940895803110F4623008F0089590E4BE
:10094000699F800D112480588F98F89482B98AE0AD
:100950008A95F1F700C0449A9AE09A95F1F700C0A1
:1009600044988AE08A95F1F700C0789495EC9A95BE
:10097000F1F7000008953C9A879A8FEF81B98FE1D3
:100980009EE40197F1F700C000008F98F89488E387
:1009900082B99AE09A95F1F700C0449AEAE0EA95A4
:1009A000F1F700C04498FAE0FA95F1F700C07894A6
:1009B000EFE7F2E03197F1F700C000008F98F8946C
:1009C00082B9FAE0FA95F1F700C0449A9AE09A9554
:1009D000F1F700C04498EAE0EA95F1F700C0789496
:1009E000EFE7F2E03197F1F700C000008F98F8943C
:1009F00082B9FAE0FA95F1F700C0449A9AE09A9524
:100A0000F1F700C04498EAE0EA95F1F700C0789465
:100A1000EFE7F2E03197F1F700C000008F98F8940B
:100A200098E092B9FAE0FA95F1F700C0449A9AE09A
:100A30009A95F1F700C04498EAE0EA95F1F700C012
:100A40007894EFE7F2E03197F1F700C000008F985B
:100A5000F89491E092B9FAE0FA95F1F700C0449A5F
:100A60009AE09A95F1F700C04498EAE0EA95F1F728
:100A700000C07894EFE7FEE33197F1F700C0000083
:100A80008F98F89496E092B9FAE0FA95F1F700C0E1
:100A9000449A9AE09A95F1F700C04498EAE0EA9502
:100AA000F1F700C07894EFE7F2E03197F1F700C07A
:100AB00000008F98F89482B9FAE0FA95F1F700C037
:100AC000449A8AE08A95F1F700C044989AE09A9592
:100AD000F1F700C07894EFE8F1E03197F1F700C04A
:100AE00000008F98F8948CE082B9FAE0FA95F1F75B
:100AF00000C0449A8AE08A95F1F700C044989AE0D1
:100B00009A95F1F700C07894EFE8F1E03197F1F7AA
:100B100000C000000895DC019C91992301F120E0C0
:100B20008F9AF89492B98AE08A95F1F700C0449AB6
:100B30009AE09A95F1F700C044988AE08A95F1F717
:100B400000C078948FE792E00197F1F700C00000B1
:100B50002F5FFD01E20FF11D90819111E1CF08950A
:100B60001F93CF93DF93FC01892B09F466C045E006
:100B700011E02FE037E2E9012196CF01BE010E948A
:100B8000000961111DC02E173F0708F052C0112344
:100B9000A9F111E0CF01BE010E940009FC01ADECFA
:100BA000BCEC0E942E099C01369527953695279519
:100BB000369527954150F9F6DF91CF911F91089511
:100BC0002E173F07D8F0605D8F9AF89462B99AE0CB
:100BD0009A95F1F700C0449A8AE08A95F1F700C02F
:100BE00044989AE09A95F1F700C078948FE792E0E4
:100BF0000197F1F700C0000010E0D1CF605D8F9A3F
:100C0000F89462B99AE09A95F1F700C0449A8AE0A4
:100C10008A95F1F700C044989AE09A95F1F700C0E0
:100C200078948FE792E00197F1F700C0000010E0A0
:100C3000B1CF112341F211E0B2CF8F9AF89480E343
:100C400082B98AE08A95F1F700C0449A9AE09A95B1
:100C5000F1F700C044988AE08A95F1F700C07894D3
:100C60008FE792E00197F1F700C00000DF91CF918C
:100C70001F9108958F98F89481E082B98AE08A954F
:100C8000F1F700C0449A9AE09A95F1F700C04498B1
:100C90008AE08A95F1F700C078948FE79EE3019788
:100CA000F1F700C0000008955D9A5C980895262F22
:100CB0003FEF81110EC06303C001112464E670E0B0
:100CC0000E9414096093B30012169CF45C9A5D981C
:100CD00008956303C001112464E670E00E941409C2
:100CE00067BD12161CF45E9A5F9808955F9A5E982D
:100CF00008950C945406CF93DF93C3EBD0E0188291
:100D00000E94540617BC5F9A5E9884B1806984B9CA
:100D10008AB1806F8AB9E0EBF0E0808188668083D9
:100D200080818260808384B5886684BD84B582605A
:100D300084BD8AE087BD8883DF91CF9108955C9A56
:100D40005D982C9A5F9A5E982F9A08951F920F9241
:100D50000FB60F9211242F933F934F935F936F938E
:100D60007F938F939F93EF93FF9380916E014091B8
:100D700088005091890080FD30C08695E82FF0E012
:100D8000EE0FFF1FE958FE4F20813181240F351FE0
:100D9000309389002093880048B121E030E0B90108
:100DA00002C0660F771F8A95E2F7CB01842B88B9C2
:100DB00080916E018F5F877080936E01FF91EF913C
:100DC0009F918F917F916F915F914F913F912F9163
:100DD0000F900FBE0F901F9018958695E82FF0E0AA
:100DE000EE0FFF1FE159FE4F20813181240F351F87
:100DF000309389002093880048B121E030E0B901A8
:100E000002C0660F771F8A95E2F7CB018095842395
:100E100088B9CECF90E02AE0629FB00111246C53D4
:100E2000764F880F991FFC01E958FE4F718360834C
:100E3000FC01E159FE4F24ED30E3261B370B3183D3
:100E400020830895A7E7B1E024EC39E011963C93A4
:100E50002E93EFE6F1E080E197E291838083139691
:100E60003C932E9312979383828315963C932E93F3
:100E700014979583848317963C932E9316979783A4
:100E8000868387B18F6087B9E1E8F0E010828081C6
:100E900082608083EFE6F0E08081826080837894D6
:100EA00008958CB18095881F8827881F0895482F42
:100EB00050E04E30510510F080E00895FA01E25DF7
:100EC000FF4F0C94280923B130E08950A90102C0DA
:100ED000559547958A95E2F7CA018170089583B1C7
:100EE0008695817008952CB130E0A90102C0559516
:100EF00047958A95E2F7CA018170089522B330E0E0
:100F00008F5FA90102C0559547958A95E2F7CA01FE
:100F1000817008958CB186FB882780F9089523B1EC
:100F2000E3CF26B130E08250A90102C05595479524
:100F30008A95E2F7CA018170089583B1817008959E
:100F4000962F482F50E04E30510540F4FA01E45CF2
:100F5000FF4F0C942809611164C02198089544B191
:100F6000895021E030E0B90102C0660F771F8A95F1
:100F7000E2F79923F1F1CB01842B84B908954DB1A7
:100F800021E030E0B90102C0660F771F8A95E2F7D1
:100F9000992309F43FC0CB01842B8DB9089543B345
:100FA0008F5F21E030E0B90102C0660F771F8A959C
:100FB000E2F7992329F1CB01842B83BB08956623A3
:100FC000E9F06E9A089547B1825021E030E0B9010E
:100FD00002C0660F771F8A95E2F79923B1F0CB0123
:100FE000842B87B9089544B1BCCF6623C1F0209A01
:100FF0000895CB018095842384B908956E9808954F
:10100000CB018095842383BB0895CB0180958423F5
:1010100087B90895CB01809584238DB908952098D0
:101020000895219A0895962F482F50E04E3051058B
:1010300040F4FA01E65BFF4F0C942809611164C08B
:101040002998089545B1895021E030E0B90102C0E6
:10105000660F771F8A95E2F79923F1F1CB01842B74
:1010600085B908954EB121E030E0B90102C0660FA4
:10107000771F8A95E2F7992309F43FC0CB01842BAF
:101080008EB9089544B38F5F21E030E0B90102C00A
:10109000660F771F8A95E2F7992329F1CB01842BFC
:1010A00084BB08956623E9F0769A089548B182508A
:1010B00021E030E0B90102C0660F771F8A95E2F7A0
:1010C0009923B1F0CB01842B88B9089545B1BCCFE9
:1010D0006623C1F0289A0895CB018095842385B9B1
:1010E000089576980895CB018095842384BB089554
:1010F000CB018095842388B90895CB018095842302
:101100008EB9089528980895299A0895811104C0E8
:10111000613031F0A0980895613021F0A1980895D0
:10112000A09A0895A19A0895882311F0A19A08958C
:10113000A09A0895882311F0A1980895A098089581
:10114000529A83B3836083BB779A0E9448020E94BD
:10115000BB040E9422070E947B0641E06AE28CE108
:101160000E941E042FEF81EE94E0215080409040B9
:10117000E1F700C000000C9488020E94A0080E94C1
:1011800022070E94BB040E94FE010E943A068AE3E5
:1011900091E00E948B052FEF83ED90E3215080407A
:1011A0009040E1F700C000000E94E2012FEF8BE7C2
:1011B00092E9215080409040E1F700C000000E9479
:1011C000FE012FEF83ED90E3215080409040E1F746
:1011D00000C000000E94F0012FEF8BE792E9215040
:1011E00080409040E1F700C000000E94FE010E9494
:1011F0003A0685E491E00E948B0580E090E0089536
:10120000AA1BBB1B51E107C0AA1FBB1FA617B7072C
:1012100010F0A61BB70B881F991F5A95A9F7809548
:101220009095BC01CD01089597FB072E16F400940C
:1012300007D077FD09D00E94000907FC05D03EF4D5
:10124000909581959F4F0895709561957F4F089572
:10125000EE0FFF1F0590F491E02D0994A29FB001BD
:10126000B39FC001A39F700D811D1124911DB29FDA
:10127000700D811D1124911D08955058BB27AA2778
:101280000E9455090C94CF0A0E94C10A38F00E94AE
:10129000C80A20F039F49F3F19F426F40C94BE0AD2
:1012A0000EF4E095E7FB0C94B80AE92F0E94E00ADF
:1012B00058F3BA17620773078407950720F079F48B
:1012C000A6F50C94020B0EF4E0950B2EBA2FA02D70
:1012D0000B01B90190010C01CA01A0011124FF27E3
:1012E000591B99F0593F50F4503E68F11A16F040DE
:1012F000A22F232F342F4427585FF3CF46953795DD
:101300002795A795F0405395C9F77EF41F16BA0BA1
:10131000620B730B840BBAF09150A1F0FF0FBB1F4F
:10132000661F771F881FC2F70EC0BA0F621F731F98
:10133000841F48F4879577956795B795F7959E3FF5
:1013400008F0B0CF9395880F08F09927EE0F979586
:10135000879508950E94940A08F481E008950E94F8
:10136000C3090C94CF0A0E94C80A58F00E94C10A0F
:1013700040F029F45F3F29F00C94B80A51110C9405
:10138000030B0C94BE0A0E94E00A68F39923B1F3A0
:10139000552391F3951B550BBB27AA27621773079B
:1013A000840738F09F5F5F4F220F331F441FAA1F2F
:1013B000A9F335D00E2E3AF0E0E832D091505040EB
:1013C000E695001CCAF72BD0FE2F29D0660F771F99
:1013D000881FBB1F261737074807AB07B0E809F07F
:1013E000BB0B802DBF01FF2793585F4F3AF09E3F04
:1013F000510578F00C94B80A0C94030B5F3FE4F3AA
:10140000983ED4F3869577956795B795F7959F5F46
:10141000C9F7880F911D9695879597F90895E1E092
:10142000660F771F881FBB1F621773078407BA07F1
:1014300020F0621B730B840BBA0BEE1F88F7E0954C
:1014400008950E94280A6894B1110C94030B089522
:101450000E94E80A88F09F5798F0B92F9927B75152
:10146000B0F0E1F0660F771F881F991F1AF0BA9548
:10147000C9F714C0B13091F00E94020BB1E0089599
:101480000C94020B672F782F8827B85F39F0B93F8B
:10149000CCF3869577956795B395D9F73EF49095FB
:1014A0008095709561957F4F8F4F9F4F0895E89479
:1014B00009C097FB3EF490958095709561957F4F9C
:1014C0008F4F9F4F9923A9F0F92F96E9BB2793954A
:1014D000F695879577956795B795F111F8CFFAF45A
:1014E000BB0F11F460FF1BC06F5F7F4F8F4F9F4F8B
:1014F00016C0882311F096E911C0772321F09EE8E9
:10150000872F762F05C0662371F096E8862F70E04E
:1015100060E02AF09A95660F771F881FDAF7880F28
:101520009695879597F90895990F0008550FAA0B7E
:10153000E0E8FEEF16161706E807F907C0F01216E6
:101540001306E407F50798F0621B730B840B950BE9
:1015500039F40A2661F0232B242B252B21F408953E
:101560000A2609F4A140A6958FEF811D811D0895DB
:1015700097F99F6780E870E060E008959FEF80EC46
:10158000089500240A9416161706180609060895E9
:1015900000240A9412161306140605060895092E4F
:1015A0000394000C11F4882352F0BB0F40F4BF2BBE
:1015B00011F460FF04C06F5F7F4F8F4F9F4F0895FE
:1015C00057FD9058440F551F59F05F3F71F04795F4
:1015D000880F97FB991F61F09F3F79F087950895D9
:1015E000121613061406551FF2CF4695F1DF08C0F8
:1015F000161617061806991FF1CF86957105610515
:1016000008940895E894BB2766277727CB0197F9BC
:1016100008950E94940A08F48FEF08950E94210B08
:101620000C94CF0A0E94C10A38F00E94C80A20F028
:10163000952311F00C94B80A0C94BE0A11240C9452
:10164000030B0E94E00A70F3959FC1F3950F50E0E1
:10165000551F629FF001729FBB27F00DB11D639F64
:10166000AA27F00DB11DAA1F649F6627B00DA11D0A
:10167000661F829F2227B00DA11D621F739FB00DB0
:10168000A11D621F839FA00D611D221F749F332720
:10169000A00D611D231F849F600D211D822F762FB9
:1016A0006A2F11249F5750409AF0F1F088234AF096
:1016B000EE0FFF1FBB1F661F771F881F9150504002
:1016C000A9F79E3F510580F00C94B80A0C94030BC7
:1016D0005F3FE4F3983ED4F3869577956795B79589
:1016E000F795E7959F5FC1F7FE2B880F911D9695A3
:1016F000879597F90895AEE0B0E0E1E8FBE00C943F
:101700003C0E0D891E8986E08C831A8309838FEF36
:101710009FE79E838D83AE01475E5F4F6F89788D13
:10172000CE0101960E949D0BEF81F885E00FF11F1D
:1017300010822E96E4E00C94580EABE0B0E0E3EAA1
:10174000FBE00C942E0E6C017B018A01FC011782D8
:101750001682838181FFCCC1CE0101963C01F60146
:101760009381F70193FD859193FF81917F018823F8
:1017700009F4BAC1853239F493FD859193FF8191C3
:101780007F01853229F4B60190E00E94940DE7CFE5
:10179000912C212C312CFFE1F315D8F08B3279F00C
:1017A00038F4803279F08332A1F4232D20611DC0FA
:1017B0008D3261F0803369F4232D216016C0832DB2
:1017C0008260382EE32DE4603E2E2AC0F32DF860AF
:1017D0001DC037FC2DC020ED280F2A3040F08E327E
:1017E000B9F436FC81C1232D2064322E19C036FE97
:1017F00006C08AE0989E200D1124922E11C0EAE0C6
:101800002E9E200D1124222EF32DF0623F2E08C0B3
:101810008C3621F4832D8068382E02C0883641F43E
:10182000F70193FD859193FF81917F018111B3CFE2
:10183000982F9F7D9554933028F40C5F1F4F9FE3A2
:1018400099830DC0833631F0833771F0833509F009
:1018500059C021C0F801808189830E5F1F4F882401
:101860008394912C530113C02801F2E04F0E511CB8
:10187000F801A080B18036FE03C0692D70E002C07F
:101880006FEF7FEFC5010E94890D4C018201F32D9E
:10189000FF773F2E16C0280122E0420E511CF801AE
:1018A000A080B18036FE03C0692D70E002C06FEFEA
:1018B0007FEFC5010E947E0D4C01F32DF0683F2E95
:1018C000820133FC1BC0822D90E088169906B0F48B
:1018D000B60180E290E00E94940D2A94F4CFF501C5
:1018E00037FC859137FE81915F01B60190E00E943F
:1018F000940D21102A9421E0821A910881149104F8
:1019000071F7E8C0843611F0893641F5F80137FEE9
:1019100007C060817181828193810C5F1F4F08C075
:1019200060817181072E000C880B990B0E5F1F4F91
:10193000F32DFF763F2E97FF09C090958095709507
:1019400061957F4F8F4F9F4FF0683F2E2AE030E028
:10195000A3010E94D00D882E861845C0853731F42A
:10196000232D2F7EB22E2AE030E025C0932D997FC3
:10197000B92E8F36C1F018F4883579F0B5C08037AC
:1019800019F0883721F0B0C0E92FE061BE2EB4FE17
:101990000DC0FB2DF460BF2E09C034FE0AC0292FF4
:1019A0002660B22E06C028E030E005C020E130E01D
:1019B00002C020E132E0F801B7FE07C0608171810A
:1019C000828193810C5F1F4F06C06081718180E02E
:1019D00090E00E5F1F4FA3010E94D00D882E861845
:1019E000FB2DFF773F2E36FE0DC0232D2E7FA22E1E
:1019F000891458F434FE0BC032FC09C0832D8E7E4E
:101A0000A82E05C0B82CA32C03C0B82C01C0B92C3B
:101A1000A4FE0FC0FE01E80DF11D8081803321F48A
:101A20009A2D997EA92E09C0A2FE06C0B394B39444
:101A300004C08A2D867809F0B394A3FC11C0A0FEDF
:101A400006C0B21488F4280C922C9B180EC0B21455
:101A500060F4B60180E290E00E94940DB394F7CF59
:101A6000B21418F42B1802C0982C212CA4FE10C01C
:101A7000B60180E390E00E94940DA2FE17C0A1FC85
:101A800003C088E790E002C088E590E0B6010CC092
:101A90008A2D867859F0A1FE02C08BE201C080E257
:101AA000A7FC8DE2B60190E00E94940D891438F4F1
:101AB000B60180E390E00E94940D9A94F7CF8A9447
:101AC000F301E80DF11D8081B60190E00E94940DB4
:101AD0008110F5CF222009F442CEB60180E290E0D9
:101AE0000E94940D2A94F6CFF6018681978102C058
:101AF0008FEF9FEF2B96E2E10C944A0EFC010590CC
:101B0000615070400110D8F7809590958E0F9F1FFF
:101B10000895FC016150704001900110D8F7809544
:101B200090958E0F9F1F08950F931F93CF93DF9370
:101B3000FB01238121FD03C08FEF9FEF2CC022FF0B
:101B400016C046815781248135814217530744F4DA
:101B5000A081B1819D012F5F3F4F318320838C9302
:101B6000268137812F5F3F4F3783268314C08B0137
:101B7000EC01FB010084F185E02D0995892BE1F64C
:101B8000D80116968D919C911797019617969C9364
:101B90008E931697CE01DF91CF911F910F910895EB
:101BA000FA01AA27283051F1203181F1E8946F938E
:101BB0006E7F6E5F7F4F8F4F9F4FAF4FB1E03ED034
:101BC000B4E03CD0670F781F891F9A1FA11D680FD2
:101BD000791F8A1F911DA11D6A0F711D811D911D05
:101BE000A11D20D009F468943F912AE0269F11247A
:101BF0003019305D3193DEF6CF010895462F4770DE
:101C0000405D4193B3E00FD0C9F7F6CF462F4F7038
:101C1000405D4A3318F0495D31FD4052419302D096
:101C2000A9F7EACFB4E0A69597958795779567953C
:101C3000BA95C9F700976105710508959B01AC013C
:101C40000A2E06945795479537952795BA95C9F763
:101C5000620F731F841F951FA01D08952F923F923E
:101C60004F925F926F927F928F929F92AF92BF92AC
:101C7000CF92DF92EF92FF920F931F93CF93DF9358
:101C8000CDB7DEB7CA1BDB0B0FB6F894DEBF0FBEB5
:101C9000CDBF09942A88398848885F846E847D8402
:101CA0008C849B84AA84B984C884DF80EE80FD8004
:101CB0000C811B81AA81B981CE0FD11D0FB6F8947A
:0E1CC000DEBF0FBECDBFED010895F894FFCF3B
:101CCE004D25643A202564004D6F76696E67204677
:101CDE006F7277617264004D6F76696E6720426134
:101CEE00636B776172640053746F7070696E670016
:101CFE004C3A256420523A256400426F6F7374206B
:101D0E0054657374005465737420436F6D706C6505
:101D1E00746500616464724E41434B0077725F4E8E
:0E1D2E0041434B00726561644E41434B00001F
:00000001FF
