:100000000C9458000C9475000C94AB000C94C20036
:100010000C9475000C9475000C9475000C944307B7
:100020000C9475000C9475000C9475000C9475007C
:100030000C9475000C9475000C9475000C9475006C
:100040000C9475000C9475000C9475000C9475005C
:100050000C9475000C9475000C9475001008100831
:100060001B081B0827082C082C082E082E082E0811
:100070003A08000800080C085C085C086C086C086A
:100080007C089008900880088008800892084C0836
:100090004C084808CF08CF08DF08DF08EF0803093D
:1000A0000309F308F308F3080509BF08BF08BB08F4
:1000B00011241FBECFEFD0E1DEBFCDBF11E0A0E025
:1000C000B1E0E6EDF3E102C005900D92A239B1076F
:1000D000D9F721E0A2E9B1E001C01D92A83AB20728
:1000E000E1F70E945A090C94E9090C94000010925F
:1000F00096011092950110929401109293010E9422
:10010000D70660E080E00E94370580E091E00E9421
:10011000280669E882E00E94A70769E883E00E9458
:10012000A7072FEF87EA91E6215080409040E1F742
:1001300000C0000008958DB380638DBBECE6F0E055
:10014000808180628083EBE6F0E080818064808340
:10015000769A2D9A08951F920F920FB60F9211243E
:100160008F939F9380919501909196010196909322
:100170009601809395019F918F910F900FBE0F90E4
:100180001F9018951F920F920FB60F9211248F9304
:100190009F93809193019091940101969093940183
:1001A000809393019F918F910F900FBE0F901F909E
:1001B0001895CF93DF93EC01109296011092950160
:1001C00010929401109293016EE183E00E94A707C0
:1001D00080919301909194018C179D0770F50E9476
:1001E000D70660E080E00E94370584E091E00E943D
:1001F000280680919501909196010E944D0661E03C
:1002000080E00E94370581E091E00E9428068091FD
:100210009301909194010E944D062FEF81EE94E09E
:10022000215080409040E1F700C000008091930190
:10023000909194018C179D0790F260E080E00E94FD
:10024000F40660E081E0DF91CF910C94F406CF9347
:10025000DF93EC0110929601109295011092940197
:10026000109293016EE183E00E94A70780919501AF
:10027000909196018C179D0770F50E94D70660E05B
:1002800080E00E94370584E091E00E94280680917A
:100290009501909196010E944D0661E080E00E94D8
:1002A000370581E091E00E942806809193019091AA
:1002B00094010E944D062FEF81EE94E02150804082
:1002C0009040E1F700C00000809195019091960167
:1002D0008C179D0790F260E080E00E94F40660E0D9
:1002E00081E0DF91CF910C94F4066FE782E00E94E9
:1002F000A7076FE783E00C94A707CF93DF93EC0188
:10030000109296011092950110929401109293010F
:1003100066EB82E00E94A7076DE483E00E94A707D6
:1003200027C00E94D70660E080E00E94370584E085
:1003300091E00E94280680919501909196010E947B
:100340004D0661E080E00E94370581E091E00E9467
:10035000280680919301909194010E944D062FEF01
:1003600081EE94E0215080409040E1F700C0000011
:1003700080919501909196018C179D0790F2809144
:100380009301909194018C179D0758F2DF91CF91C2
:100390000C947501CF93DF930E94D70660E080E054
:1003A0000E94370587E091E00E9428062FEF83ED39
:1003B00090E3215080409040E1F700C000000E948F
:1003C000D70660E080E00E94370586E191E00E9458
:1003D00028062FEF83ED90E3215080409040E1F715
:1003E00000C0000089E590E00E947D010E94750137
:1003F000C3E0D0E00E94D70660E080E00E943705AD
:100400008FE191E00E9428062FEF83ED90E32150C9
:1004100080409040E1F700C0000082E390E00E943D
:10042000D9000E9475010E94D70660E080E00E941A
:10043000370586E191E00E9428062FEF83ED90E3D7
:10044000215080409040E1F700C0000089E590E035
:100450000E947D010E947501219761F6DF91CF9185
:100460000895CF93C82F84E291E00E9428062FEFD1
:100470008BE792E9215080409040E1F700C00000F6
:10048000C11102C0CF910895CF910C947700CF9302
:10049000DF930E94D70660E080E00E94370588E283
:1004A00091E00E9428062FEF83ED90E321508040D9
:1004B0009040E1F700C000000E94D70660E080E0B5
:1004C0000E94370587E391E00E9428062FEF83ED15
:1004D00090E3215080409040E1F700C00000C6E06A
:1004E000D0E08FE090E00E947D0184E291E00E94E4
:1004F00028062FEF8BE792E9215080409040E1F7EA
:1005000000C000000E947700219759F70E94D7068B
:1005100060E080E00E9437058EE391E00E942806AB
:100520002FEF83ED90E3215080409040E1F700C031
:10053000000089E590E00E947D0189E590E00E943D
:100540007D0189E590E00E947D010E94D70660E070
:1005500080E00E94370581E491E00E9428062FEF99
:1005600083ED90E3215080409040E1F700C000000F
:10057000C6E0D0E08FE090E00E947D0184E291E04F
:100580000E9428062FEF8BE792E92150804090408F
:10059000E1F700C000000E947700219759F70E9400
:1005A000D70660E080E00E94370588E491E00E9471
:1005B00028062FEF87EA91E6215080409040E1F72E
:1005C00000C00000DF91CF910895EAE7F0E080815C
:1005D00087688083ECE7F0E08081806680830895FF
:1005E00090917C00987F90937C0090917C00892B67
:1005F00080937C0080917A00806480937A0080915F
:100600007A0086FDFCCF8091790008958DB18F7CB2
:100610008DB985E08A95F1F700006D9A759885E0AF
:100620008A95F1F700006C9A749885E08A95F1F745
:10063000000008956C9885E08A95F1F700006D98A8
:1006400085E08A95F1F7000008956D9885E08A9518
:10065000F1F7000065990DC06C9885E08A95F1F777
:1006600000006C9A749885E08A95F1F70000659B0C
:10067000F3CF6C9808956C9885E08A95F1F70000A7
:100680006C9A749885E08A95F1F7000008951F939D
:10069000CF93DF93D82FC62F142F0E9425030E94DB
:1006A000060387E013C06D9895E09A95F1F7000076
:1006B0006C9895E09A95F1F700006C9A749895E023
:1006C0009A95F1F70000DD0F815029F0D6FDEBCFB0
:1006D0006D9A7598E9CF6D9A759885E08A95F1F7CE
:1006E00000006C9895E09A95F1F700006C9A749868
:1006F00085E08A95F1F700006D9895E09A95F1F7FD
:1007000000006C98659B05C087E791E00E94280671
:10071000FFCF85E08A95F1F700006C9A749895E018
:100720009A95F1F7000088E014C06D9A759895E0ED
:100730009A95F1F700006C9895E09A95F1F7000012
:100740006C9A749895E09A95F1F70000CC0F81505F
:1007500021F0C7FFEACF6D98EACF6D9885E08A95C2
:10076000F1F700006C98659B05C083E891E00E945A
:100770002806FFCF95E09A95F1F700006C9A7498DF
:1007800085E08A95F1F70000112351F06C9895E00F
:100790009A95F1F700006D9885E08A95F1F70000D1
:1007A000DF91CF911F910895FC016623D1F14FEFA6
:1007B000460F50E04F5F5F4F480F591F908128E070
:1007C00016C06D9A759885E08A95F1F700006C98CF
:1007D00085E08A95F1F700006C9A749885E08A9517
:1007E000F1F700009081990F9083215021F097FF3D
:1007F000E8CF6D98E8CF31966D9885E08A95F1F74E
:1008000000006C98659918C085E08A95F1F70000A2
:100810006C9A749885E08A95F1F70000E417F50763
:1008200069F66C9885E08A95F1F700006D9885E08F
:100830008A95F1F70000089580E891E00E9428066B
:10084000FFCF0F931F93CF93DF93082FEB01142F4C
:100850000E94060387E013C06D9895E09A95F1F722
:1008600000006C9895E09A95F1F700006C9A7498E6
:1008700095E09A95F1F70000000F815029F006FDF0
:10088000EBCF6D9A7598E9CF6D9885E08A95F1F771
:1008900000006C9895E09A95F1F700006C9A7498B6
:1008A00085E08A95F1F700006D9895E09A95F1F74B
:1008B00000006C98659B05C088E891E00E942806BE
:1008C000FFCF85E08A95F1F700006C9A749895E067
:1008D0009A95F1F700006D9885E08A95F1F7000090
:1008E0001123B1F12FEF210F30E02F5F3F4F2C0F7D
:1008F0003D1F98E08881880F88836C9885E08A95F1
:10090000F1F70000659B03C088818160888385E0E2
:100910008A95F1F700006C9A749885E08A95F1F752
:100920000000915039F76D9A759895E09A95F1F716
:1009300000006C9885E08A95F1F700006C9A749835
:1009400095E09A95F1F7000021962C173D0789F65E
:1009500095E09A95F1F700006C9885E08A95F1F79B
:1009600000006D9895E09A95F1F70000DF91CF9126
:100970001F910F910895CF93DF931F92CDB7DEB7EC
:10098000498340E00E94470361E0CE0101960E9446
:10099000D4030F90DF91CF9108951F93CF93DF93EE
:1009A0001F92CDB7DEB7182F41E00E94470341E008
:1009B000BE016F5F7F4F812F0E94210489810F90BC
:1009C000DF91CF911F91089561E08CE10C94CD04EB
:1009D00063E08CE10C94CD0465E08CE10C94CD04D3
:1009E0008AE08A95F1F700C0449A8AE08A95F1F787
:1009F00000C044988AE08A95F1F700C00895F89401
:100A000082B98AE08A95F1F700C0449A8AE08A9513
:100A1000F1F700C044988AE08A95F1F700C0789415
:100A200008958F98F89482B98AE08A95F1F700C00A
:100A3000449A8AE08A95F1F700C044988AE08A9542
:100A4000F1F700C0789408958F9AF89482B98AE0FB
:100A50008A95F1F700C0449A8AE08A95F1F700C0C0
:100A600044988AE08A95F1F700C07894089580311F
:100A700010F4623008F0089590E4699F800D11240D
:100A800080588F98F89482B98AE08A95F1F700C06F
:100A9000449A9AE09A95F1F700C044988AE08A95C2
:100AA000F1F700C0789495EC9A95F1F7000008955D
:100AB0003C9A879A8FEF81B98FE19EE40197F1F715
:100AC00000C000008F98F89488E382B99AE09A9564
:100AD000F1F700C0449AEAE0EA95F1F700C04498C3
:100AE000FAE0FA95F1F700C07894EFE7F2E0319779
:100AF000F1F700C000008F98F89482B9FAE0FA95F7
:100B0000F1F700C0449A9AE09A95F1F700C0449832
:100B1000EAE0EA95F1F700C07894EFE7F2E0319768
:100B2000F1F700C000008F98F89482B9FAE0FA95C6
:100B3000F1F700C0449A9AE09A95F1F700C0449802
:100B4000EAE0EA95F1F700C07894EFE7F2E0319738
:100B5000F1F700C000008F98F89498E092B9FAE09D
:100B6000FA95F1F700C0449A9AE09A95F1F700C01F
:100B70004498EAE0EA95F1F700C07894EFE7F2E0F4
:100B80003197F1F700C000008F98F89491E092B986
:100B9000FAE0FA95F1F700C0449A9AE09A95F1F7D5
:100BA00000C04498EAE0EA95F1F700C07894EFE7D6
:100BB000FEE33197F1F700C000008F98F89496E0BB
:100BC00092B9FAE0FA95F1F700C0449A9AE09A9542
:100BD000F1F700C04498EAE0EA95F1F700C0789494
:100BE000EFE7F2E03197F1F700C000008F98F8943A
:100BF00082B9FAE0FA95F1F700C0449A8AE08A9542
:100C0000F1F700C044989AE09A95F1F700C0789403
:100C1000EFE8F1E03197F1F700C000008F98F89409
:100C20008CE082B9FAE0FA95F1F700C0449A8AE0C4
:100C30008A95F1F700C044989AE09A95F1F700C0C0
:100C40007894EFE8F1E03197F1F700C000000895E3
:100C5000DC019C91992301F120E08F9AF89492B9DC
:100C60008AE08A95F1F700C0449A9AE09A95F1F7E4
:100C700000C044988AE08A95F1F700C078948FE725
:100C800092E00197F1F700C000002F5FFD01E20F35
:100C9000F11D90819111E1CF08951F93CF93DF93C0
:100CA000FC01892B09F466C045E011E02FE037E232
:100CB000E9012196CF01BE010E94AC0961111DC05E
:100CC0002E173F0708F052C01123A9F111E0CF0100
:100CD000BE010E94AC09FC01ADECBCEC0E94DA093B
:100CE0009C01369527953695279536952795415041
:100CF000F9F6DF91CF911F9108952E173F07D8F095
:100D0000605D8F9AF89462B99AE09A95F1F700C005
:100D1000449A8AE08A95F1F700C044989AE09A953F
:100D2000F1F700C078948FE792E00197F1F700C0E7
:100D3000000010E0D1CF605D8F9AF89462B99AE01C
:100D40009A95F1F700C0449A8AE08A95F1F700C0BD
:100D500044989AE09A95F1F700C078948FE792E072
:100D60000197F1F700C0000010E0B1CF112341F26C
:100D700011E0B2CF8F9AF89480E382B98AE08A9525
:100D8000F1F700C0449A9AE09A95F1F700C04498B0
:100D90008AE08A95F1F700C078948FE792E0019796
:100DA000F1F700C00000DF91CF911F9108958F9857
:100DB000F89481E082B98AE08A95F1F700C0449AFC
:100DC0009AE09A95F1F700C044988AE08A95F1F785
:100DD00000C078948FE79EE30197F1F700C0000010
:100DE00008955D9A5C980895262F3FEF81110EC0FB
:100DF0006303C001112464E670E00E94C00960939F
:100E0000B30012169CF45C9A5D9808956303C001C8
:100E1000112464E670E00E94C00967BD12161CF43C
:100E20005E9A5F9808955F9A5E9808950C94F10613
:100E3000CF93DF93C3EBD0E018820E94F10617BC7A
:100E40005F9A5E9884B1806984B98AB1806F8AB9EB
:100E5000E0EBF0E08081886680838081826080831F
:100E600084B5886684BD84B5826084BD8AE087BD10
:100E70008883DF91CF9108955C9A5D982C9A5F9A50
:100E80005E982F9A08951F920F920FB60F92112419
:100E90002F933F934F935F936F937F938F939F9382
:100EA000EF93FF93809197014091880050918900C2
:100EB00080FD30C08695E82FF0E0EE0FFF1FE05672
:100EC000FE4F20813181240F351F309389002093FC
:100ED000880048B121E030E0B90102C0660F771FF9
:100EE0008A95E2F7CB01842B88B9809197018F5FB7
:100EF000877080939701FF91EF919F918F917F91E0
:100F00006F915F914F913F912F910F900FBE0F9076
:100F10001F9018958695E82FF0E0EE0FFF1FE8561A
:100F2000FE4F20813181240F351F3093890020939B
:100F3000880048B121E030E0B90102C0660F771F98
:100F40008A95E2F7CB018095842388B9CECF90E0D3
:100F50002AE0629FB00111246C53764F880F991FCD
:100F6000FC01E056FE4F71836083FC01E856FE4FA2
:100F700024ED30E3261B370B318320830895A0EA4C
:100F8000B1E024EC39E011963C932E93E8E9F1E0CE
:100F900080E197E29183808313963C932E9312977E
:100FA0009383828315963C932E9314979583848321
:100FB00017963C932E9316979783868387B18F60FD
:100FC00087B9E1E8F0E01082808182608083EFE6FB
:100FD000F0E0808182608083789408958CB1809560
:100FE000881F8827881F0895482F50E04E305105EC
:100FF00010F080E00895FA01E25DFF4F0C94D409EF
:1010000023B130E08950A90102C0559547958A95D2
:10101000E2F7CA018170089583B1869581700895C1
:101020002CB130E0A90102C0559547958A95E2F7A9
:10103000CA018170089522B330E08F5FA90102C018
:10104000559547958A95E2F7CA01817008958CB14C
:1010500086FB882780F9089523B1E3CF26B130E0DD
:101060008250A90102C0559547958A95E2F7CA01B9
:101070008170089583B181700895962F482F50E0B4
:101080004E30510540F4FA01E45CFF4F0C94D40952
:10109000611164C02198089544B1895021E030E085
:1010A000B90102C0660F771F8A95E2F79923F1F123
:1010B000CB01842B84B908954DB121E030E0B90112
:1010C00002C0660F771F8A95E2F7992309F43FC0A3
:1010D000CB01842B8DB9089543B38F5F21E030E0BD
:1010E000B90102C0660F771F8A95E2F7992329F1AB
:1010F000CB01842B83BB08956623E9F06E9A089593
:1011000047B1825021E030E0B90102C0660F771F7D
:101110008A95E2F79923B1F0CB01842B87B9089522
:1011200044B1BCCF6623C1F0209A0895CB018095CD
:10113000842384B908956E980895CB018095842303
:1011400083BB0895CB018095842387B90895CB0193
:10115000809584238DB9089520980895219A089543
:10116000962F482F50E04E30510540F4FA01E65BCF
:10117000FF4F0C94D409611164C02998089545B1BA
:10118000895021E030E0B90102C0660F771F8A95CF
:10119000E2F79923F1F1CB01842B85B908954EB183
:1011A00021E030E0B90102C0660F771F8A95E2F7AF
:1011B000992309F43FC0CB01842B8EB9089544B321
:1011C0008F5F21E030E0B90102C0660F771F8A957A
:1011D000E2F7992329F1CB01842B84BB0895662380
:1011E000E9F0769A089548B1825021E030E0B901E3
:1011F00002C0660F771F8A95E2F79923B1F0CB0101
:10120000842B88B9089545B1BCCF6623C1F0289AD4
:101210000895CB018095842385B908957698089523
:10122000CB018095842384BB0895CB0180958423D2
:1012300088B90895CB01809584238EB908952898A4
:101240000895299A0895811104C0613031F0A09861
:101250000895613021F0A1980895A09A0895A19A67
:101260000895882311F0A19A0895A09A08958823DB
:1012700011F0A1980895A0980895529A83B38360BD
:1012800083BB779A0E94E5020E9458050E94BF071F
:101290000E94180741E06AE28CE10E94BB042FEF34
:1012A00081EE94E0215080409040E1F700C00000C2
:1012B0000C9425030E943D090E9458050E94BF0717
:1012C0008DB380638DBB80916C00806280936C00D5
:1012D00080916B00806480936B00769A2D9A0E94B7
:1012E000750185E00E94F40760E085E00E943D08FA
:1012F00084E00E94F40760E084E00E943D080E94C0
:10130000D70660E080E00E94370589E591E00E9401
:10131000280661E080E00E94370589E691E00E949E
:10132000280609C02FEF81EE94E0215080409040C4
:10133000E1F700C000000E94D70660E080E00E9454
:10134000370580E791E00E9428060E94EE07882377
:1013500049F30E944702E6CFAA1BBB1B51E107C01D
:10136000AA1FBB1FA617B70710F0A61BB70B881F35
:10137000991F5A95A9F780959095BC01CD010895C4
:1013800097FB072E16F4009407D077FD09D00E9432
:10139000AC0907FC05D03EF4909581959F4F0895C8
:1013A000709561957F4F0895EE0FFF1F0590F491A2
:1013B000E02D0994A29FB001B39FC001A39F700DBF
:1013C000811D1124911DB29F700D811D1124911D4D
:0613D0000895F894FFCF20
:1013D60054523A004C3A005371756172652050615F
:1013E600747465726E005374726169676874004C38
:1013F6006566740041474C00426F777469652050FA
:1014060061747465726E004C6F6F702031004D53BD
:10141600004C6F6F70203200426F7774696520430D
:101426006F6D706C657465210050726573732074FE
:101436006F20746F67676C65005371756172650024
:101446004C4520204E4F00616464724E41434B0070
:1014560077725F4E41434B00726561644E41434B68
:02146600000084
:00000001FF
