:100000000C946C000C9489000C9489000C94890069
:100010000C9489000C9489000C9489000C94280C91
:100020000C9489000C9489000C9489000C9489002C
:100030000C9489000C9489000C9489000C9489001C
:100040000C9489000C9489000C9489000C9489000C
:100050000C9489000C9489000C948900F50CF50C23
:10006000000D000D0C0D110D110D130D130D130DC1
:100070001F0DE50CE50CF10C410D410D510D510D1D
:10008000610D750D750D650D650D650D770D310DE6
:10009000310D2D0DB40DB40DC40DC40DD40DE80DEE
:1000A000E80DD80DD80DD80DEA0DA40DA40DA00DA6
:1000B00007634236B79BD8A71A39685618AEBAAB51
:1000C000558C1D3CB7CC5763BD6DEDFD753EF617E5
:1000D0007231BF000000803F11241FBECFEFD0E17E
:1000E000DEBFCDBF11E0A0E0B1E0E6EBFCE202C074
:1000F00005900D92A43EB107D9F722E0A4EEB1E03D
:1001000001C01D92AA35B207E1F70E943F0E0C9480
:1001100059160C9400002FEF83EC99E02150804099
:100120009040E1F700C0000006C08FE39CE9019712
:10013000F1F700C000000E94D30C8111F6CF81E0DE
:100140000895CF93DF930E940B13C6E0D2E0BC0169
:10015000990F880B990B0E94FA0F20E03EEF4FEFAA
:1001600056E40E94160F688379838A839B830E94DA
:100170000B13BC01990F880B990B0E94FA0F20E01A
:100180003EEF4FEF56E40E94160F6C837D838E8303
:100190009F830E940B13BC01990F880B990B0E943F
:1001A000FA0F20E03EEF4FEF56E40E94160F6887EB
:1001B00079878A879B870E940B13BC01990F880B54
:1001C000990B0E94FA0F20E03EEF4FEF56E40E9499
:1001D000160F6C877D878E879F870E940B13C6E161
:1001E000D2E0BC01990F880B990B0E94FA0F20E016
:1001F0003EEF4FEF56E40E94160F688379838A839F
:100200009B830E940B13BC01990F880B990B0E94D2
:10021000FA0F20E03EEF4FEF56E40E94160F6C837A
:100220007D838E839F830E940B13BC01990F880BE3
:10023000990B0E94FA0F20E03EEF4FEF56E40E9428
:10024000160F688779878A879B870E940B13BC01EA
:10025000990F880B990B0E94FA0F20E03EEF4FEFA9
:1002600056E40E94160F6C877D878E879F870E94B9
:100270000B13C6E2D2E0BC01990F880B990B0E94C8
:10028000FA0F20E03EEF4FEF56E40E94160F68830E
:1002900079838A839B830E940B13BC01990F880B7F
:1002A000990B0E94FA0F20E03EEF4FEF56E40E94B8
:1002B000160F6C837D838E839F830E940B13BC017A
:1002C000990F880B990B0E94FA0F20E03EEF4FEF39
:1002D00056E40E94160F688779878A879B870E9459
:1002E0000B13BC01990F880B990B0E94FA0F20E0A9
:1002F0003EEF4FEF56E40E94160F6C877D878E8786
:100300009F870E940B13C6EFD1E0BC01990F880BA9
:10031000990B0E94FA0F20E03EEF4FEF56E40E9447
:10032000160F688379838A839B830E940B13BC0119
:10033000990F880B990B0E94FA0F20E03EEF4FEFC8
:1003400056E40E94160F6C837D838E839F830E94E8
:100350000B13BC01990F880B990B0E94FA0F20E038
:100360003EEF4FEF56E40E94160F688779878A8721
:100370009B870E940B13BC01990F880B990B0E945D
:10038000FA0F20E03EEF4FEF56E40E94160F6C8705
:100390007D878E879F870E940B13C6E3D2E0BC0146
:1003A000990F880B990B0E94FA0F20E03EEF4FEF58
:1003B00056E40E94160F688379838A839B830E9488
:1003C0000B13BC01990F880B990B0E94FA0F20E0C8
:1003D0003EEF4FEF56E40E94160F6C837D838E83B1
:1003E0009F830E940B13BC01990F880B990B0E94ED
:1003F000FA0F20E03EEF4FEF56E40E94160F688799
:1004000079878A879B870E940B13BC01990F880B01
:10041000990B0E94FA0F20E03EEF4FEF56E40E9446
:10042000160F6C877D878E879F87DF91CF91089508
:100430006FE782E00E948C0C6FE783E00C948C0CD9
:1004400090580E94900F20E030E040E85FE30E9467
:10045000AA0E9B01AC0160E070E080E89FE30E947F
:10046000160F0895CF93DF93C62F682F70E080E0BA
:1004700090E00E94FA0F20E030E040E05FE30E944D
:10048000231120E030E04EEF52E40E94AA0E0E94B9
:10049000C90FD62F6C2F70E080E090E00E94FA0F19
:1004A00020E030E040E05FE30E94231120E030E0F4
:1004B0004EEF52E40E94AA0E0E94C90F962F8D2F74
:1004C000DF91CF910895CF92DF92EF92FF920F9339
:1004D0001F93CF93DF93C82FD0E0C61BD109809123
:1004E000F1019091F2019093F4018093F3018091D6
:1004F000EF019091F0019093F2018093F1018091CE
:10050000ED019091EE019093F0018093EF018091C5
:10051000EB019091EC019093EE018093ED01D0936B
:10052000EC01C093EB018091E9019091EA018E0109
:10053000081B190B8091E7019091E8018C0F9D1F1A
:10054000833391050CF457C082E390E09093E80167
:100550008093E7019DECC92E9CECD92E9CE4E92EFA
:100560009DE3F92EBE010D2E000C880B990B0E9405
:10057000FA0F2DEC3CEC4CE45EE30E942311A70142
:1005800096010E94AA0E6B017C01B801110F880B25
:10059000990B0E94FA0F2DEC3CEC4CE45DE30E94B9
:1005A00023119B01AC01C701B6010E94AA0E0E9453
:1005B000C20FAB0141585F4F2FE730E0261B370BCE
:1005C00057FD2CC04F3F510571F16CF18FEF37FD96
:1005D00028C02F3F310549F144F19FEFD093EA0144
:1005E000C093E901DF91CF911F910F91FF90EF90A0
:1005F000DF90CF9008958E3C2FEF9207C4F48EECDD
:100600009FEF9093E8018093E7018DECC82E8CEC6E
:10061000D82E8CE4E82E8DEBF82EA4CF80E037FFA7
:10062000D8CF90E0DBCF842FD2CF922FD7CF90932B
:10063000E8018093E701BC01990F880B990B0E9498
:10064000FA0F2FE632E143E85AE30E9423116B01CF
:100650007C0188CF4F925F926F927F928F929F9290
:10066000AF92BF92CF92DF92EF92FF92CF93DF9340
:1006700000D000D0CDB7DEB76983682F70E080E08E
:1006800090E00E94FA0F4B015C012981622F70E01B
:1006900080E090E00E94FA0F6B017C01E6E0F2E05E
:1006A0002081318142815381C501B4010E9423110F
:1006B0002B013C0120910A0230910B0240910C0267
:1006C00050910D02C701B6010E9423119B01AC019C
:1006D000C301B2010E94AA0E2091120230911302AE
:1006E00040911402509115020E94AA0E90580E9447
:1006F000900F69837A838B839C83E6E1F2E020810B
:10070000318142815381C501B4010E9423112B0123
:100710003C0120911A0230911B0240911C02509121
:100720001D02C701B6010E9423119B01AC01C30148
:10073000B2010E94AA0E2091220230912302409120
:100740002402509125020E94AA0E90580E94900FF8
:100750002B013C01E6E2F2E02081318142815381AC
:10076000C501B4010E9423114B015C0120912A02B2
:1007700030912B0240912C0250912D02C701B601FD
:100780000E9423119B01AC01C501B4010E94AA0E75
:10079000209132023091330240913402509135025F
:1007A0000E94AA0E90580E94900F6B017C0120E0DD
:1007B00030E040E85FE369817A818B819C810E940F
:1007C000AA0E9B01AC0160E070E080E89FE30E940C
:1007D000160FE6EFF1E020813181428153810E94C2
:1007E00023114B015C0120E030E040E85FE3C301EE
:1007F000B2010E94AA0E9B01AC0160E070E080E8AB
:100800009FE30E94160F2091FA013091FB01409165
:10081000FC015091FD010E9423119B01AC01C50117
:10082000B4010E94AA0E4B015C0120E030E040E8D8
:100830005FE3C701B6010E94AA0E9B01AC0160E014
:1008400070E080E89FE30E94160F2091FE01309136
:10085000FF0140910002509101020E9423119B016F
:10086000AC01C501B4010E94AA0E20910202309190
:10087000030240910402509105020E94AA0E905872
:100880000E94900F20E030E040E85FE30E94AA0E53
:100890009B01AC0160E070E080E89FE30E94160FCE
:1008A00020E030E04FE753E40E9423110E94C90F7B
:1008B000962F862F0F900F900F900F90DF91CF9172
:1008C000FF90EF90DF90CF90BF90AF909F908F9070
:1008D0007F906F905F904F9008954F925F926F92CC
:1008E0007F928F929F92AF92BF92CF92DF92EF92C0
:1008F000FF920F931F936A017B0148015901682FF2
:1009000070E080E090E00E94FA0FA70196010E943B
:10091000A90E2B013C01A701960160E070E080E880
:100920009FE30E94A90EA70196010E9423119B013B
:10093000AC01C301B2010E942311A50194010E94E0
:1009400023111F910F91FF90EF90DF90CF90BF90F8
:10095000AF909F908F907F906F905F904F90089591
:100960002F923F924F925F926F927F928F929F92BF
:10097000AF92BF92CF92DF92EF92FF920F931F93AD
:10098000CF93DF93CDB7DEB760970FB6F894DEBF95
:100990000FBECDBF0E94BC0B60E080E00E941C0A2D
:1009A0008AE091E00E940D0B61E080E00E941C0A49
:1009B0008FE091E00E940D0B2FEF83ED90E321502B
:1009C00080409040E1F700C000000E94BC0B0E94F4
:1009D000180284E690E00E949E111C017C0100E058
:1009E00010E0FE0139966F01CE0101964C018AE1BB
:1009F000A82E81E0B82E92E2692E91E0792E83E054
:100A00000E94D507482E84E00E94D507582EF70192
:100A100041927F0180830F5F1F4F1F930F931F929F
:100A20004F92BF92AF92DF92CF920E941B131F9200
:100A30005F927F926F929F928F920E941B130E94EF
:100A4000BC0B60E080E00E941C0AC6010E940D0BF6
:100A500061E080E00E941C0AC4010E940D0BFFEFC0
:100A600021EE84E0F15020408040E1F700C000001A
:100A70000E94BC0B0FB6F894DEBF0FBECDBF04368C
:100A8000110509F0BCCF0E94BC0B60E080E00E9421
:100A90001C0A8FE091E00E940D0B61E080E00E9453
:100AA0001C0A87E291E00E940D0BFFEF23ED80E32B
:100AB000F15020408040E1F700C000000E94BC0BD4
:100AC000C10160960FB6F894DEBF0FBECDBFDF91B7
:100AD000CF911F910F91FF90EF90DF90CF90BF903B
:100AE000AF909F908F907F906F905F904F903F90CE
:100AF0002F900895CF93DF93EC010E941802698133
:100B000088810E946302DF91CF9108950E94D30CE7
:100B1000811102C080E008950C948B000F931F9305
:100B2000CF930E94BC0B60E080E00E941C0A8CE224
:100B300091E00E940D0B61E080E00E941C0A8CE3B2
:100B400091E00E940D0B2FEF33ED80E321503040F8
:100B50008040E1F700C000000E94BC0B60E080E034
:100B60000E941C0A8BE491E00E940D0B04E610E049
:100B700033C0C95CC13308F447C097E3980F9D3177
:100B800078F40A30110508F47EC00A5011099FEF6D
:100B900021EE34E0915020403040E1F700C00000E9
:100BA0008551813308F463C061E080E00E941C0A33
:100BB000C8010E94320B84E591E00E940D0B0E9457
:100BC000D30C81112DC03FEF80E792E0315080407F
:100BD0009040E1F700C000000E94CD09C82F0E949C
:100BE000C90991EE9C0F973220F6015011099FEF31
:100BF00021EE34E0915020403040E1F700C0000089
:100C0000C95CC13308F0B9CF0F5F1F4F9FEF21EED2
:100C100034E0915020403040E1F700C00000ADCFFB
:100C20000E948B00882379F20E94BC0B60E080E078
:100C30000E941C0A8CE591E00E940D0B61E080E0AF
:100C40000E941C0AC8010E94320B8BE691E00E94B0
:100C50000D0B2FEF33ED80E3215030408040E1F762
:100C600000C00000C801CF911F910F910895065F49
:100C70001F4F8FEF91EE24E0815090402040E1F72C
:100C800000C0000091CF00E010E081CF8F929F92D2
:100C9000AF92BF92CF92DF92EF92FF920F931F938A
:100CA000CF93DF93CDB7DEB760970FB6F894DEBF72
:100CB0000FBECDBF0E94BC0B60E080E00E941C0A0A
:100CC00087E791E00E940D0B2FEF33ED80E3215079
:100CD00030408040E1F700C000008091E6018111C2
:100CE00063C08E01075F1F4F9E012F5F3F4F490179
:100CF00084E8A82E81E0B82E92E2C92E91E0D92E88
:100D00000AC08FE19EE40197F1F700C000008091D6
:100D1000E601811149C083E00E94D507F82E84E0E6
:100D20000E94D507E82E1F92FF92BF92AF921F93A9
:100D30000F930E941B131F92EF92DF92CF929F920C
:100D40008F920E941B130E94BC0B60E080E00E9407
:100D50001C0AC8010E940D0B61E080E00E941C0A81
:100D6000C4010E940D0B6E2D8F2D0E946302F92E7F
:100D7000682F82E00E948C0C6F2D83E00E948C0C07
:100D80000E94D30C0FB6F894DEBF0FBECDBF8823F0
:100D900009F4B7CF0E948B00882309F4B2CF81E019
:100DA0008093E6010E94180260960FB6F894DEBFA9
:100DB0000FBECDBFDF91CF911F910F91FF90EF90AC
:100DC000DF90CF90BF90AF909F908F9008950E943A
:100DD000B0049093E5018093E40182E08093E60102
:100DE0000895CF93DF938091E4019091E501892BE1
:100DF00009F467C00E94BC0B60E080E00E941C0AFE
:100E000082E991E00E940D0B2FEF83ED90E32150DA
:100E100080409040E1F700C000000E948E05EC0188
:100E20000E94BC0B60E080E00E941C0A8BE991E00C
:100E30000E940D0B61E080E00E941C0ACE010E941E
:100E4000320B8BE691E00E940D0B2FEF87EA91E6C3
:100E5000215080409040E1F700C000000E94BC0B90
:100E600060E080E00E941C0A8BEA91E00E940D0B7A
:100E700061E080E00E941C0A87E291E00E940D0B75
:100E80002FEF83ED90E3215080409040E1F700C0C8
:100E9000000009C02FEF81EE94E021508040904087
:100EA000E1F700C000000E94D30C882399F30E9450
:100EB0008B00882379F383E08093E601DF91CF9163
:100EC00008950E94BC0B60E080E00E941C0A89E843
:100ED00091E00E940D0B2FEF87EA91E621508040B0
:100EE0009040E1F700C000001092E601DF91CF9141
:100EF00008950E94BC0B60E080E00E941C0A85EB14
:100F000091E00E940D0B61E080E00E941C0A8CEBD6
:100F100091E00E940D0B2FEF83ED90E32150804074
:100F20009040E1F700C000000E94BC0B0E94D30C6F
:100F300081110AC02FEF80E792E02150804090405D
:100F4000E1F700C0000008950E948B00882391F310
:100F50000E94BC0B60E080E00E941C0A84EC91E0DF
:100F60000E940D0B61E080E00E941C0A82E991E082
:100F70000E940D0B2FEF83ED90E3215080409040B5
:100F8000E1F700C000000E94BC0B82E08093E60104
:100F90000C941802EAE7F0E0808187688083ECE730
:100FA000F0E0808180668083089590917C00987F36
:100FB00090937C0090917C00892B80937C008091A1
:100FC0007A00806480937A0080917A0086FDFCCF5D
:100FD0008091790008958DB18F7C8DB985E08A95D7
:100FE000F1F700006D9A759885E08A95F1F7000099
:100FF0006C9A749885E08A95F1F7000008956C98D2
:1010000085E08A95F1F700006D9885E08A95F1F703
:10101000000008956D9885E08A95F1F700006599C4
:101020000DC06C9885E08A95F1F700006C9A749871
:1010300085E08A95F1F70000659BF3CF6C980895E1
:101040006C9885E08A95F1F700006C9A749885E0B9
:101050008A95F1F7000008951F93CF93DF93D82F5F
:10106000C62F142F0E940A080E94EB0787E013C0C6
:101070006D9895E09A95F1F700006C9895E09A9537
:10108000F1F700006C9A749895E09A95F1F70000DA
:10109000DD0F815029F0D6FDEBCF6D9A7598E9CF21
:1010A0006D9A759885E08A95F1F700006C9895E047
:1010B0009A95F1F700006C9A749885E08A95F1F79B
:1010C00000006D9895E09A95F1F700006C98659B8B
:1010D00005C089EC91E00E940D0BFFCF85E08A9559
:1010E000F1F700006C9A749895E09A95F1F700007A
:1010F00088E014C06D9A759895E09A95F1F7000014
:101100006C9895E09A95F1F700006C9A749895E0C8
:101110009A95F1F70000CC0F815021F0C7FFEACF7C
:101120006D98EACF6D9885E08A95F1F700006C988C
:10113000659B05C085ED91E00E940D0BFFCF95E00A
:101140009A95F1F700006C9A749885E08A95F1F70A
:101150000000112351F06C9895E09A95F1F700008A
:101160006D9885E08A95F1F70000DF91CF911F918E
:101170000895FC016623D1F14FEF460F50E04F5F19
:101180005F4F480F591F908128E016C06D9A7598DF
:1011900085E08A95F1F700006C9885E08A95F1F773
:1011A00000006C9A749885E08A95F1F700009081B0
:1011B000990F9083215021F097FFE8CF6D98E8CFE9
:1011C00031966D9885E08A95F1F700006C986599E5
:1011D00018C085E08A95F1F700006C9A749885E054
:1011E0008A95F1F70000E417F50769F66C9885E039
:1011F0008A95F1F700006D9885E08A95F1F7000077
:10120000089582ED91E00E940D0BFFCF0F931F9385
:10121000CF93DF93082FEB01142F0E94EB0787E099
:1012200013C06D9895E09A95F1F700006C9895E0E1
:101230009A95F1F700006C9A749895E09A95F1F7F9
:101240000000000F815029F006FDEBCF6D9A7598D4
:10125000E9CF6D9885E08A95F1F700006C9895E0EC
:101260009A95F1F700006C9A749885E08A95F1F7E9
:1012700000006D9895E09A95F1F700006C98659BD9
:1012800005C08AED91E00E940D0BFFCF85E08A95A5
:10129000F1F700006C9A749895E09A95F1F70000C8
:1012A0006D9885E08A95F1F700001123B1F12FEFD9
:1012B000210F30E02F5F3F4F2C0F3D1F98E08881BA
:1012C000880F88836C9885E08A95F1F70000659B0C
:1012D00003C088818160888385E08A95F1F70000EA
:1012E0006C9A749885E08A95F1F70000915039F76F
:1012F0006D9A759895E09A95F1F700006C9885E0E5
:101300008A95F1F700006C9A749895E09A95F1F738
:10131000000021962C173D0789F695E09A95F1F784
:1013200000006C9885E08A95F1F700006D9895E0D3
:101330009A95F1F70000DF91CF911F910F910895D9
:10134000CF93DF931F92CDB7DEB7498340E00E9471
:101350002C0861E0CE0101960E94B9080F90DF9140
:10136000CF9108951F93CF93DF931F92CDB7DEB730
:10137000182F41E00E942C0841E0BE016F5F7F4FB3
:10138000812F0E94060989810F90DF91CF911F91D3
:10139000089561E08CE10C94B20963E08CE10C9457
:1013A000B20965E08CE10C94B2098AE08A95F1F704
:1013B00000C0449A8AE08A95F1F700C044988AE018
:1013C0008A95F1F700C00895F89482B98AE08A9569
:1013D000F1F700C0449A8AE08A95F1F700C044987A
:1013E0008AE08A95F1F700C0789408958F98F89470
:1013F00082B98AE08A95F1F700C0449A8AE08A951A
:10140000F1F700C044988AE08A95F1F700C078941B
:1014100008958F9AF89482B98AE08A95F1F700C00E
:10142000449A8AE08A95F1F700C044988AE08A9548
:10143000F1F700C078940895803110F4623008F01C
:10144000089590E4699F800D112480588F98F89436
:1014500082B98AE08A95F1F700C0449A9AE09A9599
:10146000F1F700C044988AE08A95F1F700C07894BB
:1014700095EC9A95F1F7000008953C9A879A8FEFC2
:1014800081B98FE19EE40197F1F700C000008F98C9
:10149000F89488E382B99AE09A95F1F700C0449AEB
:1014A000EAE0EA95F1F700C04498FAE0FA95F1F71E
:1014B00000C07894EFE7F2E03197F1F700C0000048
:1014C0008F98F89482B9FAE0FA95F1F700C0449A3F
:1014D0009AE09A95F1F700C04498EAE0EA95F1F7AE
:1014E00000C07894EFE7F2E03197F1F700C0000018
:1014F0008F98F89482B9FAE0FA95F1F700C0449A0F
:101500009AE09A95F1F700C04498EAE0EA95F1F77D
:1015100000C07894EFE7F2E03197F1F700C00000E7
:101520008F98F89498E092B9FAE0FA95F1F700C034
:10153000449A9AE09A95F1F700C04498EAE0EA9557
:10154000F1F700C07894EFE7F2E03197F1F700C0CF
:1015500000008F98F89491E092B9FAE0FA95F1F7CB
:1015600000C0449A9AE09A95F1F700C04498EAE0E6
:10157000EA95F1F700C07894EFE7FEE33197F1F7D1
:1015800000C000008F98F89496E092B9FAE0FA95BE
:10159000F1F700C0449A9AE09A95F1F700C0449898
:1015A000EAE0EA95F1F700C07894EFE7F2E03197CE
:1015B000F1F700C000008F98F89482B9FAE0FA952C
:1015C000F1F700C0449A8AE08A95F1F700C0449888
:1015D0009AE09A95F1F700C07894EFE8F1E031973E
:1015E000F1F700C000008F98F8948CE082B9FAE01F
:1015F000FA95F1F700C0449A8AE08A95F1F700C0A5
:1016000044989AE09A95F1F700C07894EFE8F1E0F9
:101610003197F1F700C000000895DC019C919923F7
:1016200001F120E08F9AF89492B98AE08A95F1F757
:1016300000C0449A9AE09A95F1F700C044988AE075
:101640008A95F1F700C078948FE792E00197F1F75F
:1016500000C000002F5FFD01E20FF11D908191118C
:10166000E1CF08951F93CF93DF93FC01892B09F4F9
:1016700066C045E011E02FE037E2E9012196CF0195
:10168000BE010E946C0E61111DC02E173F0708F0AD
:1016900052C01123A9F111E0CF01BE010E946C0ECE
:1016A000FC01ADECBCEC0E949A0E9C01369527958E
:1016B00036952795369527954150F9F6DF91CF91CC
:1016C0001F9108952E173F07D8F0605D8F9AF89408
:1016D00062B99AE09A95F1F700C0449A8AE08A9537
:1016E000F1F700C044989AE09A95F1F700C0789419
:1016F0008FE792E00197F1F700C0000010E0D1CF32
:10170000605D8F9AF89462B99AE09A95F1F700C0FB
:10171000449A8AE08A95F1F700C044989AE09A9535
:10172000F1F700C078948FE792E00197F1F700C0DD
:10173000000010E0B1CF112341F211E0B2CF8F9A37
:10174000F89480E382B98AE08A95F1F700C0449A60
:101750009AE09A95F1F700C044988AE08A95F1F7EB
:1017600000C078948FE792E00197F1F700C0000085
:10177000DF91CF911F9108958F98F89481E082B9FD
:101780008AE08A95F1F700C0449A9AE09A95F1F7B9
:1017900000C044988AE08A95F1F700C078948FE7FA
:1017A0009EE30197F1F700C0000008955D9A5C98F0
:1017B0000895262F3FEF81110EC06303C00111244D
:1017C00064E670E00E94800E6093B30012169CF4F1
:1017D0005C9A5D9808956303C001112464E670E08B
:1017E0000E94800E67BD12161CF45E9A5F980895E1
:1017F0005F9A5E9808950C94D60BCF93DF93C3EB5A
:10180000D0E018820E94D60B17BC5F9A5E9884B114
:10181000806984B98AB1806F8AB9E0EBF0E0808199
:101820008866808380818260808384B5886684BD79
:1018300084B5826084BD8AE087BD8883DF91CF91C3
:1018400008955C9A5D982C9A5F9A5E982F9A0895F5
:101850001F920F920FB60F9211242F933F934F9325
:101860005F936F937F938F939F93EF93FF938091F9
:10187000F501409188005091890080FD30C0869527
:10188000E82FF0E0EE0FFF1FE25BFD4F208131817A
:10189000240F351F309389002093880048B121E040
:1018A00030E0B90102C0660F771F8A95E2F7CB01DD
:1018B000842B88B98091F5018F5F87708093F50143
:1018C000FF91EF919F918F917F916F915F914F91D8
:1018D0003F912F910F900FBE0F901F9018958695F6
:1018E000E82FF0E0EE0FFF1FEA5BFD4F2081318112
:1018F000240F351F309389002093880048B121E0E0
:1019000030E0B90102C0660F771F8A95E2F7CB017C
:101910008095842388B9CECF90E02AE0629FB00101
:1019200011246C53764F880F991FFC01E25BFD4F29
:1019300071836083FC01EA5BFD4F24ED30E3261BDD
:10194000370B318320830895AEE4B2E024EC39E014
:1019500011963C932E93E6E4F2E080E197E29183C6
:10196000808313963C932E931297938382831596CC
:101970003C932E9314979583848317963C932E93D0
:1019800016979783868387B18F6087B9E1E8F0E087
:101990001082808182608083EFE6F0E08081826047
:1019A0008083789408958CB18095881F8827881F3C
:1019B0000895482F50E04E30510510F080E0089512
:1019C000FA01E25DFF4F0C94940E23B130E0895090
:1019D000A90102C0559547958A95E2F7CA01817021
:1019E000089583B18695817008952CB130E0A901E6
:1019F00002C0559547958A95E2F7CA01817008950E
:101A000022B330E08F5FA90102C0559547958A95B2
:101A1000E2F7CA01817008958CB186FB882780F9AE
:101A2000089523B1E3CF26B130E08250A90102C06E
:101A3000559547958A95E2F7CA018170089583B15B
:101A400081700895962F482F50E04E30510540F494
:101A5000FA01E45CFF4F0C94940E611164C021986C
:101A6000089544B1895021E030E0B90102C0660F09
:101A7000771F8A95E2F79923F1F1CB01842B84B982
:101A800008954DB121E030E0B90102C0660F771F23
:101A90008A95E2F7992309F43FC0CB01842B8DB9D5
:101AA000089543B38F5F21E030E0B90102C0660FB3
:101AB000771F8A95E2F7992329F1CB01842B83BB09
:101AC00008956623E9F06E9A089547B1825021E0A7
:101AD00030E0B90102C0660F771F8A95E2F79923BB
:101AE000B1F0CB01842B87B9089544B1BCCF6623F4
:101AF000C1F0209A0895CB018095842384B908957C
:101B00006E980895CB018095842383BB0895CB0103
:101B10008095842387B90895CB01809584238DB95E
:101B2000089520980895219A0895962F482F50E0FF
:101B30004E30510540F4FA01E65BFF4F0C94940ED1
:101B4000611164C02998089545B1895021E030E0C1
:101B5000B90102C0660F771F8A95E2F79923F1F168
:101B6000CB01842B85B908954EB121E030E0B90155
:101B700002C0660F771F8A95E2F7992309F43FC0E8
:101B8000CB01842B8EB9089544B38F5F21E030E000
:101B9000B90102C0660F771F8A95E2F7992329F1F0
:101BA000CB01842B84BB08956623E9F0769A0895CF
:101BB00048B1825021E030E0B90102C0660F771FC2
:101BC0008A95E2F79923B1F0CB01842B88B9089567
:101BD00045B1BCCF6623C1F0289A0895CB0180950A
:101BE000842385B9089576980895CB018095842340
:101BF00084BB0895CB018095842388B90895CB01D7
:101C0000809584238EB9089528980895299A089577
:101C1000811104C0613031F0A0980895613021F045
:101C2000A1980895A09A0895A19A0895882311F083
:101C3000A19A0895A09A0895882311F0A198089573
:101C4000A0980895529A83B3836083BB779A0E94C9
:101C5000CA070E943D0A0E94A40C0E94FD0B41E0AD
:101C60006AE28CE10E94A0092FEF81EE94E02150FE
:101C700080409040E1F700C000000C940A080E94E8
:101C8000220E0E94A40C0E943D0A0E94180280911C
:101C9000E601C2E0813061F08130C8F0823081F02D
:101CA000833099F40E9479078091E6018130A1F791
:101CB0000E94B0049093E5018093E401C093E60193
:101CC0000E94F1068091E601E5CF1092E6010E94A4
:101CD00046068091E601DECFAA1BBB1B51E107C07F
:101CE000AA1FBB1FA617B70710F0A61BB70B881FAC
:101CF000991F5A95A9F780959095BC01CD0108953B
:101D000097FB072E16F4009407D077FD09D00E94A8
:101D10006C0E07FC05D03EF4909581959F4F089579
:101D2000709561957F4F0895EE0FFF1F0590F49118
:101D3000E02D0994A29FB001B39FC001A39F700D35
:101D4000811D1124911DB29F700D811D1124911DC3
:101D500008955058BB27AA270E94C10E0C947310F7
:101D60000E94651038F00E946C1020F039F49F3FFB
:101D700019F426F40C943B100EF4E095E7FB0C9458
:101D80003510E92F0E94841058F3BA1762077307C1
:101D90008407950720F079F4A6F50C94A6100EF4AC
:101DA000E0950B2EBA2FA02D0B01B90190010C016B
:101DB000CA01A0011124FF27591B99F0593F50F483
:101DC000503E68F11A16F040A22F232F342F4427DB
:101DD000585FF3CF469537952795A795F0405395D3
:101DE000C9F77EF41F16BA0B620B730B840BBAF0A3
:101DF0009150A1F0FF0FBB1F661F771F881FC2F70E
:101E00000EC0BA0F621F731F841F48F48795779521
:101E10006795B795F7959E3F08F0B0CF9395880FDB
:101E200008F09927EE0F9795879508950E942A0F3D
:101E30000C9473100E946C1058F00E94651040F0D2
:101E400029F45F3F29F00C94351051110C94A71020
:101E50000C943B100E94841068F39923B1F355232E
:101E600091F3951B550BBB27AA27621773078407AD
:101E700038F09F5F5F4F220F331F441FAA1FA9F343
:101E800035D00E2E3AF0E0E832D091505040E69531
:101E9000001CCAF72BD0FE2F29D0660F771F881F92
:101EA000BB1F261737074807AB07B0E809F0BB0B85
:101EB000802DBF01FF2793585F4F3AF09E3F510599
:101EC00078F00C9435100C94A7105F3FE4F3983E23
:101ED000D4F3869577956795B795F7959F5FC9F782
:101EE000880F911D9695879597F90895E1E0660F03
:101EF000771F881FBB1F621773078407BA0720F07C
:101F0000621B730B840BBA0BEE1F88F7E0950895E4
:101F100029F416F00C9435100C94A6100C943B1078
:101F20000E948C10A8F39638A0F707F80F92E89457
:101F30002BE33AEA48EB5FE70E9439110F920F92C8
:101F40000F924DB75EB70F920E94EF10E0EBF0E0FA
:101F50000E943E104F915F91EF91FF91E595EE1F2A
:101F6000FF1F49F0FE57E0684427EE0F441FFA9523
:101F7000E1F74195550B0E94B9100F9007FE0C94A4
:101F8000AD1008950E94C90F6894B1110C94A71068
:101F900008950E948C1088F09F5798F0B92F9927C8
:101FA000B751B0F0E1F0660F771F881F991F1AF044
:101FB000BA95C9F714C0B13091F00E94A610B1E0F3
:101FC00008950C94A610672F782F8827B85F39F0F2
:101FD000B93FCCF3869577956795B395D9F73EF4DD
:101FE00090958095709561957F4F8F4F9F4F089585
:101FF000E89409C097FB3EF49095809570956195A3
:102000007F4F8F4F9F4F9923A9F0F92F96E9BB2758
:102010009395F695879577956795B795F111F8CFD4
:10202000FAF4BB0F11F460FF1BC06F5F7F4F8F4F3F
:102030009F4F16C0882311F096E911C0772321F035
:102040009EE8872F762F05C0662371F096E8862FCD
:1020500070E060E02AF09A95660F771F881FDAF724
:10206000880F9695879597F9089597F99F6780E867
:1020700070E060E008959FEF80EC0895DF93CF93C8
:102080001F930F93FF92EF92DF927B018C01689474
:1020900006C0DA2EEF010E943611FE01E894A591E8
:1020A0002591359145915591A6F3EF010E94C10EFE
:1020B000FE019701A801DA9469F7DF90EF90FF9095
:1020C0000F911F91CF91DF91089500240A94161665
:1020D000170618060906089500240A941216130616
:1020E000140605060895092E0394000C11F48823A4
:1020F00052F0BB0F40F4BF2B11F460FF04C06F5FC0
:102100007F4F8F4F9F4F089557FD9058440F551F95
:1021100059F05F3F71F04795880F97FB991F61F069
:102120009F3F79F087950895121613061406551FE0
:10213000F2CF4695F1DF08C0161617061806991F4C
:10214000F1CF86957105610508940895E894BB2741
:1021500066277727CB0197F908959B01AC0160E0D2
:1021600070E080E89FE30C94160F0C9435100C94EB
:1021700090110E948C10D8F39923C9F3940F511D2C
:10218000A3F39150504094F059F0882332F0660F39
:10219000771F881F91505040C1F79E3F51052CF783
:1021A000880F911D9695879597F908955F3FACF03C
:1021B000983E9CF0BB27869577956795B79508F470
:1021C000B1609395C1F7BB0F58F711F460FFE8CFEA
:1021D0006F5F7F4F8F4F9F4FE3CF0C94A710FA0193
:1021E000DC01AA0FBB1F9B01AC01BF5728F42227BB
:1021F00033274427507820C0B75190F4AB2F0024E8
:10220000469537952795011CA395D2F3002071F0D0
:10221000220F331F441FB395DAF30ED00C94A90E8E
:1022200061307105A0E88A07B94630F49B01AC0122
:102230006627772788279078309621F0208331838E
:102240004283538308950E9436110C9473100E94A8
:10225000651038F00E946C1020F0952311F00C945A
:1022600035100C943B1011240C94A7100E9484107C
:1022700070F3959FC1F3950F50E0551F629FF001D9
:10228000729FBB27F00DB11D639FAA27F00DB11DF2
:10229000AA1F649F6627B00DA11D661F829F22277B
:1022A000B00DA11D621F739FB00DA11D621F839F02
:1022B000A00D611D221F749F3327A00D611D231FD8
:1022C000849F600D211D822F762F6A2F11249F5726
:1022D00050409AF0F1F088234AF0EE0FFF1FBB1F29
:1022E000661F771F881F91505040A9F79E3F5105E8
:1022F00080F00C9435100C94A7105F3FE4F3983EE7
:10230000D4F3869577956795B795F795E7959F5F91
:10231000C1F7FE2B880F911D9695879597F9089523
:102320009F3F31F0915020F4879577956795B79549
:10233000880F911D9695879597F908950F931F9390
:10234000CF93DF938230910510F482E090E0E0912A
:102350005802F091590220E030E0A0E0B0E0309760
:1023600019F1408151810281138148175907C8F042
:102370008417950769F4109731F012960C93129711
:1023800013961C9327C0009358021093590222C041
:102390002115310519F04217530718F49A01BD01B0
:1023A000EF01DF01F801DBCF21153105F9F0281B22
:1023B000390B2430310580F48A819B8161157105C8
:1023C00021F0FB019383828304C090935902809390
:1023D0005802FE01329644C0FE01E20FF31F8193C2
:1023E000919322503109398328833AC020915602B3
:1023F00030915702232B41F42091020130910301C7
:102400003093570220935602209100013091010130
:102410002115310541F42DB73EB74091040150918B
:102420000501241B350BE0915602F0915702E2178B
:10243000F307A0F42E1B3F0B2817390778F0AC01E7
:102440004E5F5F4F2417350748F04E0F5F1F5093C4
:102450005702409356028193919302C0E0E0F0E06E
:10246000CF01DF91CF911F910F910895CF93DF930B
:10247000009709F481C0FC01329713821282A09167
:102480005802B0915902109781F420813181820F56
:10249000931F20915602309157022817390751F5A2
:1024A000F0935702E093560267C0ED0120E030E060
:1024B000CE17DF0740F44A815B819E01411551052B
:1024C000F1F0EA01F5CFD383C28340815181840FBB
:1024D000951FC817D90759F488819981840F951FD2
:1024E0000296918380838A819B81938382832115C5
:1024F000310529F4F0935902E09358023DC0E901F7
:10250000FB83EA8349915991C40FD51FEC17FD074E
:1025100061F480819181840F951F0296E90199836E
:102520008883828193819B838A83E0E0F0E0129626
:102530008D919C911397009719F0FD01DC01F7CF65
:102540008D919C9111979D012E5F3F4F820F931F9C
:1025500020915602309157022817390769F43097B5
:1025600029F4109259021092580202C0138212826A
:10257000B0935702A0935602DF91CF9108958F92A6
:102580009F92AF92BF92CF92DF92EF92FF92CF9342
:10259000DF93EC01688179818A819B8161157105E6
:1025A0008105910521F464E279ED8BE597E02DE159
:1025B00033EF41E050E00E94CE1549015A019B01E2
:1025C000AC01A7EAB1E40E94ED156B017C01ACEE11
:1025D000B4EFA50194010E94FB15DC01CB018C0D29
:1025E0009D1DAE1DBF1DB7FF03C00197A109B048D7
:1025F00088839983AA83BB839F77DF91CF91FF90D4
:10260000EF90DF90CF90BF90AF909F908F90089504
:102610000E94BF12089586E091E00E94BF120895C3
:10262000A0E0B0E08093060190930701A093080119
:10263000B09309010895AEE0B0E0E1E2F3E10C945B
:102640000E160D891E8986E08C831A8309838FEF0D
:102650009FE79E838D83AE01475E5F4F6F89788DC4
:10266000CE0101960E943D13EF81F885E00FF11F26
:1026700010822E96E4E00C942A16ABE0B0E0E3E47E
:10268000F3E10C9400166C017B018A01FC011782B6
:102690001682838181FFCCC1CE0101963C01F601F7
:1026A0009381F70193FD859193FF81917F018823A9
:1026B00009F4BAC1853239F493FD859193FF819174
:1026C0007F01853229F4B60190E00E943415E7CFEE
:1026D000912C212C312CFFE1F315D8F08B3279F0BD
:1026E00038F4803279F08332A1F4232D20611DC0AB
:1026F0008D3261F0803369F4232D216016C0832D63
:102700008260382EE32DE4603E2E2AC0F32DF8605F
:102710001DC037FC2DC020ED280F2A3040F08E322E
:10272000B9F436FC81C1232D2064322E19C036FE47
:1027300006C08AE0989E200D1124922E11C0EAE076
:102740002E9E200D1124222EF32DF0623F2E08C064
:102750008C3621F4832D8068382E02C0883641F4EF
:10276000F70193FD859193FF81917F018111B3CF93
:10277000982F9F7D9554933028F40C5F1F4F9FE353
:1027800099830DC0833631F0833771F0833509F0BA
:1027900059C021C0F801808189830E5F1F4F8824B2
:1027A0008394912C530113C02801F2E04F0E511C69
:1027B000F801A080B18036FE03C0692D70E002C030
:1027C0006FEF7FEFC5010E9429154C018201F32DA7
:1027D000FF773F2E16C0280122E0420E511CF8015F
:1027E000A080B18036FE03C0692D70E002C06FEF9B
:1027F0007FEFC5010E941E154C01F32DF0683F2E9E
:10280000820133FC1BC0822D90E088169906B0F43B
:10281000B60180E290E00E9434152A94F4CFF501CD
:1028200037FC859137FE81915F01B60190E00E94EF
:10283000341521102A9421E0821A91088114910400
:1028400071F7E8C0843611F0893641F5F80137FE9A
:1028500007C060817181828193810C5F1F4F08C026
:1028600060817181072E000C880B990B0E5F1F4F42
:10287000F32DFF763F2E97FF09C0909580957095B8
:1028800061957F4F8F4F9F4FF0683F2E2AE030E0D9
:10289000A3010E947015882E861845C0853731F433
:1028A000232D2F7EB22E2AE030E025C0932D997F74
:1028B000B92E8F36C1F018F4883579F0B5C080375D
:1028C00019F0883721F0B0C0E92FE061BE2EB4FEC8
:1028D0000DC0FB2DF460BF2E09C034FE0AC0292FA5
:1028E0002660B22E06C028E030E005C020E130E0CE
:1028F00002C020E132E0F801B7FE07C060817181BB
:10290000828193810C5F1F4F06C06081718180E0DE
:1029100090E00E5F1F4FA3010E947015882E86184D
:10292000FB2DFF773F2E36FE0DC0232D2E7FA22ECE
:10293000891458F434FE0BC032FC09C0832D8E7EFE
:10294000A82E05C0B82CA32C03C0B82C01C0B92CEC
:10295000A4FE0FC0FE01E80DF11D8081803321F43B
:102960009A2D997EA92E09C0A2FE06C0B394B394F5
:1029700004C08A2D867809F0B394A3FC11C0A0FE90
:1029800006C0B21488F4280C922C9B180EC0B21406
:1029900060F4B60180E290E00E943415B394F7CF62
:1029A000B21418F42B1802C0982C212CA4FE10C0CD
:1029B000B60180E390E00E943415A2FE17C0A1FC8E
:1029C00003C088E790E002C088E590E0B6010CC043
:1029D0008A2D867859F0A1FE02C08BE201C080E208
:1029E000A7FC8DE2B60190E00E943415891438F4FA
:1029F000B60180E390E00E9434159A94F7CF8A9450
:102A0000F301E80DF11D8081B60190E00E943415BC
:102A10008110F5CF222009F442CEB60180E290E089
:102A20000E9434152A94F6CFF6018681978102C060
:102A30008FEF9FEF2B96E2E10C941C16FC010590A2
:102A4000615070400110D8F7809590958E0F9F1FB0
:102A50000895FC016150704001900110D8F78095F5
:102A600090958E0F9F1F08950F931F93CF93DF9321
:102A7000FB01238121FD03C08FEF9FEF2CC022FFBC
:102A800016C046815781248135814217530744F48B
:102A9000A081B1819D012F5F3F4F318320838C93B3
:102AA000268137812F5F3F4F3783268314C08B01E8
:102AB000EC01FB010084F185E02D0995892BE1F6FD
:102AC000D80116968D919C911797019617969C9315
:102AD0008E931697CE01DF91CF911F910F9108959C
:102AE000FA01AA27283051F1203181F1E8946F933F
:102AF0006E7F6E5F7F4F8F4F9F4FAF4FB1E03ED0E5
:102B0000B4E03CD0670F781F891F9A1FA11D680F82
:102B1000791F8A1F911DA11D6A0F711D811D911DB5
:102B2000A11D20D009F468943F912AE0269F11242A
:102B30003019305D3193DEF6CF010895462F47708E
:102B4000405D4193B3E00FD0C9F7F6CF462F4F70E9
:102B5000405D4A3318F0495D31FD4052419302D047
:102B6000A9F7EACFB4E0A6959795879577956795ED
:102B7000BA95C9F700976105710508959B01AC01ED
:102B80000A2E06945795479537952795BA95C9F714
:102B9000620F731F841F951FA01D0895052E97FBBC
:102BA0001EF400940E94E51557FD07D00E943716C9
:102BB00007FC03D04EF40C94E515509540953095E4
:102BC00021953F4F4F4F5F4F089590958095709599
:102BD00061957F4F8F4F9F4F08950E949A0EA59F3A
:102BE000900DB49F900DA49F800D911D1124089508
:102BF000B7FF0C94ED150E94ED15821B930B089501
:102C00002F923F924F925F926F927F928F929F92FC
:102C1000AF92BF92CF92DF92EF92FF920F931F93EA
:102C2000CF93DF93CDB7DEB7CA1BDB0B0FB6F8949B
:102C3000DEBF0FBECDBF09942A88398848885F84DB
:102C40006E847D848C849B84AA84B984C884DF804C
:102C5000EE80FD800C811B81AA81B981CE0FD11D30
:102C60000FB6F894DEBF0FBECDBFED010895A1E20F
:102C70001A2EAA1BBB1BFD010DC0AA1FBB1FEE1FF6
:102C8000FF1FA217B307E407F50720F0A21BB30B41
:102C9000E40BF50B661F771F881F991F1A9469F7BD
:102CA00060957095809590959B01AC01BD01CF0119
:062CB0000895F894FFCF27
:102CB60000005A02200001000000446174610043D4
:102CC6006F6C6C656374696F6E004C3A25642025E1
:102CD6006400523A256400446F6E650053657420A3
:102CE600497465726174696F6E733A0054696C74E5
:102CF60020746F2061646A757374003C3D2D20203A
:102D06002B3D3E00202020202020200054726169A7
:102D16006E696E6720776974683A00206974657217
:102D26006174696F6E730050726F706F7274696F41
:102D36006E616C004C3A2564004E6F2064617461CC
:102D46002100547261696E696E670057696C6C2068
:102D5600747261696E20666F723A00547261696EB0
:102D6600696E6720004E657572616C004E657477FA
:102D76006F726B004D6F726500616464724E414301
:102D86004B0077725F4E41434B00726561644E4162
:042D9600434B0000AB
:00000001FF
