:100000000C946C000C9489000C9489000C94890069
:100010000C9489000C9489000C9489000C947D1137
:100020000C9489000C9489000C9489000C9489002C
:100030000C9489000C9489000C9489000C9489001C
:100040000C9489000C9489000C9489000C9489000C
:100050000C9489000C9489000C9489004A124A126D
:1000600055125512611266126612681268126812F1
:1000700074123A123A12461296129612A612A6124A
:10008000B612CA12CA12BA12BA12BA12CC12861216
:1000900086128212091309131913191329133D1318
:1000A0003D132D132D132D133F13F912F912F512D1
:1000B00007634236B79BD8A71A39685618AEBAAB51
:1000C000558C1D3CB7CC5763BD6DEDFD753EF617E5
:1000D0007231BF000000803F11241FBECFEFD0E17E
:1000E000DEBFCDBF11E0A0E0B1E0E4E6F5E302C081
:1000F00005900D92A63DB107D9F723E0A6EDB1E03A
:1001000001C01D92A030B207E1F70E9494130C9435
:10011000B01A0C9400002FEF83EC99E0215080403E
:100120009040E1F700C0000006C08FE39CE9019712
:10013000F1F700C000000E9428128111F6CF81E083
:100140000895AF92BF92CF92DF92EF92FF920F93FA
:100150001F93CF93DF93EC010E9462175C010E9412
:1001600062176C010E9462177C010E9462178C0169
:10017000B501BB0C880B990B0E94491520E03EEF9E
:100180004FEF56E40E946C14688379838A839B83C3
:10019000B601DD0C880B990B0E94491520E03EEF5B
:1001A0004FEF56E40E946C146C837D838E839F8393
:1001B000B701FF0C880B990B0E94491520E03EEF18
:1001C0004FEF56E40E946C14688779878A879B8773
:1001D000B801110F880B990B0E94491520E03EEFE2
:1001E0004FEF56E40E946C146C877D878E879F8743
:1001F000CE01DF91CF911F910F91FF90EF90DF9093
:10020000CF90BF90AF9008956FE782E00E94E11118
:100210006FE783E00C94E11190580E94E61420E00F
:1002200030E040E85FE30E94FB139B01AC0160E01B
:1002300070E080E89FE30E946C1408950E942812E9
:10024000811102C080E008950C948B00CF93DF935E
:10025000282F492F50E04C595F4FCCE3C49FC00179
:10026000C59F900D1124E8ECF0E0BF010E94D1136E
:10027000D62F30E02C593F4FC29FC001C39F900D35
:100280001124BF010E94D1136F5980E00E94E11137
:100290006DE96D1B81E0DF91CF910C94E1110F931B
:1002A0001F93CF93DF93682F70E080E090E00E946F
:1002B000491520E030E048EC52E40E946C148B01B8
:1002C000D82FC92F20E030E0A9010E94671487FDD4
:1002D00017C020E030E040E85FE3B8018D2F9C2F8D
:1002E0000E942016181624F400E010E0D0E8CFE3B6
:1002F000B8018D2F9C2FDF91CF911F910F91089501
:1003000000E010E0D0E0C0E0B8018D2F9C2FDF911D
:10031000CF911F910F9108950F931F93CF93DF9368
:1003200020E030E048EC52E40E949B168B01D82F6D
:10033000C92F20E030E0A9010E94671487FD1FC08B
:1003400020E030E048EC52E4B8018D2F9C2F0E9451
:100350002016181644F0B8018D2F9C2FDF91CF91F5
:100360001F910F91089500E010E0D8ECC2E4B801AD
:100370008D2F9C2FDF91CF911F910F91089500E059
:1003800010E0D0E0C0E0B8018D2F9C2FDF91CF911D
:100390001F910F910895CF93DF93C62F682F70E0C0
:1003A00080E090E00E94491520E030E040E05FE30B
:1003B0000E949B1620E030E04EEF52E40E94FB13B7
:1003C0000E941815D62F6C2F70E080E090E00E94FC
:1003D000491520E030E040E05FE30E949B1620E0FA
:1003E00030E04EEF52E40E94FB130E941815962F46
:1003F0008D2FDF91CF9108950F931F93CF930E947C
:10040000111160E080E00E94710F89E091E00E948C
:10041000621061E080E00E94710F89E191E00E942A
:1004200062102FEF33ED80E3215030408040E1F740
:1004300000C000000E94111160E080E00E94710F76
:1004400088E291E00E94621004E610E033C0C95CCB
:10045000C13308F447C097E3980F9D3178F40A3010
:10046000110508F47EC00A5011099FEF21EE34E017
:10047000915020403040E1F700C0000085518133A9
:1004800008F463C061E080E00E94710FC8010E941F
:10049000871081E391E00E9462100E94281281116E
:1004A0002DC03FEF80E792E0315080409040E1F76F
:1004B00000C000000E94220FC82F0E941E0F91EE64
:1004C0009C0F973220F6015011099FEF21EE34E086
:1004D000915020403040E1F700C00000C95CC133BA
:1004E00008F0B9CF0F5F1F4F9FEF21EE34E091501E
:1004F00020403040E1F700C00000ADCF0E948B00EB
:10050000882379F20E94111160E080E00E94710F4F
:1005100089E391E00E94621061E080E00E94710F27
:10052000C8010E94871088E491E00E9462102FEFBA
:1005300033ED80E3215030408040E1F700C00000FF
:10054000C801CF911F910F910895065F1F4F8FEF44
:1005500091EE24E0815090402040E1F700C000007F
:1005600091CF00E010E081CF4F925F926F927F9227
:100570008F929F92AF92BF92CF92DF92EF92FF92B3
:100580000F931F93CF93DF93CDB7DEB760970FB66E
:10059000F894DEBF0FBECDBF0E94111160E080E075
:1005A0000E94710F84E591E00E94621061E080E09A
:1005B0000E94710F89E591E00E9462102FEF83ED98
:1005C00090E3215080409040E1F700C000000E947D
:1005D00011110E94040138E1E32E32E0F32E00E015
:1005E00010E0FE0139966F01CE0101964C0144E600
:1005F000A42E41E0B42E5CE6652E51E0752E82E01B
:100600000E942A0D482E83E00E942A0D582EF701E1
:1006100040828183C801959587959F938F931F9200
:100620004F92BF92AF92DF92CF920E9472171F92A9
:100630005F927F926F929F928F920E9472170E9498
:10064000111160E080E00E94710FC6010E946210EB
:1006500061E080E00E94710FC4010E946210FFEF10
:1006600021EE84E0F15020408040E1F700C000001E
:100670000E9411110E5F1F4F92E0E90EF11C0FB6A0
:10068000F894DEBF0FBECDBF083C110509F0B7CF0F
:100690000E94111160E080E00E94710F89E591E0F5
:1006A0000E94621061E080E00E94710F81E791E09A
:1006B0000E946210FFEF23ED80E3F1502040804064
:1006C000E1F700C000000E9411110E940401609631
:1006D0000FB6F894DEBF0FBECDBFDF91CF911F9153
:1006E0000F91FF90EF90DF90CF90BF90AF909F90D1
:1006F0008F907F906F905F904F9008955F926F9270
:100700007F928F929F92AF92BF92CF92DF92EF92A1
:10071000FF920F931F93CF93DF93CDB7DEB7609710
:100720000FB6F894DEBF0FBECDBF0E94111160E07E
:1007300080E00E94710F86E791E00E9462102FEF27
:1007400033ED80E3215030408040E1F700C00000ED
:100750008091D601811188C09E01275F3F4F6901BA
:10076000CE0101964C0183E8A82E81E0B82E9CE6CC
:10077000692E91E0792E0AC08FE19EE40197F1F78E
:1007800000C000008091D60181116EC082E00E94FD
:100790002A0D182F83E00E942A0D582EE12EF12CED
:1007A0001F921F93BF92AF92DF92CF920E94721757
:1007B000052D10E01F925F927F926F929F928F9211
:1007C0000E9472170E94111160E080E00E94710F78
:1007D000C6010E94621061E080E00E94710FC401B6
:1007E0000E946210B701FF0C880B990B0E944915FB
:1007F00020E030E040E05FE30E949B1620E030E024
:100800004EEF52E40E94FB130E94181582E00E94F2
:10081000E111B801110F880B990B0E94491520E0D6
:1008200030E040E05FE30E949B1620E030E04EEFB6
:1008300052E40E94FB130E94181583E00E94E1110C
:100840000E9428120FB6F894DEBF0FBECDBF8823DA
:1008500009F492CF0E948B00882309F48DCF81E0A8
:100860008093D6010E94040160960FB6F894DEBF13
:100870000FBECDBFDF91CF911F910F91FF90EF90F1
:10088000DF90CF90BF90AF909F908F907F906F90B0
:100890005F9008950E94B40282E08093D60108958B
:1008A0002F923F924F925F926F927F928F929F9280
:1008B000AF92BF92CF92DF92EF92FF920F931F936E
:1008C000CF93DF93CDB7DEB7EE970FB6F894DEBFC8
:1008D0000FBECDBFB62E1A013A832983FC82EB826C
:1008E000DEAECDAE682F70E080E090E00E9449154A
:1008F0002B013C016B2D70E080E090E00E944915D7
:100900004B015C01D1012D913D914D915C91C30151
:10091000B2010E949B166B017C01F101248135819B
:1009200046815781C501B4010E949B169B01AC0111
:10093000C701B6010E94FB13D1011C962D913D9178
:100940004D915C911F970E94FB136D8F7E8F8F8F4F
:1009500098A390580E94E61420E030E040E85FE35E
:100960000E94FB139B01AC0160E070E080E89FE314
:100970000E946C146D837E838F839887E981FA814E
:100980002081318142815381C301B2010E949B16B3
:100990006B017C01A981BA8114962D913D914D91F5
:1009A0005C911797C501B4010E949B169B01AC0195
:1009B000C701B6010E94FB13E981FA8124853585C0
:1009C000468557850E94FB1369A37AA38BA39CA33A
:1009D00090580E94E61420E030E040E85FE30E9477
:1009E000FB139B01AC0160E070E080E89FE30E9494
:1009F0006C1469877A878B879C87D8012D913D91EC
:100A00004D915C91C301B2010E949B166B017C0168
:100A1000F8012481358146815781C501B4010E94C6
:100A20009B169B01AC01C701B6010E94FB13D801C4
:100A30001C962D913D914D915C911F970E94FB1347
:100A400090580E94E61420E030E040E85FE30E9406
:100A5000FB139B01AC0160E070E080E89FE30E9423
:100A60006C146D877E878F87988BAB81BC818D914D
:100A70009D910D90BC91A02D8DA79EA7AFA7B8AB5F
:100A8000AB81BC8114968D919D910D90BC91A02D50
:100A900089AB9AABABABBCABAB81BC8118968D91EB
:100AA0009D910D90BC91A02D8DAB9EABAFABB8AF1F
:100AB000AB81BC811C968D919D910D90BC91A02D18
:100AC00089AF9AAFABAFBCAF2D813E814F815885C6
:100AD0006DA57EA58FA598A90E949B166B017C0130
:100AE00029853A854B855C8569A97AA98BA99CA93A
:100AF0000E949B169B01AC01C701B6010E94FB132B
:100B00006B017C012D853E854F8558896DA97EA995
:100B10008FA998AD0E949B169B01AC01C701B6013D
:100B20000E94FB1329AD3AAD4BAD5CAD0E94FB13A7
:100B300090580E94E61420E030E040E85FE30E9415
:100B4000FB139B01AC0160E070E080E89FE30E9432
:100B50006C146DA37EA38FA398A7ADADBEAD8D9190
:100B60009D910D90BC91A02D898B9A8BAB8BBC8BEA
:100B7000ADADBEAD14968D919D910D90BC91A02D03
:100B80008D8B9E8BAF8BB88FADADBEAD18968D9112
:100B90009D910D90BC91A02D898F9A8FAB8FBC8FAA
:100BA0002D813E814F81588569897A898B899C89FD
:100BB0000E949B166B017C0129853A854B855C85DB
:100BC0006D897E898F89988D0E949B169B01AC014F
:100BD000C701B6010E94FB136B017C012D853E8588
:100BE0004F855889698D7A8D8B8D9C8D0E949B16BF
:100BF0009B01AC01C701B6010E94FB13EDADFEAD38
:100C000024853585468557850E94FB1390580E94A0
:100C1000E61420E030E040E85FE30E94FB139B0114
:100C2000AC0160E070E080E89FE30E946C1469A76B
:100C30007AA78BA79CA720E030E040E05FE3C301E8
:100C4000B2010E949B1620E030E04EEF52E40E9479
:100C5000FB130E94181570E080E090E00E94491597
:100C60009B01AC016DA17EA18FA198A50E94FA13F2
:100C70002B013C012DA13EA14FA158A560E070E0E1
:100C800080E89FE30E94FA132DA13EA14FA158A531
:100C90000E949B169B01AC01C301B2010E949B16EE
:100CA0002B013C0120E030E040E05FE3C501B401EE
:100CB0000E949B1620E030E04EEF52E40E94FB13AE
:100CC0000E94181570E080E090E00E9449159B0199
:100CD000AC0169A57AA58BA59CA50E94FA134B01CE
:100CE0005C0129A53AA54BA55CA560E070E080E811
:100CF0009FE30E94FA1329A53AA54BA55CA50E9483
:100D00009B169B01AC01C501B4010E949B164B01CF
:100D10005C01A30192016DA57EA58FA598A90E94F3
:100D20009B166B017C01A501940169897A898B89E5
:100D30009C890E949B169B01AC01C701B6010E94D1
:100D4000FB136B017C012D813E814F81588560E052
:100D500070E080E89FE30E94FA132D813E814F816D
:100D600058850E949B169B01AC01C701B6010E94E9
:100D70009B16698B7A8B8B8B9C8BA301920169A943
:100D80007AA98BA99CA90E949B166B017C01A501E5
:100D900094016D897E898F89988D0E949B169B0195
:100DA000AC01C701B6010E94FB136B017C012985D0
:100DB0003A854B855C8560E070E080E89FE30E94A7
:100DC000FA1329853A854B855C850E949B169B0109
:100DD000AC01C701B6010E949B166D8B7E8B8F8B79
:100DE000988FA30192016DA97EA98FA998AD0E9449
:100DF0009B166B017C01A5019401698D7A8D8B8D09
:100E00009C8D0E949B169B01AC01C701B6010E94FC
:100E1000FB136B017C012D853E854F85588960E071
:100E200070E080E89FE30E94FA132D853E854F8590
:100E300058890E949B169B01AC01C701B6010E9414
:100E40009B16698F7A8F8B8F9C8FC0900101D090F9
:100E50000201E0900301F09004012D813E814F8159
:100E60005885C301B2010E949B16A70196010E94FA
:100E70009B169B01AC016DA57EA58FA598A90E942C
:100E8000FA13AB81BC816D937D938D939C931397E3
:100E900029853A854B855C85C301B2010E949B166A
:100EA000A70196010E949B169B01AC0169A97AA932
:100EB0008BA99CA90E94FA13EB81FC816483758342
:100EC000868397832D853E854F855889C301B2015E
:100ED0000E949B16A70196010E949B169B01AC01E4
:100EE0006DA97EA98FA998AD0E94FA13AB81BC8130
:100EF00018966D937D938D939C931B97A7019601F4
:100F0000C301B2010E949B169B01AC0169AD7AAD91
:100F10008BAD9CAD0E94FA13EB81FC8164877587D1
:100F2000868797872D813E814F815885C501B40101
:100F30000E949B16A70196010E949B169B01AC0183
:100F4000ADADBEAD6D917D918D919C910E94FA13D6
:100F5000EDADFEAD608371838283938329853A85ED
:100F60004B855C85C501B4010E949B16A7019601C3
:100F70000E949B169B01AC01ADADBEAD14966D9168
:100F80007D918D919C9117970E94FA13EDADFEAD66
:100F900064837583868397832D853E854F85588925
:100FA000C501B4010E949B16A70196010E949B16E1
:100FB0009B01AC01ADADBEAD18966D917D918D914B
:100FC0009C911B970E94FA13EDADFEAD608771876F
:100FD00082879387A7019601C501B4010E949B16E1
:100FE0009B01AC01ADADBEAD1C966D917D918D9117
:100FF0009C911F970E94FA13EDADFEAD6487758733
:101000008687978729893A894B895C896D8D7E8D82
:101010008F8D98A10E949B16A70196010E949B1696
:101020009B01AC01D1016D917D918D919C910E94AC
:10103000FA13F101608371838283938329893A894A
:101040004B895C8969A17AA18BA19CA10E949B1606
:10105000A70196010E949B169B01AC01D101149639
:101060006D917D918D919C9117970E94FA13F101DA
:101070006483758386839783A701960169897A893A
:101080008B899C890E949B169B01AC01D1011C9607
:101090006D917D918D919C911F970E94FA13F101A2
:1010A00064877587868797872D893E894F89588DF4
:1010B0006D8D7E8D8F8D98A10E949B16A701960144
:1010C0000E949B169B01AC01A981BA816D917D9113
:1010D0008D919C910E94FA13E981FA81608371835A
:1010E000828393832D893E894F89588D69A17AA186
:1010F0008BA19CA10E949B16A70196010E949B16A2
:101100009B01AC01A981BA8114966D917D918D915D
:101110009C9117970E94FA13E981FA816483758381
:1011200086839783A70196016D897E898F89988D23
:101130000E949B169B01AC01A981BA811C966D91FE
:101140007D918D919C911F970E94FA13E981FA81FC
:101150006487758786879787298D3A8D4B8D5C8D3F
:101160006D8D7E8D8F8D98A10E949B16A701960193
:101170000E949B169B01AC01D8016D917D918D91D0
:101180009C910E94FA13F801608371838283938398
:10119000298D3A8D4B8D5C8D69A17AA18BA19CA183
:1011A0000E949B16A70196010E949B169B01AC0111
:1011B000D80114966D917D918D919C9117970E9405
:1011C000FA13F8016483758386839783A7019601D8
:1011D000698D7A8D8B8D9C8D0E949B169B01AC0135
:1011E000D8011C966D917D918D919C911F970E94C5
:1011F000FA13F80164877587868797876DA17EA1AA
:101200008FA198A50E941815698369A57AA58BA559
:101210009CA50E941815962F8981EE960FB6F8941A
:10122000DEBF0FBECDBFDF91CF911F910F91FF9019
:10123000EF90DF90CF90BF90AF909F908F907F9076
:101240006F905F904F903F902F9008958F929F9254
:10125000AF92BF92CF92DF92EF92FF920F931F93C4
:10126000CF93DF93CDB7DEB760970FB6F894DEBFAC
:101270000FBECDBF0E94111160E080E00E94710F8F
:1012800088E891E00E9462102FEF83ED90E32150F7
:1012900080409040E1F700C000000E94040180916E
:1012A00000018111F2C0812C912C88E1A82E82E0EE
:1012B000B82E90EEC92E92E0D92E28EDE22E21E034
:1012C000F22E08E012E028EF31E048EE51E0F5019F
:1012D000618180810E9450048C012DEC3CEC4CE437
:1012E0005DE3609101017091020180910301909191
:1012F00004010E94FA13609301017093020180932C
:10130000030190930401F2E0AF0EB11C20EEA2168F
:1013100022E0B20671F60E94111160E080E00E94A6
:10132000710F81E991E00E94621061E080E00E940B
:10133000710FC4010E9487108FEF91EEE4E081509D
:101340009040E040E1F700C00000FFEF8F1A9F0AD5
:1013500024E68216910409F0A8CF602F70E080E0A7
:1013600090E00E94471520E030E048EC52E40E94F3
:101370009B164B015C0120E030E0A9010E9467143C
:1013800087FD81C020E030E048EC52E4C501B401A3
:101390000E94201618160CF472C0C501B4010E94F8
:1013A0001815062F612F70E080E090E00E9447152D
:1013B00020E030E048EC52E40E949B164B015C01B7
:1013C00020E030E0A9010E94671487FD5AC020E0A8
:1013D00030E048EC52E4C501B4010E942016181612
:1013E0000CF44BC0C501B4010E941815962F802F34
:1013F0000E9426010E94111160E080E00E94710F9E
:1014000088E991E00E94621061E080E00E94710F23
:1014100081E791E00E9462108FEF93EDE0E381504D
:101420009040E040E1F700C0000009C0FFEF21EE6E
:1014300084E0F15020408040E1F700C000000E94AD
:101440002812882399F30E948B00882379F383E084
:101450008093D60160960FB6F894DEBF0FBECDBF65
:10146000DF91CF911F910F91FF90EF90DF90CF9080
:10147000BF90AF909F908F90089594E6B8CF04E608
:1014800091CF90E0B4CF00E08DCFCE0101960E94C5
:10149000A10080E1FE013196A8EEB1E001900D922D
:1014A0008A95E1F7CE0101960E94A10080E1FE013C
:1014B0003196A8EFB1E001900D928A95E1F7CE0147
:1014C00001960E94A10080E1FE013196A8E0B2E001
:1014D00001900D928A95E1F7CE0101960E94A1003C
:1014E00080E1FE013196A8EDB1E001900D928A9560
:1014F000E1F7CE0101960E94A10080E1FE01319644
:10150000A0EEB2E001900D928A95E1F710920001F1
:10151000CACE2F923F924F925F926F927F928F929C
:101520009F92AF92BF92CF92DF92EF92FF920F9372
:101530001F93CF93DF93CDB7DEB72A970FB6F894FA
:10154000DEBF0FBECDBFB62E58874F833E832D839F
:10155000FA82E9821601682F70E080E090E00E9434
:1015600049152B013C016B2D70E080E090E00E945A
:1015700049156B017C01EF81F88520813181428121
:101580005381C301B2010E949B164B015C01EF81A4
:10159000F8852481358146815781C701B6010E94B3
:1015A0009B169B01AC01C501B4010E94FB13EF81A6
:1015B000F88524853585468557850E94FB1390580C
:1015C0000E94E61420E030E040E85FE30E94FB1355
:1015D0009B01AC0160E070E080E89FE30E946C1426
:1015E0006F83788789879A87ED81FE812081318199
:1015F00042815381C301B2010E949B164B015C01E1
:10160000ED81FE812481358146815781C701B60174
:101610000E949B169B01AC01C501B4010E94FB1303
:10162000ED81FE8124853585468557850E94FB1313
:1016300090580E94E61420E030E040E85FE30E940A
:10164000FB139B01AC0160E070E080E89FE30E9427
:101650006C144B015C01F80120813181428153817E
:10166000C301B2010E949B162B013C01F8012481A9
:10167000358146815781C701B6010E949B169B01A7
:10168000AC01C301B2010E94FB13F801248535852A
:10169000468557850E94FB1390580E94E61420E06F
:1016A00030E040E85FE30E94FB139B01AC0160E087
:1016B00070E080E89FE30E946C146B017C01E9817B
:1016C000FA8120813181428153816F8178858985BA
:1016D0009A850E949B162B013C01E981FA812481A5
:1016E000358146815781C501B4010E949B169B013B
:1016F000AC01C301B2010E94FB132B013C01E98143
:10170000FA812085318542855385C701B6010E9443
:101710009B169B01AC01C301B2010E94FB13E9813E
:10172000FA8124853585468557850E94FB1390589C
:101730000E94E61469837A838B839C83F101208164
:101740003181428153816F81788589859A850E9494
:101750009B162B013C01F101248135814681578183
:10176000C501B4010E949B169B01AC01C301B201EB
:101770000E94FB134B015C01F101208531854285FC
:101780005385C701B6010E949B169B01AC01C501A0
:10179000B4010E94FB13F1012485358546855785E8
:1017A0000E94FB1390580E94E6146B017C0120E01C
:1017B00030E040E85FE369817A818B819C810E94FF
:1017C000FB139B01AC0160E070E080E89FE30E94A6
:1017D0006C140E941815698320E030E040E85FE354
:1017E000C701B6010E94FB139B01AC0160E070E0F1
:1017F00080E89FE30E946C140E941815962F89813F
:101800002A960FB6F894DEBF0FBECDBFDF91CF9101
:101810001F910F91FF90EF90DF90CF90BF90AF900E
:101820009F908F907F906F905F904F903F902F9000
:101830000895CF92DF92EF92FF920F931F93CF9371
:10184000DF930E94111160E080E00E94710F82EA34
:1018500091E00E94621061E080E00E94710F89EACD
:1018600091E00E9462102FEF83ED90E321508040C1
:101870009040E1F700C000000E9411118091D60154
:10188000833009F440C0D2C0C701B6010E941815C8
:10189000D62F6C2F70E080E090E00E94471520E08A
:1018A00030E048EC52E40E949B166B017C0120E082
:1018B00030E0A9010E94671487FDB6C020E030E047
:1018C00048EC52E4C701B6010E94201618160CF429
:1018D00071C0C701B6010E941815962F8D2F0E9466
:1018E00026010E94281281116EC02FEF80E792E03E
:1018F000215080409040E1F700C000008091D60167
:10190000833009F093C082E00E942A0DC82F83E043
:101910000E942A0DD82F0E94111160E080E00E94E1
:10192000710F81EB91E00E9462108C2F90E00E9479
:10193000871060E088E00E94710F84EB91E00E94C4
:1019400062108D2F90E00E94871080EEC82E82E0FA
:10195000D82E98EDE92E91E0F92E08E012E028EF5C
:1019600031E048EE51E06D2F8C2F0E94890AC92F7B
:10197000682F70E080E090E00E94471520E030E0A2
:1019800048EC52E40E949B166B017C0120E030E0A1
:10199000A9010E94671487FD45C020E030E048ECB3
:1019A00052E4C701B6010E94201618160CF06CCF45
:1019B000D4E66FCF94E68D2F0E9426010E94281254
:1019C000882309F492CF0E948B00882309F48DCFDD
:1019D0000E94111160E080E00E94710F87EB91E09E
:1019E0000E94621061E080E00E94710F88E891E03F
:1019F0000E9462102FEF83ED90E3215080409040D1
:101A0000E1F700C000000E94111182E08093D6012E
:101A1000DF91CF911F910F91FF90EF90DF90CF90CA
:101A20000C940401D0E035CF90E058CFDF91CF91F6
:101A30001F910F91FF90EF90DF90CF900895EAE70C
:101A4000F0E0808187688083ECE7F0E08081806649
:101A50008083089590917C00987F90937C00909172
:101A60007C00892B80937C0080917A008064809335
:101A70007A0080917A0086FDFCCF809179000895EC
:101A80008DB18F7C8DB985E08A95F1F700006D9A54
:101A9000759885E08A95F1F700006C9A749885E056
:101AA0008A95F1F7000008956C9885E08A95F1F722
:101AB00000006D9885E08A95F1F7000008956D9813
:101AC00085E08A95F1F7000065990DC06C9885E076
:101AD0008A95F1F700006C9A749885E08A95F1F781
:101AE0000000659BF3CF6C9808956C9885E08A950B
:101AF000F1F700006C9A749885E08A95F1F7000080
:101B000008951F93CF93DF93D82FC62F142F0E94D1
:101B10005F0D0E94400D87E013C06D9895E09A9587
:101B2000F1F700006C9895E09A95F1F700006C9A37
:101B3000749895E09A95F1F70000DD0F815029F037
:101B4000D6FDEBCF6D9A7598E9CF6D9A759885E0C3
:101B50008A95F1F700006C9895E09A95F1F70000EE
:101B60006C9A749885E08A95F1F700006D9895E07D
:101B70009A95F1F700006C98659B05C08CEB91E09D
:101B80000E946210FFCF85E08A95F1F700006C9A01
:101B9000749895E09A95F1F7000088E014C06D9A6A
:101BA000759895E09A95F1F700006C9895E09A95F4
:101BB000F1F700006C9A749895E09A95F1F700009F
:101BC000CC0F815021F0C7FFEACF6D98EACF6D9816
:101BD00085E08A95F1F700006C98659B05C088EC5C
:101BE00091E00E946210FFCF95E09A95F1F7000016
:101BF0006C9A749885E08A95F1F70000112351F0F2
:101C00006C9895E09A95F1F700006D9885E08A95BB
:101C1000F1F70000DF91CF911F910895FC01662339
:101C2000D1F14FEF460F50E04F5F5F4F480F591F04
:101C3000908128E016C06D9A759885E08A95F1F735
:101C400000006C9885E08A95F1F700006C9A749812
:101C500085E08A95F1F700009081990F90832150DB
:101C600021F097FFE8CF6D98E8CF31966D9885E029
:101C70008A95F1F700006C98659918C085E08A95FF
:101C8000F1F700006C9A749885E08A95F1F70000EE
:101C9000E417F50769F66C9885E08A95F1F700007E
:101CA0006D9885E08A95F1F70000089585EC91E044
:101CB0000E946210FFCF0F931F93CF93DF93082FE3
:101CC000EB01142F0E94400D87E013C06D9895E042
:101CD0009A95F1F700006C9895E09A95F1F700005D
:101CE0006C9A749895E09A95F1F70000000F815076
:101CF00029F006FDEBCF6D9A7598E9CF6D9885E0D8
:101D00008A95F1F700006C9895E09A95F1F700003C
:101D10006C9A749885E08A95F1F700006D9895E0CB
:101D20009A95F1F700006C98659B05C08DEC91E0E9
:101D30000E946210FFCF85E08A95F1F700006C9A4F
:101D4000749895E09A95F1F700006D9885E08A9572
:101D5000F1F700001123B1F12FEF210F30E02F5FD9
:101D60003F4F2C0F3D1F98E08881880F88836C9827
:101D700085E08A95F1F70000659B03C0888181604A
:101D8000888385E08A95F1F700006C9A749885E065
:101D90008A95F1F70000915039F76D9A759895E0A2
:101DA0009A95F1F700006C9885E08A95F1F70000AC
:101DB0006C9A749895E09A95F1F7000021962C178B
:101DC0003D0789F695E09A95F1F700006C9885E05B
:101DD0008A95F1F700006D9895E09A95F1F700006B
:101DE000DF91CF911F910F910895CF93DF931F92B1
:101DF000CDB7DEB7498340E00E94810D61E0CE019E
:101E000001960E940E0E0F90DF91CF9108951F93BF
:101E1000CF93DF931F92CDB7DEB7182F41E00E941A
:101E2000810D41E0BE016F5F7F4F812F0E945B0EED
:101E300089810F90DF91CF911F91089561E08CE12E
:101E40000C94070F63E08CE10C94070F65E08CE1C4
:101E50000C94070F8AE08A95F1F700C0449A8AE053
:101E60008A95F1F700C044988AE08A95F1F700C09E
:101E70000895F89482B98AE08A95F1F700C0449AEF
:101E80008AE08A95F1F700C044988AE08A95F1F7D4
:101E900000C0789408958F98F89482B98AE08A9562
:101EA000F1F700C0449A8AE08A95F1F700C044989F
:101EB0008AE08A95F1F700C0789408958F9AF89493
:101EC00082B98AE08A95F1F700C0449A8AE08A953F
:101ED000F1F700C044988AE08A95F1F700C0789441
:101EE0000895803110F4623008F0089590E4699FFD
:101EF000800D112480588F98F89482B98AE08A95D1
:101F0000F1F700C0449A9AE09A95F1F700C044981E
:101F10008AE08A95F1F700C0789495EC9A95F1F7EC
:101F2000000008953C9A879A8FEF81B98FE19EE473
:101F30000197F1F700C000008F98F89488E382B908
:101F40009AE09A95F1F700C0449AEAE0EA95F1F731
:101F500000C04498FAE0FA95F1F700C07894EFE7F2
:101F6000F2E03197F1F700C000008F98F89482B941
:101F7000FAE0FA95F1F700C0449A9AE09A95F1F7E1
:101F800000C04498EAE0EA95F1F700C07894EFE7E2
:101F9000F2E03197F1F700C000008F98F89482B911
:101FA000FAE0FA95F1F700C0449A9AE09A95F1F7B1
:101FB00000C04498EAE0EA95F1F700C07894EFE7B2
:101FC000F2E03197F1F700C000008F98F89498E0A4
:101FD00092B9FAE0FA95F1F700C0449A9AE09A951E
:101FE000F1F700C04498EAE0EA95F1F700C0789470
:101FF000EFE7F2E03197F1F700C000008F98F89416
:1020000091E092B9FAE0FA95F1F700C0449A9AE0AB
:102010009A95F1F700C04498EAE0EA95F1F700C01C
:102020007894EFE7FEE33197F1F700C000008F9856
:10203000F89496E092B9FAE0FA95F1F700C0449A64
:102040009AE09A95F1F700C04498EAE0EA95F1F732
:1020500000C07894EFE7F2E03197F1F700C000009C
:102060008F98F89482B9FAE0FA95F1F700C0449A93
:102070008AE08A95F1F700C044989AE09A95F1F7C2
:1020800000C07894EFE8F1E03197F1F700C000006C
:102090008F98F8948CE082B9FAE0FA95F1F700C0D5
:1020A000449A8AE08A95F1F700C044989AE09A959C
:1020B000F1F700C07894EFE8F1E03197F1F700C054
:1020C00000000895DC019C91992301F120E08F9A92
:1020D000F89492B98AE08A95F1F700C0449A9AE0A0
:1020E0009A95F1F700C044988AE08A95F1F700C00C
:1020F00078948FE792E00197F1F700C000002F5F1E
:10210000FD01E20FF11D90819111E1CF08951F9320
:10211000CF93DF93FC01892B09F466C045E011E001
:102120002FE037E2E9012196CF01BE010E94BD13E5
:1021300061111DC02E173F0708F052C01123A9F1ED
:1021400011E0CF01BE010E94BD13FC01ADECBCEC5F
:102150000E94EB139C013695279536952795369569
:1021600027954150F9F6DF91CF911F9108952E17D1
:102170003F07D8F0605D8F9AF89462B99AE09A951B
:10218000F1F700C0449A8AE08A95F1F700C04498BC
:102190009AE09A95F1F700C078948FE792E0019762
:1021A000F1F700C0000010E0D1CF605D8F9AF89485
:1021B00062B99AE09A95F1F700C0449A8AE08A954C
:1021C000F1F700C044989AE09A95F1F700C078942E
:1021D0008FE792E00197F1F700C0000010E0B1CF67
:1021E000112341F211E0B2CF8F9AF89480E382B9C3
:1021F0008AE08A95F1F700C0449A9AE09A95F1F73F
:1022000000C044988AE08A95F1F700C078948FE77F
:1022100092E00197F1F700C00000DF91CF911F918C
:1022200008958F98F89481E082B98AE08A95F1F751
:1022300000C0449A9AE09A95F1F700C044988AE069
:102240008A95F1F700C078948FE79EE30197F1F744
:1022500000C0000008955D9A5C980895262F3FEF16
:1022600081110EC06303C001112464E670E00E9476
:10227000D1136093B30012169CF45C9A5D98089594
:102280006303C001112464E670E00E94D11367BDAE
:1022900012161CF45E9A5F9808955F9A5E980895EE
:1022A0000C942B11CF93DF93C3EBD0E018820E94E4
:1022B0002B1117BC5F9A5E9884B1806984B98AB18A
:1022C000806F8AB9E0EBF0E080818866808380814E
:1022D0008260808384B5886684BD84B5826084BD55
:1022E0008AE087BD8883DF91CF9108955C9A5D98DD
:1022F0002C9A5F9A5E982F9A08951F920F920FB6AC
:102300000F9211242F933F934F935F936F937F937B
:102310008F939F93EF93FF938091D7014091880013
:102320005091890080FD30C08695E82FF0E0EE0FD7
:10233000FF1FE850FD4F20813181240F351F30935E
:1023400089002093880048B121E030E0B90102C043
:10235000660F771F8A95E2F7CB01842B88B98091AD
:10236000D7018F5F87708093D701FF91EF919F9185
:102370008F917F916F915F914F913F912F910F902E
:102380000FBE0F901F9018958695E82FF0E0EE0F86
:10239000FF1FE051FD4F20813181240F351F309305
:1023A00089002093880048B121E030E0B90102C0E3
:1023B000660F771F8A95E2F7CB018095842388B951
:1023C000CECF90E02AE0629FB00111246C53764F8B
:1023D000880F991FFC01E850FD4F71836083FC0159
:1023E000E051FD4F24ED30E3261B370B3183208372
:1023F0000895A8EFB2E024EC39E011963C932E93B7
:10240000E0EFF2E080E197E29183808313963C93C2
:102410002E9312979383828315963C932E93149751
:102420009583848317963C932E9316979783868380
:1024300087B18F6087B9E1E8F0E010828081826027
:102440008083EFE6F0E08081826080837894089555
:102450008CB18095881F8827881F0895482F50E0E9
:102460004E30510510F080E00895FA01E25DFF4F13
:102470000C94E51323B130E08950A90102C05595B1
:1024800047958A95E2F7CA018170089583B18695D0
:10249000817008952CB130E0A90102C0559547958F
:1024A0008A95E2F7CA018170089522B330E08F5F08
:1024B000A90102C0559547958A95E2F7CA01817036
:1024C00008958CB186FB882780F9089523B1E3CF66
:1024D00026B130E08250A90102C0559547958A95F2
:1024E000E2F7CA018170089583B181700895962F33
:1024F000482F50E04E30510540F4FA01E45CFF4FA4
:102500000C94E513611164C02198089544B1895079
:1025100021E030E0B90102C0660F771F8A95E2F72B
:102520009923F1F1CB01842B84B908954DB121E0B9
:1025300030E0B90102C0660F771F8A95E2F7992350
:1025400009F43FC0CB01842B8DB9089543B38F5F4D
:1025500021E030E0B90102C0660F771F8A95E2F7EB
:10256000992329F1CB01842B83BB08956623E9F0DD
:102570006E9A089547B1825021E030E0B90102C05F
:10258000660F771F8A95E2F79923B1F0CB01842B70
:1025900087B9089544B1BCCF6623C1F0209A08954D
:1025A000CB018095842384B908956E980895CB015A
:1025B0008095842383BB0895CB018095842387B9BC
:1025C0000895CB01809584238DB9089520980895AE
:1025D000219A0895962F482F50E04E30510540F42F
:1025E000FA01E65BFF4F0C94E513611164C0299872
:1025F000089545B1895021E030E0B90102C0660F6D
:10260000771F8A95E2F79923F1F1CB01842B85B9E5
:1026100008954EB121E030E0B90102C0660F771F86
:102620008A95E2F7992309F43FC0CB01842B8EB938
:10263000089544B38F5F21E030E0B90102C0660F16
:10264000771F8A95E2F7992329F1CB01842B84BB6C
:1026500008956623E9F0769A089548B1825021E002
:1026600030E0B90102C0660F771F8A95E2F799231F
:10267000B1F0CB01842B88B9089545B1BCCF662356
:10268000C1F0289A0895CB018095842385B90895D7
:1026900076980895CB018095842384BB0895CB015F
:1026A0008095842388B90895CB01809584238EB9C1
:1026B000089528980895299A0895811104C06130D9
:1026C00031F0A0980895613021F0A1980895A09A62
:1026D0000895A19A0895882311F0A19A0895A09AC7
:1026E0000895882311F0A1980895A0980895529A0A
:1026F00083B3836083BB779A0E941F0D0E94920F61
:102700000E94F9110E94521141E06AE28CE10E949C
:10271000F50E2FEF81EE94E0215080409040E1F7DC
:1027200000C000000C945F0D0E9477130E94F91105
:102730000E94920F0E9404018091D601C2E0813074
:1027400061F08130A8F0823061F0833079F40E942A
:10275000190C8091D6018130A1F70E94B402C09378
:10276000D6010E9426098091D601E9CF1092D601A8
:102770000E947E038091D601E2CFAA1BBB1B51E1D0
:1027800007C0AA1FBB1FA617B70710F0A61BB70BE1
:10279000881F991F5A95A9F780959095BC01CD0186
:1027A000089597FB072E16F4009407D077FD09D003
:1027B0000E94BD1307FC05D03EF4909581959F4F74
:1027C0000895709561957F4F0895EE0FFF1F059056
:1027D000F491E02D0994A29FB001B39FC001A39F83
:1027E000700D811D1124911DB29F700D811D11244A
:1027F000911D08955058BB27AA270E9412140C94CB
:10280000E6150E94D81538F00E94DF1520F039F443
:102810009F3F19F426F40C94AE150EF4E095E7FBF7
:102820000C94A815E92F0E94F71558F3BA17620700
:1028300073078407950720F079F4A6F50C94191610
:102840000EF4E0950B2EBA2FA02D0B01B9019001CB
:102850000C01CA01A0011124FF27591B99F0593F0F
:1028600050F4503E68F11A16F040A22F232F342F57
:102870004427585FF3CF469537952795A795F040A5
:102880005395C9F77EF41F16BA0B620B730B840BBA
:10289000BAF09150A1F0FF0FBB1F661F771F881F72
:1028A000C2F70EC0BA0F621F731F841F48F48795CA
:1028B00077956795B795F7959E3F08F0B0CF9395BC
:1028C000880F08F09927EE0F9795879508950E9435
:1028D000841508F481E008950E9480140C94E61594
:1028E0000E94DF1558F00E94D81540F029F45F3F90
:1028F00029F00C94A81551110C941A160C94AE15CD
:102900000E94F71568F39923B1F3552391F3951BB2
:10291000550BBB27AA2762177307840738F09F5F00
:102920005F4F220F331F441FAA1FA9F335D00E2E6D
:102930003AF0E0E832D091505040E695001CCAF7DA
:102940002BD0FE2F29D0660F771F881FBB1F26179D
:1029500037074807AB07B0E809F0BB0B802DBF0174
:10296000FF2793585F4F3AF09E3F510578F00C9443
:10297000A8150C941A165F3FE4F3983ED4F386959D
:1029800077956795B795F7959F5FC9F7880F911D64
:102990009695879597F90895E1E0660F771F881F50
:1029A000BB1F621773078407BA0720F0621B730B03
:1029B000840BBA0BEE1F88F7E095089529F416F002
:1029C0000C94A8150C9419160C94AE150E94FF15C2
:1029D000A8F39638A0F707F80F92E8942BE33AEAA9
:1029E00048EB5FE70E94B1160F920F920F924DB71E
:1029F0005EB70F920E946716E0EBF0E00E94B115FF
:102A00004F915F91EF91FF91E595EE1FFF1F49F008
:102A1000FE57E0684427EE0F441FFA95E1F7419511
:102A2000550B0E9431160F9007FE0C942516089541
:102A30000E94FF1588F09F5798F0B92F9927B7513A
:102A4000B0F0E1F0660F771F881F991F1AF0BA9552
:102A5000C9F714C0B13091F00E941916B1E0089581
:102A60000C941916672F782F8827B85F39F0B93F73
:102A7000CCF3869577956795B395D9F73EF4909505
:102A80008095709561957F4F8F4F9F4F0895E89483
:102A900009C097FB3EF490958095709561957F4FA6
:102AA0008F4F9F4F9923A9F0F92F96E9BB27939554
:102AB000F695879577956795B795F111F8CFFAF464
:102AC000BB0F11F460FF1BC06F5F7F4F8F4F9F4F95
:102AD00016C0882311F096E911C0772321F09EE8F3
:102AE000872F762F05C0662371F096E8862F70E059
:102AF00060E02AF09A95660F771F881FDAF7880F33
:102B00009695879597F90895990F0008550FAA0B88
:102B1000E0E8FEEF16161706E807F907C0F01216F0
:102B20001306E407F50798F0621B730B840B950BF3
:102B300039F40A2661F0232B242B252B21F4089548
:102B40000A2609F4A140A6958FEF811D811D0895E5
:102B500097F99F6780E870E060E008959FEF80EC50
:102B60000895DF93CF931F930F93FF92EF92DF921D
:102B70007B018C01689406C0DA2EEF010E94AE162C
:102B8000FE01E894A5912591359145915591A6F3C3
:102B9000EF010E941214FE019701A801DA9469F76F
:102BA000DF90EF90FF900F911F91CF91DF910895EB
:102BB00000240A941616170618060906089500241C
:102BC0000A9412161306140605060895092E039496
:102BD000000C11F4882352F0BB0F40F4BF2B11F40A
:102BE00060FF04C06F5F7F4F8F4F9F4F089557FD69
:102BF0009058440F551F59F05F3F71F04795880F6B
:102C000097FB991F61F09F3F79F087950895121601
:102C100013061406551FF2CF4695F1DF08C01616AD
:102C200017061806991FF1CF86957105610508945E
:102C30000895E894BB2766277727CB0197F9089575
:102C40000E94841508F48FEF08959B01AC0160E0A9
:102C500070E080E89FE30C946C140C94A8150C941D
:102C600008170E94FF15D8F39923C9F3940F511D3B
:102C7000A3F39150504094F059F0882332F0660F3E
:102C8000771F881F91505040C1F79E3F51052CF788
:102C9000880F911D9695879597F908955F3FACF041
:102CA000983E9CF0BB27869577956795B79508F475
:102CB000B1609395C1F7BB0F58F711F460FFE8CFEF
:102CC0006F5F7F4F8F4F9F4FE3CF0C941A16FA011F
:102CD000DC01AA0FBB1F9B01AC01BF5728F42227C0
:102CE00033274427507820C0B75190F4AB2F0024ED
:102CF000469537952795011CA395D2F3002071F0D6
:102D0000220F331F441FB395DAF30ED00C94FA133D
:102D100061307105A0E88A07B94630F49B01AC0127
:102D20006627772788279078309621F02083318393
:102D30004283538308950E94AE160C94E6150E94B8
:102D4000D81538F00E94DF1520F0952311F00C946F
:102D5000A8150C94AE1511240C941A160E94F715A0
:102D600070F3959FC1F3950F50E0551F629FF001DE
:102D7000729FBB27F00DB11D639FAA27F00DB11DF7
:102D8000AA1F649F6627B00DA11D661F829F222780
:102D9000B00DA11D621F739FB00DA11D621F839F07
:102DA000A00D611D221F749F3327A00D611D231FDD
:102DB000849F600D211D822F762F6A2F11249F572B
:102DC00050409AF0F1F088234AF0EE0FFF1FBB1F2E
:102DD000661F771F881F91505040A9F79E3F5105ED
:102DE00080F00C94A8150C941A165F3FE4F3983EFB
:102DF000D4F3869577956795B795F795E7959F5F97
:102E0000C1F7FE2B880F911D9695879597F9089528
:102E10009F3F31F0915020F4879577956795B7954E
:102E2000880F911D9695879597F908958F929F9297
:102E3000AF92BF92CF92DF92EF92FF92CF93DF9348
:102E4000EC01688179818A819B8161157105810519
:102E5000910521F464E279ED8BE597E02DE133EF04
:102E600041E050E00E94251A49015A019B01AC0142
:102E7000A7EAB1E40E94441A6B017C01ACEEB4EF06
:102E8000A50194010E94521ADC01CB018C0D9D1DFD
:102E9000AE1DBF1DB7FF03C00197A109B0488883CD
:102EA0009983AA83BB839F77DF91CF91FF90EF90A7
:102EB000DF90CF90BF90AF909F908F9008950E9429
:102EC0001617089585E091E00E9416170895A0E076
:102ED000B0E08093050190930601A0930701B093A1
:102EE00008010895AEE0B0E0E8E7F7E10C94651A58
:102EF0000D891E8986E08C831A8309838FEF9FE7F3
:102F00009E838D83AE01475E5F4F6F89788DCE01C2
:102F100001960E949417EF81F885E00FF11F10824F
:102F20002E96E4E00C94811AABE0B0E0EAE9F7E118
:102F30000C94571A6C017B018A01FC0117821682DE
:102F4000838181FFCCC1CE0101963C01F6019381C2
:102F5000F70193FD859193FF81917F01882309F407
:102F6000BAC1853239F493FD859193FF81917F0138
:102F7000853229F4B60190E00E948B19E7CF912C9D
:102F8000212C312CFFE1F315D8F08B3279F038F495
:102F9000803279F08332A1F4232D20611DC08D325F
:102FA00061F0803369F4232D216016C0832D826087
:102FB000382EE32DE4603E2E2AC0F32DF8601DC0AC
:102FC00037FC2DC020ED280F2A3040F08E32B9F4A6
:102FD00036FC81C1232D2064322E19C036FE06C076
:102FE0008AE0989E200D1124922E11C0EAE02E9EB8
:102FF000200D1124222EF32DF0623F2E08C08C36B6
:1030000021F4832D8068382E02C0883641F4F70100
:1030100093FD859193FF81917F018111B3CF982F0B
:103020009F7D9554933028F40C5F1F4F9FE3998345
:103030000DC0833631F0833771F0833509F059C004
:1030400021C0F801808189830E5F1F4F88248394FB
:10305000912C530113C02801F2E04F0E511CF801CE
:10306000A080B18036FE03C0692D70E002C06FEF12
:103070007FEFC5010E9480194C018201F32DFF777B
:103080003F2E16C0280122E0420E511CF801A080FC
:10309000B18036FE03C0692D70E002C06FEF7FEF94
:1030A000C5010E9475194C01F32DF0683F2E820175
:1030B00033FC1BC0822D90E088169906B0F4B6014F
:1030C00080E290E00E948B192A94F4CFF50137FC3E
:1030D000859137FE81915F01B60190E00E948B19C6
:1030E00021102A9421E0821A91088114910471F729
:1030F000E8C0843611F0893641F5F80137FE07C083
:1031000060817181828193810C5F1F4F08C0608153
:103110007181072E000C880B990B0E5F1F4FF32D4A
:10312000FF763F2E97FF09C0909580957095619529
:103130007F4F8F4F9F4FF0683F2E2AE030E0A30172
:103140000E94C719882E861845C0853731F4232D73
:103150002F7EB22E2AE030E025C0932D997FB92E24
:103160008F36C1F018F4883579F0B5C0803719F082
:10317000883721F0B0C0E92FE061BE2EB4FE0DC04B
:10318000FB2DF460BF2E09C034FE0AC0292F266033
:10319000B22E06C028E030E005C020E130E002C0D9
:1031A00020E132E0F801B7FE07C0608171818281C1
:1031B00093810C5F1F4F06C06081718180E090E0B9
:1031C0000E5F1F4FA3010E94C719882E8618FB2D82
:1031D000FF773F2E36FE0DC0232D2E7FA22E8914A1
:1031E00058F434FE0BC032FC09C0832D8E7EA82E0D
:1031F00005C0B82CA32C03C0B82C01C0B92CA4FE68
:103200000FC0FE01E80DF11D8081803321F49A2D5D
:10321000997EA92E09C0A2FE06C0B394B39404C03F
:103220008A2D867809F0B394A3FC11C0A0FE06C0D5
:10323000B21488F4280C922C9B180EC0B21460F4BF
:10324000B60180E290E00E948B19B394F7CFB214DC
:1032500018F42B1802C0982C212CA4FE10C0B60123
:1032600080E390E00E948B19A2FE17C0A1FC03C06E
:1032700088E790E002C088E590E0B6010CC08A2D96
:10328000867859F0A1FE02C08BE201C080E2A7FC63
:103290008DE2B60190E00E948B19891438F4B601D2
:1032A00080E390E00E948B199A94F7CF8A94F301FF
:1032B000E80DF11D8081B60190E00E948B1981100C
:1032C000F5CF222009F442CEB60180E290E00E94C0
:1032D0008B192A94F6CFF6018681978102C08FEF71
:1032E0009FEF2B96E2E10C94731AFC01059061505C
:1032F00070400110D8F7809590958E0F9F1F08950C
:10330000FC016150704001900110D8F780959095B4
:103310008E0F9F1F08950F931F93CF93DF93FB0191
:10332000238121FD03C08FEF9FEF2CC022FF16C029
:1033300046815781248135814217530744F4A08187
:10334000B1819D012F5F3F4F318320838C93268174
:1033500037812F5F3F4F3783268314C08B01EC01E9
:10336000FB010084F185E02D0995892BE1F6D80158
:1033700016968D919C911797019617969C938E9314
:103380001697CE01DF91CF911F910F910895FA0109
:10339000AA27283051F1203181F1E8946F936E7F94
:1033A0006E5F7F4F8F4F9F4FAF4FB1E03ED0B4E085
:1033B0003CD0670F781F891F9A1FA11D680F791FC6
:1033C0008A1F911DA11D6A0F711D811D911DA11DD7
:1033D00020D009F468943F912AE0269F11243019E7
:1033E000305D3193DEF6CF010895462F4770405D82
:1033F0004193B3E00FD0C9F7F6CF462F4F70405D31
:103400004A3318F0495D31FD4052419302D0A9F78B
:10341000EACFB4E0A6959795879577956795BA9585
:10342000C9F700976105710508959B01AC010A2E4B
:1034300006945795479537952795BA95C9F7620F22
:10344000731F841F951FA01D0895052E97FB1EF462
:1034500000940E943C1A57FD07D00E948E1A07FC68
:1034600003D04EF40C943C1A50954095309521951C
:103470003F4F4F4F5F4F08959095809570956195A0
:103480007F4F8F4F9F4F08950E94EB13A59F900D84
:10349000B49F900DA49F800D911D11240895B7FF36
:1034A0000C94441A0E94441A821B930B08952F9285
:1034B0003F924F925F926F927F928F929F92AF92C4
:1034C000BF92CF92DF92EF92FF920F931F93CF9311
:1034D000DF93CDB7DEB7CA1BDB0B0FB6F894DEBFA8
:1034E0000FBECDBF09942A88398848885F846E84CE
:1034F0007D848C849B84AA84B984C884DF80EE8018
:10350000FD800C811B81AA81B981CE0FD11D0FB620
:10351000F894DEBF0FBECDBFED010895A1E21A2ED3
:10352000AA1BBB1BFD010DC0AA1FBB1FEE1FFF1F67
:10353000A217B307E407F50720F0A21BB30BE40BB7
:10354000F50B661F771F881F991F1A9469F76095FE
:103550007095809590959B01AC01BD01CF010895B8
:04356000F894FFCF0D
:10356400019A99993E0100000053657420497465DD
:10357400726174696F6E733A0054696C7420746F6D
:103584002061646A757374003C3D2D20202B3D3E00
:10359400002020202020202000547261696E696E72
:1035A4006720776974683A00206974657261746988
:1035B4006F6E73004461746100436F6C6C65637477
:1035C400696F6E004C3A256420256400523A2564E4
:1035D40000446F6E650050726F706F7274696F6E25
:1035E400616C004C3A256400547261696E696E67BF
:1035F4000045706F63687300547261696E696E6729
:1036040020004E657572616C004E6574776F726B45
:10361400004C3A00523A004D6F7265006164647266
:103624004E41434B0077725F4E41434B00726561DC
:06363400644E41434B000F
:00000001FF
