:100000000C946C000C9489000C9489000C94890069
:100010000C9489000C9489000C9489000C9417119D
:100020000C9489000C9489000C9489000C9489002C
:100030000C9489000C9489000C9489000C9489001C
:100040000C9489000C9489000C9489000C9489000C
:100050000C9489000C9489000C948900E411E4113B
:10006000EF11EF11FB110012001202120212021224
:100070000E12D411D411E01130123012401240127D
:100080005012641264125412541254126612201246
:1000900020121C12A312A312B312B312C312D7124E
:1000A000D712C712C712C712D912931293128F1206
:1000B00007634236B79BD8A71A39685618AEBAAB51
:1000C000558C1D3CB7CC5763BD6DEDFD753EF617E5
:1000D0007231BF000000803F11241FBECFEFD0E17E
:1000E000DEBFCDBF12E0A0E0B1E0E2EEF6E302C079
:1000F00005900D92AC33B107D9F722E0ACE3B2E042
:1001000001C01D92A63AB207E1F70E942E130C948B
:100110006F1B0C9400002FEF83EC99E0215080407E
:100120009040E1F700C0000006C08FE39CE9019712
:10013000F1F700C000000E94C2118111F6CF81E0EA
:100140000895AF92BF92CF92DF92EF92FF920F93FA
:100150001F93CF93DF93EC010E9421185C010E9452
:1001600021186C010E9421187C010E9421188C0129
:10017000B501BB0C880B990B0E94E71420E03EEF01
:100180004FEF56E40E940A14688379838A839B8325
:10019000B601DD0C880B990B0E94E71420E03EEFBE
:1001A0004FEF56E40E940A146C837D838E839F83F5
:1001B000B701FF0C880B990B0E94E71420E03EEF7B
:1001C0004FEF56E40E940A14688779878A879B87D5
:1001D000B801110F880B990B0E94E71420E03EEF45
:1001E0004FEF56E40E940A146C877D878E879F87A5
:1001F000CE01DF91CF911F910F91FF90EF90DF9093
:10020000CF90BF90AF9008956FE782E00E947B117E
:100210006FE783E00C947B1190580E94841420E0D7
:1002200030E040E85FE30E9499139B01AC0160E07D
:1002300070E080E89FE30E940A1408950E94C211B2
:10024000811102C080E008950C948B00CF93DF935E
:10025000C62F682F70E080E090E00E94E71420E055
:1002600030E040E05FE30E94391620E030E04EEFDE
:1002700052E40E9499130E94B614D62F6C2F70E09E
:1002800080E090E00E94E71420E030E040E05FE38F
:100290000E94391620E030E04EEF52E40E9499139C
:1002A0000E94B614962F8D2FDF91CF9108950F9352
:1002B0001F93CF93DF93682F70E080E090E00E945F
:1002C000E71420E030E048EC52E40E940A148B016D
:1002D000D82FC92F20E030E0A9010E94051487FD26
:1002E00017C020E030E040E85FE3B8018D2F9C2F7D
:1002F0000E94BE15181624F400E010E0D0E8CFE309
:10030000B8018D2F9C2FDF91CF911F910F910895F0
:1003100000E010E0D0E0C0E0B8018D2F9C2FDF910D
:10032000CF911F910F9108950F931F93CF93DF9358
:1003300020E030E048EC52E40E9439168B01D82FBF
:10034000C92F20E030E0A9010E94051487FD1FC0DD
:1003500020E030E048EC52E4B8018D2F9C2F0E9441
:10036000BE15181644F0B8018D2F9C2FDF91CF9148
:100370001F910F91089500E010E0D8ECC2E4B8019D
:100380008D2F9C2FDF91CF911F910F91089500E049
:1003900010E0D0E0C0E0B8018D2F9C2FDF91CF910D
:1003A0001F910F9108950F931F93CF930E94AB104D
:1003B00060E080E00E940B0F82E791E00E94FC0F5A
:1003C00061E080E00E940B0F82E891E00E94FC0F48
:1003D0002FEF33ED80E3215030408040E1F700C043
:1003E00000000E94AB1060E080E00E940B0F81E9EA
:1003F00091E00E94FC0F04E610E033C0C95CC133F9
:1004000008F447C097E3980F9D3178F40A3011053E
:1004100008F47EC00A5011099FEF21EE34E091509C
:1004200020403040E1F700C000008551813308F4DE
:1004300063C061E080E00E940B0FC8010E942110A0
:100440008AE991E00E94FC0F0E94C21181112DC027
:100450003FEF80E792E0315080409040E1F700C0EC
:1004600000000E94BC0EC82F0E94B80E91EE9C0F97
:10047000973220F6015011099FEF21EE34E09150A0
:1004800020403040E1F700C00000C95CC13308F0F3
:10049000B9CF0F5F1F4F9FEF21EE34E09150204006
:1004A0003040E1F700C00000ADCF0E948B008823F0
:1004B00079F20E94AB1060E080E00E940B0F82EAAC
:1004C00091E00E94FC0F61E080E00E940B0FC801E8
:1004D0000E94211081EB91E00E94FC0F2FEF33ED81
:1004E00080E3215030408040E1F700C00000C801A7
:1004F000CF911F910F910895065F1F4F8FEF91EEDF
:1005000024E0815090402040E1F700C0000091CFEE
:1005100000E010E081CF4F925F926F927F928F92B6
:100520009F92AF92BF92CF92DF92EF92FF92CF93C2
:10053000DF93CDB7DEB728970FB6F894DEBF0FBEB6
:10054000CDBF6983682F70E080E090E00E94E714DF
:100550004B015C012981622F70E080E090E00E94F5
:10056000E7146B017C01E2E5F2E0208131814281F8
:100570005381C501B4010E9439162B013C01209121
:100580005602309157024091580250915902C701CA
:10059000B6010E9439169B01AC01C301B2010E9451
:1005A000991320915E0230915F0240916002509158
:1005B00061020E94991390580E94841420E030E058
:1005C00040E85FE30E9499139B01AC0160E070E09A
:1005D00080E89FE30E940A142B013C01E2E6F2E06E
:1005E0002081318142815381C501B4010E943916B5
:1005F00069837A838B839C832091660230916702A2
:100600004091680250916902C701B6010E943916F3
:100610009B01AC0169817A818B819C810E94991335
:1006200020916E0230916F024091700250917102E0
:100630000E94991390580E94841420E030E040E812
:100640005FE30E9499139B01AC0160E070E080E8D9
:100650009FE30E940A1469837A838B839C83E2E779
:10066000F2E02081318142815381C501B4010E94B1
:1006700039164B015C01209176023091770240914E
:10068000780250917902C701B6010E9439169B0188
:10069000AC01C501B4010E94991320917E023091F2
:1006A0007F0240918002509181020E9499139058DC
:1006B0000E94841420E030E040E85FE30E94991338
:1006C0009B01AC0160E070E080E89FE30E940A14A7
:1006D0006B017C01E2E4F2E02081318142815381AF
:1006E000C301B2010E9439164B015C012091460200
:1006F00030914702409148025091490269817A81C4
:100700008B819C810E9439169B01AC01C501B4010B
:100710000E9499134B015C0120914A0230914B02D7
:1007200040914C0250914D02C701B6010E9439160A
:100730009B01AC01C501B4010E94991320914E02A6
:1007400030914F0240915002509151020E949913F2
:1007500090580E9484146D837E838F839887E2E88B
:10076000F2E02081318142815381C301B2010E94B4
:1007700039164B015C01209186023091870240912D
:1007800088025091890269817A818B819C810E94C3
:1007900039169B01AC01C501B4010E9499134B01AC
:1007A0005C0120918A0230918B0240918C02509121
:1007B0008D02C701B6010E9439169B01AC01C5012B
:1007C000B4010E94991320918E0230918F024091C2
:1007D0009002509191020E94991390580E948414A3
:1007E0006B017C0120E030E040E85FE36D817E81B9
:1007F0008F8198850E9499139B01AC0160E070E0A5
:1008000080E89FE30E940A1420E030E04FE753E4C1
:100810000E9439160E94B614698320E030E040E857
:100820005FE3C701B6010E9499139B01AC0160E030
:1008300070E080E89FE30E940A1420E030E04FE778
:1008400053E40E9439160E94B614962F8981289687
:100850000FB6F894DEBF0FBECDBFDF91CF91FF90F2
:10086000EF90DF90CF90BF90AF909F908F907F9050
:100870006F905F904F9008954F925F926F927F922A
:10088000AF92BF92CF92DF92EF92FF920F931F939E
:10089000CF93DF93CDB7DEB72C970FB6F894DEBFBA
:1008A0000FBECDBF69837A838B839C8329013A0174
:1008B000ED82FE820F83188760E070E080E89FE39E
:1008C0000E949813A30192010E94391669877A87C2
:1008D0008B879C87A301920169817A818B819C819E
:1008E0000E9498139B01AC0169857A858B859C8554
:1008F0000E943916A80197010E9439162AE939E9A0
:1009000049E95EE30E9439169B01AC01C601B501BD
:100910000E9498132C960FB6F894DEBF0FBECDBF81
:10092000DF91CF911F910F91FF90EF90DF90CF90CB
:10093000BF90AF907F906F905F904F9008952F92EF
:100940003F924F925F926F927F928F929F92AF925F
:10095000BF92CF92DF92EF92FF920F931F93CF93AC
:10096000DF93CDB7DEB760970FB6F894DEBF0FBE4A
:10097000CDBF0E94AB1060E080E00E940B0F8DEBBA
:1009800091E00E94FC0F61E080E00E940B0F82EC7E
:1009900091E00E94FC0F2FEF83ED90E32150804007
:1009A0009040E1F700C000000E94AB100E940401DB
:1009B00084E690E00E94B4161C018C01E12CF12C1D
:1009C000FE0139966F01CE0101964C013DECA32E3C
:1009D00031E0B32E45ED642E41E0742E83E00E9499
:1009E000C40C482E84E00E94C40C582EF8014082AA
:1009F0008183C701959587959F938F931F924F92FF
:100A0000BF92AF92DF92CF920E9431181F925F92F5
:100A10007F926F929F928F920E9431180E94AB102A
:100A200060E080E00E940B0FC6010E94FC0F61E0B5
:100A300080E00E940B0FC4010E94FC0FFFEF21EE2B
:100A400084E0F15020408040E1F700C000000E94A7
:100A5000AB1092E0E90EF11C0E5F1F4F0FB6F89439
:100A6000DEBF0FBECDBFF4E6EF16F10409F0B6CF3E
:100A70000E94AB1060E080E00E940B0F82EC91E0DE
:100A80000E94FC0F61E080E00E940B0F8AED91E074
:100A90000E94FC0F2FEF83ED90E3215080409040A7
:100AA000E1F700C000000E94AB10C10160960FB6D4
:100AB000F894DEBF0FBECDBFDF91CF911F910F9194
:100AC000FF90EF90DF90CF90BF90AF909F908F906E
:100AD0007F906F905F904F903F902F9008955F921E
:100AE0006F927F928F929F92AF92BF92CF92DF923E
:100AF000EF92FF920F931F93CF93DF93CDB7DEB7A3
:100B000060970FB6F894DEBF0FBECDBF0E94AB104A
:100B100060E080E00E940B0F8FED91E00E94FC0FDF
:100B20002FEF33ED80E3215030408040E1F700C0EB
:100B3000000080913E02811188C09E01275F3F4FD7
:100B40006901CE0101964C018CEEA82E81E0B82EF1
:100B500095ED692E91E0792E0AC08FE19EE4019710
:100B6000F1F700C0000080913E0281116EC083E069
:100B70000E94C40C182F84E00E94C40C582EE12E51
:100B8000F12C1F921F93BF92AF92DF92CF920E94DF
:100B90003118052D10E01F925F927F926F929F9205
:100BA0008F920E9431180E94AB1060E080E00E949A
:100BB0000B0FC6010E94FC0F61E080E00E940B0F4A
:100BC000C4010E94FC0FB701FF0C880B990B0E9417
:100BD000E71420E030E040E05FE30E94391620E0B7
:100BE00030E04EEF52E40E9499130E94B61482E066
:100BF0000E947B11B801110F880B990B0E94E7141A
:100C000020E030E040E05FE30E94391620E030E071
:100C10004EEF52E40E9499130E94B61483E00E94A2
:100C20007B110E94C2110FB6F894DEBF0FBECDBF7C
:100C3000882309F492CF0E948B00882309F48DCF7A
:100C400081E080933E020E94040160960FB6F89402
:100C5000DEBF0FBECDBFDF91CF911F910F91FF90EF
:100C6000EF90DF90CF90BF90AF909F908F907F904C
:100C70006F905F9008950E949F0490933D0280932F
:100C80003C0282E080933E0208952F923F924F9261
:100C90005F926F927F928F929F92AF92BF92CF920C
:100CA000DF92EF92FF920F931F93CF93DF93CDB715
:100CB000DEB7EE970FB6F894DEBF0FBECDBF762E2F
:100CC0001A013A832983FC82EB82DEAECDAE682F17
:100CD00070E080E090E00E94E7144B015C01672D1A
:100CE00070E080E090E00E94E7146D837E838F8344
:100CF0009887D1012D913D914D915C91C501B40131
:100D00000E9439166B017C01F101248135814681F5
:100D100057816D817E818F8198850E9439169B0154
:100D2000AC01C701B6010E949913D1011C962D9107
:100D30003D914D915C911F970E9499136D877E871D
:100D40008F87988B90580E94841420E030E040E810
:100D50005FE30E9499139B01AC0160E070E080E8C2
:100D60009FE30E940A14698F7A8F8B8F9C8FE98191
:100D7000FA812081318142815381C501B4010E94F1
:100D800039162B013C01A981BA8114962D913D9110
:100D90004D915C9117976D817E818F8198850E941E
:100DA00039169B01AC01C301B2010E949913E9817C
:100DB000FA8124853585468557850E949913698B6C
:100DC0007A8B8B8B9C8B90580E94841420E030E0AF
:100DD00040E85FE30E9499139B01AC0160E070E082
:100DE00080E89FE30E940A146D8F7E8F8F8F98A3F7
:100DF000D8012D913D914D915C91C501B4010E94A6
:100E000039162B013C01F801248135814681578137
:100E10006D817E818F8198850E9439169B01AC017E
:100E2000C301B2010E949913D8011C962D913D91E6
:100E30004D915C911F970E9499132B013C01905892
:100E40000E94841420E030E040E85FE30E949913A0
:100E50009B01AC0160E070E080E89FE30E940A140F
:100E600069A37AA38BA39CA3AB81BC818D919D9137
:100E70000D90BC91A02D8DA39EA3AFA3B8A7AB816D
:100E8000BC8114968D919D910D90BC91A02D89A748
:100E90009AA7ABA7BCA7AB81BC8118968D919D91F9
:100EA0000D90BC91A02D8DA79EA7AFA7B8ABAB812D
:100EB000BC811C968D919D910D90BC91A02D89AB0C
:100EC0009AABABABBCAB2DA13EA14FA158A56D8594
:100ED0007E858F8598890E9439166B017C0129A532
:100EE0003AA54BA55CA569897A898B899C890E9462
:100EF00039169B01AC01C701B6010E9499136B0121
:100F00007C012DA53EA54FA558A9C301B2010E94A1
:100F100039169B01AC01C701B6010E94991329A99A
:100F20003AA94BA95CA90E94991390580E94841475
:100F300020E030E040E85FE30E9499139B01AC01A0
:100F400060E070E080E89FE30E940A1469877A8776
:100F50008B879C87ADADBEAD8D919D910D90BC9161
:100F6000A02D8D8B9E8BAF8BB88FADADBEAD149683
:100F70008D919D910D90BC91A02D8DAB9EABAFAB93
:100F8000B8AFADADBEAD18968D919D910D90BC9151
:100F9000A02D89AF9AAFABAFBCAF2D893E894F89E9
:100FA000588D6D857E858F8598890E9439166B01D5
:100FB0007C012DA93EA94FA958AD69897A898B89F1
:100FC0009C890E9439169B01AC01C701B6010E94A1
:100FD00099136B017C0129AD3AAD4BAD5CADC301FA
:100FE000B2010E9439169B01AC01C701B6010E94F3
:100FF0009913EDADFEAD24853585468557850E9454
:10100000991390580E94841420E030E040E85FE398
:101010000E9499139B01AC0160E070E080E89FE3BF
:101020000E940A142B013C0120E030E040E05FE325
:10103000C501B4010E94391620E030E04EEF52E4C1
:101040000E9499130E94B61470E080E090E00E9424
:10105000E7149B01AC0169857A858B859C850E948C
:1010600098134B015C0129853A854B855C8560E0CE
:1010700070E080E89FE30E94981329853A854B85AC
:101080005C850E9439169B01AC01C501B4010E9428
:1010900039164B015C0120E030E040E05FE36D81F8
:1010A0007E818F8198850E94391620E030E04EEFD6
:1010B00052E40E9499130E94B61470E080E090E020
:1010C0000E94E7149B01AC01C301B2010E94981376
:1010D0006B017C01A301920160E070E080E89FE376
:1010E0000E949813A30192010E9439169B01AC0142
:1010F000C701B6010E9439166B017C01A50194015C
:101100006DA17EA18FA198A50E9439162B013C01EB
:10111000A70196016D897E898F89988D0E94391665
:101120009B01AC01C301B2010E9499132B013C0148
:10113000298D3A8D4B8D5C8D60E070E080E89FE3F7
:101140000E949813298D3A8D4B8D5C8D0E94391623
:101150009B01AC01C301B2010E9439166D837E83ED
:101160008F839887A501940169A57AA58BA59CA575
:101170000E9439162B013C01A70196016DA97EA999
:101180008FA998AD0E9439169B01AC01C301B20131
:101190000E9499132B013C012D8D3E8D4F8D58A13E
:1011A00060E070E080E89FE30E9498132D8D3E8DF3
:1011B0004F8D58A10E9439169B01AC01C301B201A9
:1011C0000E94391669877A878B879C87A5019401CD
:1011D0006DA57EA58FA598A90E9439162B013C010B
:1011E000A701960169AD7AAD8BAD9CAD0E94391611
:1011F0009B01AC01C301B2010E9499132B013C0178
:1012000029A13AA14BA15CA160E070E080E89FE3D6
:101210000E94981329A13AA14BA15CA10E94391602
:101220009B01AC01C301B2010E9439166D8B7E8B0C
:101230008F8B988F4090640150906501609066019B
:1012400070906701298D3A8D4B8D5C8DC501B4017D
:101250000E943916A30192010E9439169B01AC012C
:101260006DA17EA18FA198A50E949813AB81BC812E
:101270006D937D938D939C9313972D8D3E8D4F8D04
:1012800058A1C501B4010E943916A30192010E9420
:1012900039169B01AC0169A57AA58BA59CA50E9476
:1012A0009813EB81FC81648375838683978329A1DE
:1012B0003AA14BA15CA1C501B4010E943916A3015A
:1012C00092010E9439169B01AC016DA57EA58FA5E8
:1012D00098A90E949813AB81BC8118966D937D9359
:1012E0008D939C931B97A3019201C501B4010E94A9
:1012F00039169B01AC0169A97AA98BA99CA90E9406
:101300009813EB81FC816487758786879787298D81
:101310003A8D4B8D5C8DC701B6010E943916A30131
:1013200092010E9439169B01AC01ADADBEAD6D912D
:101330007D918D919C910E949813EDADFEAD6083DF
:101340007183828393832D8D3E8D4F8D58A1C7016C
:10135000B6010E943916A30192010E9439169B0121
:10136000AC01ADADBEAD14966D917D918D919C910A
:1013700017970E949813EDADFEAD64837583868345
:10138000978329A13AA14BA15CA1C701B6010E9494
:101390003916A30192010E9439169B01AC01ADAD33
:1013A000BEAD18966D917D918D919C911B970E9479
:1013B0009813EDADFEAD6087718782879387A30197
:1013C0009201C701B6010E9439169B01AC01ADAD77
:1013D000BEAD1C966D917D918D919C911F970E9441
:1013E0009813EDADFEAD64877587868797872D814D
:1013F0003E814F8158856D857E858F8598890E94B5
:101400003916A30192010E9439169B01AC01D1014A
:101410006D917D918D919C910E949813F101608353
:101420007183828393832D813E814F8158856989A1
:101430007A898B899C890E943916A30192010E94A6
:1014400039169B01AC01D10114966D917D918D915E
:101450009C9117970E949813F1016483758386838A
:101460009783A30192016D817E818F8198850E946F
:1014700039169B01AC01D1011C966D917D918D9126
:101480009C911F970E949813F10164877587868746
:10149000978729853A854B855C856D857E858F8507
:1014A00098890E943916A30192010E9439169B0166
:1014B000AC01A981BA816D917D918D919C910E9421
:1014C0009813E981FA8160837183828393832985EC
:1014D0003A854B855C8569897A898B899C890E94CC
:1014E0003916A30192010E9439169B01AC01A98112
:1014F000BA8114966D917D918D919C9117970E9460
:101500009813E981FA816483758386839783A301A5
:10151000920169857A858B859C850E9439169B018D
:10152000AC01A981BA811C966D917D918D919C91A0
:101530001F970E949813E981FA81648775878687CF
:1015400097872D893E894F89588D6D857E858F853A
:1015500098890E943916A30192010E9439169B01B5
:10156000AC01D8016D917D918D919C910E94981351
:10157000F80160837183828393832D893E894F892B
:10158000588D69897A898B899C890E943916A301B3
:1015900092010E9439169B01AC01D80114966D91FD
:1015A0007D918D919C9117970E949813F801648307
:1015B000758386839783A30192016D897E898F89C4
:1015C000988D0E9439169B01AC01D8011C966D9133
:1015D0007D918D919C911F970E949813F8016487CB
:1015E000758786879787EE960FB6F894DEBF0FBE95
:1015F000CDBFDF91CF911F910F91FF90EF90DF90C2
:10160000CF90BF90AF909F908F907F906F905F90A2
:101610004F903F902F9008956F927F928F929F925C
:10162000AF92BF92CF92DF92EF92FF920F931F93F0
:10163000CF93DF93CDB7DEB7C055D1090FB6F8947D
:10164000DEBF0FBECDBF80913C0290913D02892B41
:1016500009F4ACC00E94AB1060E080E00E940B0F68
:101660008AEF91E00E94FC0F9FEFE3EDF0E39150D1
:10167000E040F040E1F700C00000CE018F5B9F4FDB
:101680000E94A100CE01C1960E94A100CE018196C8
:101690000E94A100CE0141960E94A100CE010196B8
:1016A0000E94A10098EE692E93E0792E24E6822E06
:1016B00021E0922E80E0A82E81E0B82EF5018191E4
:1016C0005F019E012F5F3F4F6901FE0171967F010F
:1016D0008E010F5D1F4F205D3F4FAE014F5B5F4F8F
:1016E000682F0E9445062DEC3CEC4CE45DE36091D4
:1016F00064017091650180916601909167010E947B
:1017000098136093640170936501809366019093D0
:1017100067018A149B0491F6F1E06F1A710851F683
:101720000E94AB1060E080E00E940B0F83E092E02B
:101730000E94FC0F61E080E00E940B0F8AED91E0B7
:101740000E94FC0F2FEF33ED80E3215030408040AA
:10175000E1F700C0000009C09FEFE1EEF4E0915016
:10176000E040F040E1F700C000000E94C211882371
:1017700099F30E948B00882379F383E080933E02E3
:10178000C05BDF4F0FB6F894DEBF0FBECDBFDF9159
:10179000CF911F910F91FF90EF90DF90CF90BF906E
:1017A000AF909F908F907F906F9008950E94AB10A4
:1017B00060E080E00E940B0F81EF91E00E94FC0F3F
:1017C0002FEF37EA81E6215030408040E1F700C03A
:1017D000000010923E02D4CF8F929F92AF92BF92A0
:1017E000CF92DF92EF92FF920F931F93CF93DF93ED
:1017F000CDB7DEB760970FB6F894DEBF0FBECDBF92
:101800000E94AB1060E080E00E940B0F8DE092E040
:101810000E94FC0F61E080E00E940B0F84E192E0E7
:101820000E94FC0F2FEF33ED80E3215030408040C9
:10183000E1F700C000000E94AB1080913E028330AF
:1018400009F084C08E01075F1F4F9E012F5F3F4F3D
:1018500049018CEEA82E81E0B82E95EDC92E91E0BD
:10186000D92E0EC02FEF30E782E02150304080406B
:10187000E1F700C0000080913E02833009F066C0AD
:1018800083E00E94C40CF82E84E00E94C40CE82E71
:101890001F92FF92BF92AF921F930F930E94311835
:1018A0001F92EF92DF92CF929F928F920E943118F7
:1018B0000E94AB1060E080E00E940B0FC8010E9404
:1018C000FC0F61E080E00E940B0FC4010E94FC0F3E
:1018D0006E2D8F2D0E948B02F92E682F82E00E94C0
:1018E0007B116F2D83E00E947B110E94C2110FB605
:1018F000F894DEBF0FBECDBF882309F4B3CF0E949A
:101900008B00882309F4AECF0E94AB1060E080E02A
:101910000E940B0F8CE192E00E94FC0F61E080E0DE
:101920000E940B0F8AEF91E00E94FC0F3FEF83EDC6
:1019300090E3315080409040E1F700C000000E94E9
:10194000AB1082E080933E020E94040160960FB6C5
:10195000F894DEBF0FBECDBFDF91CF911F910F91E5
:10196000FF90EF90DF90CF90BF90AF909F908F90BF
:101970000895EAE7F0E0808187688083ECE7F0E093
:10198000808180668083089590917C00987F9093F9
:101990007C0090917C00892B80937C0080917A0060
:1019A000806480937A0080917A0086FDFCCF8091DC
:1019B000790008958DB18F7C8DB985E08A95F1F716
:1019C00000006D9A759885E08A95F1F700006C9A91
:1019D000749885E08A95F1F7000008956C9885E089
:1019E0008A95F1F700006D9885E08A95F1F700007F
:1019F00008956D9885E08A95F1F7000065990DC00E
:101A00006C9885E08A95F1F700006C9A749885E0EF
:101A10008A95F1F70000659BF3CF6C9808956C9858
:101A200085E08A95F1F700006C9A749885E08A95B4
:101A3000F1F7000008951F93CF93DF93D82FC62F9F
:101A4000142F0E94F90C0E94DA0C87E013C06D98E5
:101A500095E09A95F1F700006C9895E09A95F1F76A
:101A600000006C9A749895E09A95F1F70000DD0FEC
:101A7000815029F0D6FDEBCF6D9A7598E9CF6D9A1C
:101A8000759885E08A95F1F700006C9895E09A9535
:101A9000F1F700006C9A749885E08A95F1F70000E0
:101AA0006D9895E09A95F1F700006C98659B05C0DC
:101AB00081E292E00E94FC0FFFCF85E08A95F1F76A
:101AC00000006C9A749895E09A95F1F7000088E010
:101AD00014C06D9A759895E09A95F1F700006C988E
:101AE00095E09A95F1F700006C9A749895E09A95B4
:101AF000F1F70000CC0F815021F0C7FFEACF6D98BD
:101B0000EACF6D9885E08A95F1F700006C98659BA7
:101B100005C08DE292E00E94FC0FFFCF95E09A9500
:101B2000F1F700006C9A749885E08A95F1F700004F
:101B3000112351F06C9895E09A95F1F700006D989B
:101B400085E08A95F1F70000DF91CF911F9108950C
:101B5000FC016623D1F14FEF460F50E04F5F5F4F1E
:101B6000480F591F908128E016C06D9A759885E03E
:101B70008A95F1F700006C9885E08A95F1F70000EE
:101B80006C9A749885E08A95F1F700009081990F1E
:101B90009083215021F097FFE8CF6D98E8CF3196E0
:101BA0006D9885E08A95F1F700006C98659918C0EA
:101BB00085E08A95F1F700006C9A749885E08A9523
:101BC000F1F70000E417F50769F66C9885E08A954F
:101BD000F1F700006D9885E08A95F1F7000008950F
:101BE0008AE292E00E94FC0FFFCF0F931F93CF93E6
:101BF000DF93082FEB01142F0E94DA0C87E013C04B
:101C00006D9895E09A95F1F700006C9895E09A959B
:101C1000F1F700006C9A749895E09A95F1F700003E
:101C2000000F815029F006FDEBCF6D9A7598E9CF32
:101C30006D9885E08A95F1F700006C9895E09A958B
:101C4000F1F700006C9A749885E08A95F1F700002E
:101C50006D9895E09A95F1F700006C98659B05C02A
:101C600082E392E00E94FC0FFFCF85E08A95F1F7B6
:101C700000006C9A749895E09A95F1F700006D98C1
:101C800085E08A95F1F700001123B1F12FEF210FC4
:101C900030E02F5F3F4F2C0F3D1F98E08881880F69
:101CA00088836C9885E08A95F1F70000659B03C0F6
:101CB00088818160888385E08A95F1F700006C9ABD
:101CC000749885E08A95F1F70000915039F76D9A84
:101CD000759895E09A95F1F700006C9885E08A95E3
:101CE000F1F700006C9A749895E09A95F1F700006E
:101CF00021962C173D0789F695E09A95F1F700009B
:101D00006C9885E08A95F1F700006D9895E09A95BA
:101D1000F1F70000DF91CF911F910F910895CF93BC
:101D2000DF931F92CDB7DEB7498340E00E941B0DC1
:101D300061E0CE0101960E94A80D0F90DF91CF9136
:101D400008951F93CF93DF931F92CDB7DEB7182F5F
:101D500041E00E941B0D41E0BE016F5F7F4F812F6C
:101D60000E94F50D89810F90DF91CF911F91089509
:101D700061E08CE10C94A10E63E08CE10C94A10E67
:101D800065E08CE10C94A10E8AE08A95F1F700C021
:101D9000449A8AE08A95F1F700C044988AE08A95CF
:101DA000F1F700C00895F89482B98AE08A95F1F7B6
:101DB00000C0449A8AE08A95F1F700C044988AE00E
:101DC0008A95F1F700C0789408958F98F89482B9B5
:101DD0008AE08A95F1F700C0449A8AE08A95F1F783
:101DE00000C044988AE08A95F1F700C0789408957D
:101DF0008F9AF89482B98AE08A95F1F700C0449AE4
:101E00008AE08A95F1F700C044988AE08A95F1F754
:101E100000C078940895803110F4623008F008957D
:101E200090E4699F800D112480588F98F89482B9AE
:101E30008AE08A95F1F700C0449A9AE09A95F1F702
:101E400000C044988AE08A95F1F700C0789495EC38
:101E50009A95F1F7000008953C9A879A8FEF81B91F
:101E60008FE19EE40197F1F700C000008F98F8948D
:101E700088E382B99AE09A95F1F700C0449AEAE0C3
:101E8000EA95F1F700C04498FAE0FA95F1F700C03E
:101E90007894EFE7F2E03197F1F700C000008F98F7
:101EA000F89482B9FAE0FA95F1F700C0449A9AE002
:101EB0009A95F1F700C04498EAE0EA95F1F700C07E
:101EC0007894EFE7F2E03197F1F700C000008F98C7
:101ED000F89482B9FAE0FA95F1F700C0449A9AE0D2
:101EE0009A95F1F700C04498EAE0EA95F1F700C04E
:101EF0007894EFE7F2E03197F1F700C000008F9897
:101F0000F89498E092B9FAE0FA95F1F700C0449A93
:101F10009AE09A95F1F700C04498EAE0EA95F1F763
:101F200000C07894EFE7F2E03197F1F700C00000CD
:101F30008F98F89491E092B9FAE0FA95F1F700C021
:101F4000449A9AE09A95F1F700C04498EAE0EA953D
:101F5000F1F700C07894EFE7FEE33197F1F700C0A6
:101F600000008F98F89496E092B9FAE0FA95F1F7AC
:101F700000C0449A9AE09A95F1F700C04498EAE0CC
:101F8000EA95F1F700C07894EFE7F2E03197F1F7C6
:101F900000C000008F98F89482B9FAE0FA95F1F742
:101FA00000C0449A8AE08A95F1F700C044989AE00C
:101FB0009A95F1F700C07894EFE8F1E03197F1F7E6
:101FC00000C000008F98F8948CE082B9FAE0FA958E
:101FD000F1F700C0449A8AE08A95F1F700C044986E
:101FE0009AE09A95F1F700C07894EFE8F1E0319724
:101FF000F1F700C000000895DC019C91992301F1E4
:1020000020E08F9AF89492B98AE08A95F1F700C09F
:10201000449A9AE09A95F1F700C044988AE08A952C
:10202000F1F700C078948FE792E00197F1F700C0D4
:1020300000002F5FFD01E20FF11D90819111E1CFB2
:1020400008951F93CF93DF93FC01892B09F466C099
:1020500045E011E02FE037E2E9012196CF01BE0112
:102060000E945B1361111DC02E173F0708F052C07C
:102070001123A9F111E0CF01BE010E945B13FC0105
:10208000ADECBCEC0E9489139C01369527953695E2
:102090002795369527954150F9F6DF91CF911F91FD
:1020A00008952E173F07D8F0605D8F9AF89462B9B3
:1020B0009AE09A95F1F700C0449A8AE08A95F1F780
:1020C00000C044989AE09A95F1F700C078948FE7A1
:1020D00092E00197F1F700C0000010E0D1CF605D01
:1020E0008F9AF89462B99AE09A95F1F700C0449AF1
:1020F0008AE08A95F1F700C044989AE09A95F1F742
:1021000000C078948FE792E00197F1F700C00000DB
:1021100010E0B1CF112341F211E0B2CF8F9AF894C1
:1021200080E382B98AE08A95F1F700C0449A9AE088
:102130009A95F1F700C044988AE08A95F1F700C0BB
:1021400078948FE792E00197F1F700C00000DF91EB
:10215000CF911F9108958F98F89481E082B98AE019
:102160008A95F1F700C0449A9AE09A95F1F700C079
:1021700044988AE08A95F1F700C078948FE79EE34F
:102180000197F1F700C0000008955D9A5C980895EA
:10219000262F3FEF81110EC06303C001112464E6B6
:1021A00070E00E946F136093B30012169CF45C9A67
:1021B0005D9808956303C001112464E670E00E94F5
:1021C0006F1367BD12161CF45E9A5F9808955F9AAC
:1021D0005E9808950C94C510CF93DF93C3EBD0E0C5
:1021E00018820E94C51017BC5F9A5E9884B18069FE
:1021F00084B98AB1806F8AB9E0EBF0E080818866AB
:10220000808380818260808384B5886684BD84B544
:10221000826084BD8AE087BD8883DF91CF91089575
:102220005C9A5D982C9A5F9A5E982F9A08951F92F7
:102230000F920FB60F9211242F933F934F935F93FA
:102240006F937F938F939F93EF93FF9380914102BE
:10225000409188005091890080FD30C08695E82F1C
:10226000F0E0EE0FFF1FE656FD4F20813181240F75
:10227000351F309389002093880048B121E030E079
:10228000B90102C0660F771F8A95E2F7CB01842B54
:1022900088B9809141028F5F877080934102FF91DE
:1022A000EF919F918F917F916F915F914F913F91AE
:1022B0002F910F900FBE0F901F9018958695E82FC5
:1022C000F0E0EE0FFF1FEE56FD4F20813181240F0D
:1022D000351F309389002093880048B121E030E019
:1022E000B90102C0660F771F8A95E2F7CB0180958E
:1022F000842388B9CECF90E02AE0629FB0011124F8
:102300006C53764F880F991FFC01E656FD4F718381
:102310006083FC01EE56FD4F24ED30E3261B370BA6
:10232000318320830895AAE9B2E024EC39E01196C4
:102330003C932E93E2E9F2E080E197E2918380837F
:1023400013963C932E9312979383828315963C9316
:102350002E9314979583848317963C932E93169708
:102360009783868387B18F6087B9E1E8F0E01082B8
:10237000808182608083EFE6F0E0808182608083EC
:10238000789408958CB18095881F8827881F0895B8
:10239000482F50E04E30510510F080E00895FA01CA
:1023A000E25DFF4F0C94831323B130E08950A90103
:1023B00002C0559547958A95E2F7CA018170089544
:1023C00083B18695817008952CB130E0A90102C0D7
:1023D000559547958A95E2F7CA018170089522B311
:1023E00030E08F5FA90102C0559547958A95E2F7C5
:1023F000CA01817008958CB186FB882780F9089501
:1024000023B1E3CF26B130E08250A90102C0559537
:1024100047958A95E2F7CA018170089583B181706A
:102420000895962F482F50E04E30510540F4FA01A0
:10243000E45CFF4F0C948313611164C021980895EC
:1024400044B1895021E030E0B90102C0660F771F26
:102450008A95E2F79923F1F1CB01842B84B9089591
:102460004DB121E030E0B90102C0660F771F8A95B7
:10247000E2F7992309F43FC0CB01842B8DB908956D
:1024800043B38F5F21E030E0B90102C0660F771FD0
:102490008A95E2F7992329F1CB01842B83BB089518
:1024A0006623E9F06E9A089547B1825021E030E04A
:1024B000B90102C0660F771F8A95E2F79923B1F040
:1024C000CB01842B87B9089544B1BCCF6623C1F0FA
:1024D000209A0895CB018095842384B908956E983D
:1024E0000895CB018095842383BB0895CB0180950B
:1024F000842387B90895CB01809584238DB90895ED
:1025000020980895219A0895962F482F50E04E3034
:10251000510540F4FA01E65BFF4F0C9483136111FF
:1025200064C02998089545B1895021E030E0B9018F
:1025300002C0660F771F8A95E2F79923F1F1CB016C
:10254000842B85B908954EB121E030E0B90102C075
:10255000660F771F8A95E2F7992309F43FC0CB01F4
:10256000842B8EB9089544B38F5F21E030E0B90128
:1025700002C0660F771F8A95E2F7992329F1CB01F4
:10258000842B84BB08956623E9F0769A089548B1B8
:10259000825021E030E0B90102C0660F771F8A95B2
:1025A000E2F79923B1F0CB01842B88B9089545B1A6
:1025B000BCCF6623C1F0289A0895CB01809584236F
:1025C00085B9089576980895CB018095842384BBBE
:1025D0000895CB018095842388B90895CB01809517
:1025E00084238EB9089528980895299A0895811111
:1025F00004C0613031F0A0980895613021F0A198B5
:102600000895A09A0895A19A0895882311F0A19A97
:102610000895A09A0895882311F0A1980895A0988C
:102620000895529A83B3836083BB779A0E94B90C52
:102630000E942C0F0E9493110E94EC1041E06AE26C
:102640008CE10E948F0E2FEF81EE94E021508040AC
:102650009040E1F700C000000C94F90C0E941113A7
:102660000E9493110E942C0F0E94040180913E024F
:10267000C2E0813061F08130C8F0823081F0833077
:1026800099F40E94EC0B80913E028130A1F70E94E8
:102690009F0490933D0280933C02C0933E020E94AF
:1026A0000C0B80913E02E5CF10923E020E946F0516
:1026B00080913E02DECFAA1BBB1B51E107C0AA1FBF
:1026C000BB1FA617B70710F0A61BB70B881F991FD3
:1026D0005A95A9F780959095BC01CD01089597FB77
:1026E000072E16F4009407D077FD09D00E945B13E3
:1026F00007FC05D03EF4909581959F4F0895709505
:1027000061957F4F0895EE0FFF1F0590F491E02D26
:102710000994A29FB001B39FC001A39F700D811DBA
:102720001124911DB29F700D811D1124911D0895DA
:102730005058BB27AA270E94B0130C9484150E94FE
:10274000761538F00E947D1520F039F49F3F19F47A
:1027500026F40C944C150EF4E095E7FB0C9446150A
:10276000E92F0E94951558F3BA176207730784077B
:10277000950720F079F4A6F50C94B7150EF4E095C2
:102780000B2EBA2FA02D0B01B90190010C01CA012B
:10279000A0011124FF27591B99F0593F50F4503ED6
:1027A00068F11A16F040A22F232F342F4427585FC8
:1027B000F3CF469537952795A795F0405395C9F7E0
:1027C0007EF41F16BA0B620B730B840BBAF0915098
:1027D000A1F0FF0FBB1F661F771F881FC2F70EC037
:1027E000BA0F621F731F841F48F48795779567950A
:1027F000B795F7959E3F08F0B0CF9395880F08F0F6
:102800009927EE0F9795879508950E94221508F451
:1028100081E008950E941E140C9484150E947D1579
:1028200058F00E94761540F029F45F3F29F00C948F
:10283000461551110C94B8150C944C150E94951521
:1028400068F39923B1F3552391F3951B550BBB27DF
:10285000AA2762177307840738F09F5F5F4F220F24
:10286000331F441FAA1FA9F335D00E2E3AF0E0E81B
:1028700032D091505040E695001CCAF72BD0FE2F65
:1028800029D0660F771F881FBB1F261737074807F9
:10289000AB07B0E809F0BB0B802DBF01FF279358B1
:1028A0005F4F3AF09E3F510578F00C9446150C941A
:1028B000B8155F3FE4F3983ED4F386957795679516
:1028C000B795F7959F5FC9F7880F911D96958795E6
:1028D00097F90895E1E0660F771F881FBB1F621705
:1028E00073078407BA0720F0621B730B840BBA0BC3
:1028F000EE1F88F7E095089529F416F00C9446151C
:102900000C94B7150C944C150E949D15A8F396389D
:10291000A0F707F80F92E8942BE33AEA48EB5FE759
:102920000E944F160F920F920F924DB75EB70F9203
:102930000E940516E0EBF0E00E944F154F915F9169
:10294000EF91FF91E595EE1FFF1F49F0FE57E068FC
:102950004427EE0F441FFA95E1F74195550B0E946D
:10296000CF150F9007FE0C94C31508950E949D1576
:1029700088F09F5798F0B92F9927B751B0F0E1F040
:10298000660F771F881F991F1AF0BA95C9F714C0F0
:10299000B13091F00E94B715B1E008950C94B715CD
:1029A000672F782F8827B85F39F0B93FCCF3869529
:1029B00077956795B395D9F73EF490958095709586
:1029C00061957F4F8F4F9F4F0895E89409C097FB03
:1029D0003EF490958095709561957F4F8F4F9F4FF6
:1029E0009923A9F0F92F96E9BB279395F69587953A
:1029F00077956795B795F111F8CFFAF4BB0F11F4FD
:102A000060FF1BC06F5F7F4F8F4F9F4F16C08823A3
:102A100011F096E911C0772321F09EE8872F762FD9
:102A200005C0662371F096E8862F70E060E02AF01A
:102A30009A95660F771F881FDAF7880F9695879506
:102A400097F90895990F0008550FAA0BE0E8FEEFDB
:102A500016161706E807F907C0F012161306E40762
:102A6000F50798F0621B730B840B950B39F40A265B
:102A700061F0232B242B252B21F408950A2609F439
:102A8000A140A6958FEF811D811D089597F99F673D
:102A900080E870E060E008959FEF80EC0895DF9398
:102AA000CF931F930F93FF92EF92DF927B018C01E4
:102AB000689406C0DA2EEF010E944C16FE01E894DD
:102AC000A5912591359145915591A6F3EF010E946D
:102AD000B013FE019701A801DA9469F7DF90EF9037
:102AE000FF900F911F91CF91DF91089500240A94D8
:102AF0001616170618060906089500240A941216D9
:102B00001306140605060895092E0394000C11F40B
:102B1000882352F0BB0F40F4BF2B11F460FF04C0B8
:102B20006F5F7F4F8F4F9F4F089557FD9058440F11
:102B3000551F59F05F3F71F04795880F97FB991F1C
:102B400061F09F3F79F087950895121613061406D9
:102B5000551FF2CF4695F1DF08C016161706180666
:102B6000991FF1CF86957105610508940895E89441
:102B7000BB2766277727CB0197F908950E94221576
:102B800008F48FEF08959B01AC0160E070E080E8ED
:102B90009FE30C940A140C9446150C94A6160E94FC
:102BA0009D15D8F39923C9F3940F511DA3F39150A8
:102BB000504094F059F0882332F0660F771F881F39
:102BC00091505040C1F79E3F51052CF7880F911D41
:102BD0009695879597F908955F3FACF0983E9CF0E5
:102BE000BB27869577956795B79508F4B16093955F
:102BF000C1F7BB0F58F711F460FFE8CF6F5F7F4F4D
:102C00008F4F9F4FE3CF0C94B815FA01DC01AA0F48
:102C1000BB1F9B01AC01BF5728F422273327442751
:102C2000507820C0B75190F4AB2F002446953795CB
:102C30002795011CA395D2F3002071F0220F331FBA
:102C4000441FB395DAF30ED00C94981361307105DC
:102C5000A0E88A07B94630F49B01AC0166277727C4
:102C600088279078309621F02083318342835383E4
:102C700008950E944C160C9484150E94761538F025
:102C80000E947D1520F0952311F00C9446150C94AC
:102C90004C1511240C94B8150E94951570F3959F4E
:102CA000C1F3950F50E0551F629FF001729FBB2743
:102CB000F00DB11D639FAA27F00DB11DAA1F649FDF
:102CC0006627B00DA11D661F829F2227B00DA11D92
:102CD000621F739FB00DA11D621F839FA00D611D18
:102CE000221F749F3327A00D611D231F849F600D39
:102CF000211D822F762F6A2F11249F5750409AF062
:102D0000F1F088234AF0EE0FFF1FBB1F661F771FED
:102D1000881F91505040A9F79E3F510580F00C94B8
:102D200046150C94B8155F3FE4F3983ED4F38695AE
:102D300077956795B795F795E7959F5FC1F7FE2B58
:102D4000880F911D9695879597F908959F3F31F0CB
:102D5000915020F4879577956795B795880F911DC9
:102D60009695879597F908950F931F93CF93DF93C7
:102D70008230910510F482E090E0E091A402F0919D
:102D8000A50220E030E0A0E0B0E0309719F14081EA
:102D900051810281138148175907C8F0841795079C
:102DA00069F4109731F012960C93129713961C93B6
:102DB00027C00093A4021093A50222C0211531055B
:102DC00019F04217530718F49A01BD01EF01DF0112
:102DD000F801DBCF21153105F9F0281B390B243020
:102DE000310580F48A819B816115710521F0FB0119
:102DF0009383828304C09093A5028093A402FE0172
:102E0000329644C0FE01E20FF31F8193919322504A
:102E10003109398328833AC02091A2023091A3025C
:102E2000232B41F420916A0130916B013093A3026E
:102E30002093A2022091680130916901211531058A
:102E400041F42DB73EB740916C0150916D01241BA8
:102E5000350BE091A202F091A302E217F307A0F470
:102E60002E1B3F0B2817390778F0AC014E5F5F4FE0
:102E70002417350748F04E0F5F1F5093A30240936D
:102E8000A2028193919302C0E0E0F0E0CF01DF91D4
:102E9000CF911F910F910895CF93DF93009709F47D
:102EA00081C0FC01329713821282A091A402B091DA
:102EB000A502109781F420813181820F931F209108
:102EC000A2023091A3022817390751F5F093A3020B
:102ED000E093A20267C0ED0120E030E0CE17DF07EB
:102EE00040F44A815B819E0141155105F1F0EA01F0
:102EF000F5CFD383C28340815181840F951FC817BA
:102F0000D90759F488819981840F951F029691837E
:102F100080838A819B81938382832115310529F4E3
:102F2000F093A502E093A4023DC0E901FB83EA838C
:102F300049915991C40FD51FEC17FD0761F48081A9
:102F40009181840F951F0296E9019983888382817C
:102F500093819B838A83E0E0F0E012968D919C91AF
:102F60001397009719F0FD01DC01F7CF8D919C912B
:102F700011979D012E5F3F4F820F931F2091A20258
:102F80003091A3022817390769F4309729F4109279
:102F9000A5021092A40202C013821282B093A3026F
:102FA000A093A202DF91CF9108958F929F92AF924A
:102FB000BF92CF92DF92EF92FF92CF93DF93EC011B
:102FC000688179818A819B816115710581059105EF
:102FD00021F464E279ED8BE597E02DE133EF41E0F8
:102FE00050E00E94E41A49015A019B01AC01A7EA92
:102FF000B1E40E94031B6B017C01ACEEB4EFA501B0
:1030000094010E94111BDC01CB018C0D9D1DAE1D96
:10301000BF1DB7FF03C00197A109B04888839983FA
:10302000AA83BB839F77DF91CF91FF90EF90DF90D2
:10303000CF90BF90AF909F908F9008950E94D5172A
:1030400008958EE691E00E94D5170895A0E0B0E0C3
:1030500080936E0190936F01A0937001B093710102
:103060000895AEE0B0E0E7E3F8E10C94241B0D898D
:103070001E8986E08C831A8309838FEF9FE79E83E6
:103080008D83AE01475E5F4F6F89788DCE010196CB
:103090000E945318EF81F885E00FF11F10822E96E1
:1030A000E4E00C94401BABE0B0E0E9E5F8E10C94FF
:1030B000161B6C017B018A01FC0117821682838139
:1030C00081FFCCC1CE0101963C01F6019381F7014D
:1030D00093FD859193FF81917F01882309F4BAC103
:1030E000853239F493FD859193FF81917F0185327B
:1030F00029F4B60190E00E944A1AE7CF912C212CC6
:10310000312CFFE1F315D8F08B3279F038F48032AE
:1031100079F08332A1F4232D20611DC08D3261F03E
:10312000803369F4232D216016C0832D8260382EF0
:10313000E32DE4603E2E2AC0F32DF8601DC037FC5D
:103140002DC020ED280F2A3040F08E32B9F436FC25
:1031500081C1232D2064322E19C036FE06C08AE0BC
:10316000989E200D1124922E11C0EAE02E9E200D73
:103170001124222EF32DF0623F2E08C08C3621F44C
:10318000832D8068382E02C0883641F4F70193FD04
:10319000859193FF81917F018111B3CF982F9F7DFE
:1031A0009554933028F40C5F1F4F9FE399830DC013
:1031B000833631F0833771F0833509F059C021C06F
:1031C000F801808189830E5F1F4F88248394912C9E
:1031D000530113C02801F2E04F0E511CF801A080EA
:1031E000B18036FE03C0692D70E002C06FEF7FEF43
:1031F000C5010E943F1A4C018201F32DFF773F2E3B
:1032000016C0280122E0420E511CF801A080B180B6
:1032100036FE03C0692D70E002C06FEF7FEFC5017D
:103220000E94341A4C01F32DF0683F2E820133FCCA
:103230001BC0822D90E088169906B0F4B60180E29A
:1032400090E00E944A1A2A94F4CFF50137FC859148
:1032500037FE81915F01B60190E00E944A1A211069
:103260002A9421E0821A91088114910471F7E8C030
:10327000843611F0893641F5F80137FE07C06081C8
:103280007181828193810C5F1F4F08C060817181C1
:10329000072E000C880B990B0E5F1F4FF32DFF7646
:1032A0003F2E97FF09C090958095709561957F4F4F
:1032B0008F4F9F4FF0683F2E2AE030E0A3010E941D
:1032C000861A882E861845C0853731F4232D2F7E27
:1032D000B22E2AE030E025C0932D997FB92E8F368B
:1032E000C1F018F4883579F0B5C0803719F0883707
:1032F00021F0B0C0E92FE061BE2EB4FE0DC0FB2D61
:10330000F460BF2E09C034FE0AC0292F2660B22EF9
:1033100006C028E030E005C020E130E002C020E136
:1033200032E0F801B7FE07C060817181828193812C
:103330000C5F1F4F06C06081718180E090E00E5FDE
:103340001F4FA3010E94861A882E8618FB2DFF7737
:103350003F2E36FE0DC0232D2E7FA22E891458F449
:1033600034FE0BC032FC09C0832D8E7EA82E05C012
:10337000B82CA32C03C0B82C01C0B92CA4FE0FC0DC
:10338000FE01E80DF11D8081803321F49A2D997E94
:10339000A92E09C0A2FE06C0B394B39404C08A2D1E
:1033A000867809F0B394A3FC11C0A0FE06C0B21445
:1033B00088F4280C922C9B180EC0B21460F4B6014D
:1033C00080E290E00E944A1AB394F7CFB21418F446
:1033D0002B1802C0982C212CA4FE10C0B60180E34B
:1033E00090E00E944A1AA2FE17C0A1FC03C088E721
:1033F00090E002C088E590E0B6010CC08A2D867886
:1034000059F0A1FE02C08BE201C080E2A7FC8DE270
:10341000B60190E00E944A1A891438F4B60180E39C
:1034200090E00E944A1A9A94F7CF8A94F301E80D2B
:10343000F11D8081B60190E00E944A1A8110F5CFFB
:10344000222009F442CEB60180E290E00E944A1A9E
:103450002A94F6CFF6018681978102C08FEF9FEF05
:103460002B96E2E10C94321BFC01059061507040F8
:103470000110D8F7809590958E0F9F1F0895FC013D
:103480006150704001900110D8F7809590958E0F93
:103490009F1F08950F931F93CF93DF93FB01238109
:1034A00021FD03C08FEF9FEF2CC022FF16C0468185
:1034B0005781248135814217530744F4A081B1819B
:1034C0009D012F5F3F4F318320838C93268137816D
:1034D0002F5F3F4F3783268314C08B01EC01FB0124
:1034E0000084F185E02D0995892BE1F6D801169627
:1034F0008D919C911797019617969C938E93169792
:10350000CE01DF91CF911F910F910895FA01AA2763
:10351000283051F1203181F1E8946F936E7F6E5F16
:103520007F4F8F4F9F4FAF4FB1E03ED0B4E03CD0C4
:10353000670F781F891F9A1FA11D680F791F8A1FA7
:10354000911DA11D6A0F711D811D911DA11D20D00E
:1035500009F468943F912AE0269F11243019305DC8
:103560003193DEF6CF010895462F4770405D4193B9
:10357000B3E00FD0C9F7F6CF462F4F70405D4A3306
:1035800018F0495D31FD4052419302D0A9F7EACFCE
:10359000B4E0A6959795879577956795BA95C9F7FD
:1035A00000976105710508959B01AC010A2E0694F0
:1035B0005795479537952795BA95C9F7620F731FA9
:1035C000841F951FA01D0895052E97FB1EF40094DF
:1035D0000E94FB1A57FD07D00E944D1B07FC03D029
:1035E0004EF40C94FB1A50954095309521953F4F21
:1035F0004F4F5F4F089590958095709561957F4FDF
:103600008F4F9F4F08950E948913A59F900DB49FDF
:10361000900DA49F800D911D11240895B7FF0C9467
:10362000031B0E94031B821B930B08952F923F9252
:103630004F925F926F927F928F929F92AF92BF92C2
:10364000CF92DF92EF92FF920F931F93CF93DF936E
:10365000CDB7DEB7CA1BDB0B0FB6F894DEBF0FBECB
:10366000CDBF09942A88398848885F846E847D8418
:103670008C849B84AA84B984C884DF80EE80FD801A
:103680000C811B81AA81B981CE0FD11D0FB6F89490
:10369000DEBF0FBECDBFED010895A1E21A2EAA1B19
:1036A000BB1BFD010DC0AA1FBB1FEE1FFF1FA217F2
:1036B000B307E407F50720F0A21BB30BE40BF50BEF
:1036C000661F771F881F991F1A9469F76095709578
:1036D000809590959B01AC01BD01CF010895F894B0
:0236E000FFCF1A
:1036E2000A141E28323C46505A646E78828C96A088
:1036F200AAB4BEC8000000000000000000000000E4
:1037020000000000000000000000000000000000B7
:1037120000000000000000000000000000000000A7
:103722000000000000000000000000000000000097
:103732000000000000000000000000000000000087
:10374200000000009A99993E0000A60220000100A4
:10375200000053657420497465726174696F6E73F9
:103762003A0054696C7420746F2061646A757374D2
:10377200003C3D2D20202B3D3E00202020202020FB
:103782002000547261696E696E6720776974683AC5
:103792000020697465726174696F6E7300446174AC
:1037A2006100436F6C6C656374696F6E004C3A25FF
:1037B2006420256400523A256400446F6E6500500F
:1037C200726F706F7274696F6E616C004C3A25642F
:1037D200004E6F20646174612100547261696E69E8
:1037E2006E6700547261696E696E6720004E65757E
:1037F20072616C004E6574776F726B004D6F72650B
:1038020000616464724E41434B0077725F4E4143E4
:0C3812004B00726561644E41434B0000A6
:00000001FF
